120180802PAGO FACIL               090060009INS. SALESIANA SAN FCO. JAVIER-ASOC                                                  
320180802000001INS. SALESIANA SAN FCO. JAVIER-ASOC                                                                              
50000110201808012018080200000423             PES0000030000A095702018080113420049                                                
6000900000423000200                                                                                                             
7PESE                                                                                000000000030000                            
50000210201808012018080200004456             PES0000070000A188902018080115240066                                                
6000900004456000263                                                                                                             
7PESE                                                                                000000000070000                            
50000310201808012018080200005800             PES0000010000A106002018080109500053                                                
6000900005800000236                                                                                                             
7PESE                                                                                000000000010000                            
50000410201808012018080200009850             PES0000006500A075792018080109190049                                                
6000900009850000237                                                                                                             
7PESE                                                                                000000000006500                            
50000510201808012018080200010562             PES0000020000D002262018080110420052                                                
6000900010562000216                                                                                                             
7PESE                                                                                000000000020000                            
50000610201808012018080200011320             PES0000020000A232802018080109260017                                                
6000900011320000263                                                                                                             
7PESE                                                                                000000000020000                            
50000710201808012018080200011355             PES0000015000A193922018080110410033                                                
6000900011355000215                                                                                                             
7PESE                                                                                000000000015000                            
50000810201808012018080200013157             PES0000025000D000492018080116490074                                                
6000900013157000242                                                                                                             
7PESE                                                                                000000000025000                            
50000910201808012018080200013220             PES0000015000A188312018080109540014                                                
6000900013220000237                                                                                                             
7PESE                                                                                000000000015000                            
50001010201808012018080200013669             PES0000010000D009612018080110200023                                                
6000900013669000215                                                                                                             
7PESE                                                                                000000000010000                            
50001110201808012018080200014237             PES0000080000D005772018080110350028                                                
6000900014237000257                                                                                                             
7PESP                                                                                000000000080000                            
50001210201808012018080200014391             PES0000005000A073412018080110540046                                                
6000900014391000200                                                                                                             
7PESE                                                                                000000000005000                            
50001310201808012018080200014474             PES0000015000D005762018080113550142                                                
6000900014474000279                                                                                                             
7PESE                                                                                000000000015000                            
50001410201808012018080200014681             PES0000010000A186512018080115540028                                                
6000900014681000221                                                                                                             
7PESE                                                                                000000000010000                            
50001510201808012018080200015448             PES0000030000A032972018080110550030                                                
6000900015448000284                                                                                                             
7PESE                                                                                000000000030000                            
50001610201808012018080200015581             PES0000020000A159742018080114520050                                                
6000900015581000258                                                                                                             
7PESE                                                                                000000000020000                            
50001710201808012018080200015967             PES0000030000M600092018080112050019                                                
6000900015967000279                                                                                                             
7PESE                                                                                000000000030000                            
50001810201808012018080200016284             PES0000030000D005982018080119030183                                                
6000900016284000263                                                                                                             
7PESP                                                                                000000000030000                            
50001910201808012018080200016531             PES0000010000A076262018080113510029                                                
6000900016531000279                                                                                                             
7PESE                                                                                000000000010000                            
50002010201808012018080200016561             PES0000005000A063832018080113100002                                                
6000900016561000257                                                                                                             
7PESE                                                                                000000000005000                            
50002110201808012018080200017254             PES0000010000D006472018080112500203                                                
6000900017254000236                                                                                                             
7PESE                                                                                000000000010000                            
50002210201808012018080200017318             PES0000025000D001262018080120420177                                                
6000900017318000284                                                                                                             
7PESE                                                                                000000000025000                            
50002310201808012018080200017536             PES0000050000A211112018080110380044                                                
6000900017536000290                                                                                                             
7PESE                                                                                000000000050000                            
50002410201808012018080200017708             PES0000007000L193842018080117130287                                                
6000900017708000221                                                                                                             
7PESE                                                                                000000000007000                            
50002510201808012018080200017825             PES0000010000A288682018080116410029                                                
6000900017825000284                                                                                                             
7PESE                                                                                000000000010000                            
50002610201808012018080200017846             PES0000015000D002092018080112460121                                                
6000900017846000263                                                                                                             
7PESE                                                                                000000000015000                            
50002710201808012018080200018085             PES0000008000A065952018080115480010                                                
6000900018085000258                                                                                                             
7PESE                                                                                000000000008000                            
50002810201808012018080200018535             PES0000020000A029312018080110580027                                                
6000900018535000200                                                                                                             
7PESE                                                                                000000000020000                            
50002910201808012018080200018583             PES0000025000D004292018080118040127                                                
6000900018583000263                                                                                                             
7PESE                                                                                000000000025000                            
50003010201808012018080200019024             PES0000080000A177622018080110480031                                                
6000900019024000216                                                                                                             
7PESE                                                                                000000000080000                            
50003110201808012018080200019905             PES0000020000A044482018080111290042                                                
6000900019905000237                                                                                                             
7PESE                                                                                000000000020000                            
50003210201808012018080200020023             PES0000030000A222692018080111350025                                                
6000900020023000215                                                                                                             
7PESE                                                                                000000000030000                            
50003310201808012018080200020253             PES0000010000L192012018080116062303                                                
6000900020253000216                                                                                                             
7PESE                                                                                000000000010000                            
50003410201808012018080200020629             PES0000040000A134192018080112070012                                                
6000900020629000215                                                                                                             
7PESE                                                                                000000000040000                            
50003510201808012018080200020686             PES0000020000D001252018080114060188                                                
6000900020686000258                                                                                                             
7PESE                                                                                000000000020000                            
50003610201808012018080200020873             PES0000010000A131752018080117080010                                                
6000900020873000258                                                                                                             
7PESE                                                                                000000000010000                            
50003710201808012018080200021756             PES0000030000D005422018080113090187                                                
6000900021756000242                                                                                                             
7PESE                                                                                000000000030000                            
50003810201808012018080200022298             PES0000015000M600402018080111060019                                                
6000900022298000284                                                                                                             
7PESE                                                                                000000000015000                            
50003910201808012018080200022472             PES0000015000A278292018080116480092                                                
6000900022472000257                                                                                                             
7PESP                                                                                000000000015000                            
50004010201808012018080200022486             PES0000100000M600282018080115360088                                                
6000900022486000216                                                                                                             
7PESE                                                                                000000000100000                            
50004110201808012018080200022486             PES0000100000M600282018080115360087                                                
6000900022486000216                                                                                                             
7PESE                                                                                000000000100000                            
50004210201808012018080200022630             PES0000030000M600402018080116470085                                                
6000900022630000215                                                                                                             
7PESE                                                                                000000000030000                            
50004310201808012018080200022657             PES0000020000A056382018080113130052                                                
6000900022657000200                                                                                                             
7PESE                                                                                000000000020000                            
50004410201808012018080200022955             PES0000030000A145212018080115220025                                                
6000900022955000284                                                                                                             
7PESE                                                                                000000000030000                            
50004510201808012018080200023041             PES0000100000D004892018080111200131                                                
6000900023041000221                                                                                                             
7PESE                                                                                000000000100000                            
50004610201808012018080200023064             PES0000030000A127812018080114230077                                                
6000900023064000284                                                                                                             
7PESE                                                                                000000000030000                            
50004710201808012018080200024626             PES0000010000A128432018080118450045                                                
6000900024626000284                                                                                                             
7PESE                                                                                000000000010000                            
50004810201808012018080200026353             PES0000010000A182762018080111440040                                                
6000900026353000200                                                                                                             
7PESE                                                                                000000000010000                            
50004910201808012018080202001078             PES0000030000D008872018080111440106                                                
6000902001078000216                                                                                                             
7PESE                                                                                000000000030000                            
50005010201808012018080202001231             PES0000050000A090052018080117300045                                                
6000902001231000200                                                                                                             
7PESE                                                                                000000000050000                            
50005110201808012018080202001367             PES0000100000D002332018080112180114                                                
6000902001367000200                                                                                                             
7PESE                                                                                000000000100000                            
50005210201808012018080202001367             PES0000100000D002332018080112180113                                                
6000902001367000200                                                                                                             
7PESE                                                                                000000000100000                            
50005310201808012018080202001367             PES0000100000D002332018080112180112                                                
6000902001367000200                                                                                                             
7PESE                                                                                000000000100000                            
50005410201808012018080202001367             PES0000100000D002332018080112180111                                                
6000902001367000200                                                                                                             
7PESE                                                                                000000000100000                            
50005510201808012018080202001367             PES0000100000D002332018080112180110                                                
6000902001367000200                                                                                                             
7PESE                                                                                000000000100000                            
50005610201808012018080202001367             PES0000100000D002332018080112180109                                                
6000902001367000200                                                                                                             
7PESE                                                                                000000000100000                            
50005710201808012018080202001367             PES0000100000D002332018080112180108                                                
6000902001367000200                                                                                                             
7PESE                                                                                000000000100000                            
50005810201808012018080202001367             PES0000100000D002332018080112180107                                                
6000902001367000200                                                                                                             
7PESE                                                                                000000000100000                            
50005910201808012018080202001367             PES0000100000D002332018080112180106                                                
6000902001367000200                                                                                                             
7PESE                                                                                000000000100000                            
50006010201808012018080202001367             PES0000100000D002332018080112180105                                                
6000902001367000200                                                                                                             
7PESE                                                                                000000000100000                            
50006110201808012018080202001970             PES0000049300A288692018080113230021                                                
6000902001970000278                                                                                                             
7PESE                                                                                000000000049300                            
50006210201808012018080202002402             PES0000020000A136742018080111290005                                                
6000902002402000237                                                                                                             
7PESE                                                                                000000000020000                            
50006310201808012018080202003118             PES0000040000M700172018080111210046                                                
6000902003118000278                                                                                                             
7PESE                                                                                000000000040000                            
50006410201808012018080202003297             PES0000025000A112942018080110130049                                                
6000902003297000257                                                                                                             
7PESE                                                                                000000000025000                            
50006510201808012018080202003367             PES0000010000D008872018080116000310                                                
6000902003367000299                                                                                                             
7PESE                                                                                000000000010000                            
50006610201808012018080202003993             PES0000030000M620042018080110580010                                                
6000902003993000216                                                                                                             
7PESE                                                                                000000000030000                            
50006710201808012018080202004110             PES0000010000A214452018080114130006                                                
6000902004110000237                                                                                                             
7PESE                                                                                000000000010000                            
50006810201808012018080202004891             PES0000020000D008302018080109270004                                                
6000902004891000279                                                                                                             
7PESE                                                                                000000000020000                            
50006910201808012018080207018293             PES0000010000A172122018080117210018                                                
6000907018293000242                                                                                                             
7PESE                                                                                000000000010000                            
50007010201808012018080214119167             PES0000007000A171712018080118470045                                                
6000914119167000263                                                                                                             
7PESE                                                                                000000000007000                            
50007110201808012018080214119167             PES0000007000A171712018080118470044                                                
6000914119167000263                                                                                                             
7PESE                                                                                000000000007000                            
50007210201808012018080218007238             PES0000010000A172852018080117550018                                                
6000918007238000257                                                                                                             
7PESE                                                                                000000000010000                            
50007310201808012018080218922698             PES0000030000A147452018080113580051                                                
6000918922698000236                                                                                                             
7PESE                                                                                000000000030000                            
50007410201808012018080220500376             PES0000100000M800002018080109300012                                                
6000920500376000236                                                                                                             
7PESE                                                                                000000000100000                            
50007510201808012018080220500376             PES0000100000M800002018080109300011                                                
6000920500376000236                                                                                                             
7PESE                                                                                000000000100000                            
50007610201808012018080221517465             PES0000050000A257712018080117510024                                                
6000921517465000257                                                                                                             
7PESE                                                                                000000000050000                            
50007710201808012018080222713729             PES0000020000A160352018080112560041                                                
6000922713729000221                                                                                                             
7PESE                                                                                000000000020000                            
50007810201808012018080222818198             PES0000006000A181742018080110250018                                                
6000922818198000221                                                                                                             
7PESE                                                                                000000000006000                            
50007910201808012018080223416512             PES0000020000D005422018080109290033                                                
6000923416512000290                                                                                                             
7PESE                                                                                000000000020000                            
50008010201808012018080223517584             PES0000020000A211512018080115390027                                                
6000923517584000215                                                                                                             
7PESE                                                                                000000000020000                            
50008110201808012018080223519024             PES0000050000A177622018080110490033                                                
6000923519024000279                                                                                                             
7PESE                                                                                000000000050000                            
50008210201808012018080224006430             PES0000015000A211082018080110350044                                                
6000924006430000242                                                                                                             
7PESE                                                                                000000000015000                            
50008310201808012018080224103869             PES0000020000D000072018080110130053                                                
6000924103869000284                                                                                                             
7PESE                                                                                000000000020000                            
50008410201808012018080224219024             PES0000050000A177622018080110490032                                                
6000924219024000216                                                                                                             
7PESE                                                                                000000000050000                            
50008510201808012018080224318673             PES0000005000A137632018080110580044                                                
6000924318673000279                                                                                                             
7PESE                                                                                000000000005000                            
50008610201808012018080224713473             PES0000012000A084922018080113220040                                                
6000924713473000221                                                                                                             
7PESE                                                                                000000000012000                            
50008710201808012018080224715280             PES0000025000A262042018080111050019                                                
6000924715280000200                                                                                                             
7PESE                                                                                000000000025000                            
50008810201808012018080224824442             PES0000050000A254952018080109390012                                                
6000924824442000216                                                                                                             
7PESE                                                                                000000000050000                            
50008910201808012018080224907651             PES0000020000A073412018080108500026                                                
6000924907651000221                                                                                                             
7PESE                                                                                000000000020000                            
50009010201808012018080224918657             PES0000005000A137132018080112360011                                                
6000924918657000216                                                                                                             
7PESP                                                                                000000000005000                            
50009110201808012018080225002079             PES0000100000M601622018080111320036                                                
6000925002079000236                                                                                                             
7PESE                                                                                000000000100000                            
50009210201808012018080225008235             PES0000010000A136932018080117050023                                                
6000925008235000299                                                                                                             
7PESE                                                                                000000000010000                            
50009310201808012018080225010623             PES0000010000A076262018080116140060                                                
6000925010623000236                                                                                                             
7PESE                                                                                000000000010000                            
50009410201808012018080225011887             PES0000010000M600112018080114580018                                                
6000925011887000290                                                                                                             
7PESE                                                                                000000000010000                            
50009510201808012018080225012665             PES0000004000M600212018080112480015                                                
6000925012665000299                                                                                                             
7PESE                                                                                000000000004000                            
50009610201808012018080225104294             PES0000020000D000072018080111270072                                                
6000925104294000257                                                                                                             
7PESE                                                                                000000000020000                            
50009710201808012018080225104341             PES0000015000A160512018080110560041                                                
6000925104341000237                                                                                                             
7PESE                                                                                000000000015000                            
50009810201808012018080225104750             PES0000020000A222632018080112250012                                                
6000925104750000284                                                                                                             
7PESE                                                                                000000000020000                            
50009910201808012018080225106319             PES0000010000A073412018080112530052                                                
6000925106319000236                                                                                                             
7PESE                                                                                000000000010000                            
50010010201808012018080225106397             PES0000014300A168562018080112020063                                                
6000925106397000263                                                                                                             
7PESE                                                                                000000000014300                            
50010110201808012018080225107138             PES0000015000A180842018080112440088                                                
6000925107138000263                                                                                                             
7PESE                                                                                000000000015000                            
50010210201808012018080225107164             PES0000050000A035742018080111480073                                                
6000925107164000290                                                                                                             
7PESE                                                                                000000000050000                            
50010310201808012018080225107447             PES0000020000A273762018080113340039                                                
6000925107447000290                                                                                                             
7PESE                                                                                000000000020000                            
50010410201808012018080225108235             PES0000010000A136932018080117040022                                                
6000925108235000216                                                                                                             
7PESE                                                                                000000000010000                            
50010510201808012018080225108365             PES0000010000D000512018080112150124                                                
6000925108365000200                                                                                                             
7PESE                                                                                000000000010000                            
50010610201808012018080225109601             PES0000060000A193912018080109310017                                                
6000925109601000200                                                                                                             
7PESE                                                                                000000000060000                            
50010710201808012018080225110613             PES0000009500A200562018080108550001                                                
6000925110613000236                                                                                                             
7PESE                                                                                000000000009500                            
50010810201808012018080225110623             PES0000010000A076262018080116140061                                                
6000925110623000258                                                                                                             
7PESE                                                                                000000000010000                            
50010910201808012018080225110911             PES0000020000A205372018080111490059                                                
6000925110911000200                                                                                                             
7PESE                                                                                000000000020000                            
50011010201808012018080225111077             PES0000009500D000882018080111480081                                                
6000925111077000279                                                                                                             
7PESE                                                                                000000000009500                            
50011110201808012018080225113142             PES0000010000A188082018080111570035                                                
6000925113142000236                                                                                                             
7PESE                                                                                000000000010000                            
50011210201808012018080225113247             PES0000020000A260572018080113300035                                                
6000925113247000221                                                                                                             
7PESE                                                                                000000000020000                            
50011310201808012018080225113530             PES0000009500M600602018080111410003                                                
6000925113530000290                                                                                                             
7PESE                                                                                000000000009500                            
50011410201808012018080225114175             PES0000010000A230672018080110390053                                                
6000925114175000258                                                                                                             
7PESE                                                                                000000000010000                            
50011510201808012018080225114245             PES0000015000A157712018080117280001                                                
6000925114245000290                                                                                                             
7PESE                                                                                000000000015000                            
50011610201808012018080225114346             PES0000015000A256952018080112260028                                                
6000925114346000242                                                                                                             
7PESE                                                                                000000000015000                            
50011710201808012018080225114422             PES0000020000A071202018080112150077                                                
6000925114422000278                                                                                                             
7PESE                                                                                000000000020000                            
50011810201808012018080225114676             PES0000010000A180482018080111380045                                                
6000925114676000263                                                                                                             
7PESE                                                                                000000000010000                            
50011910201808012018080225114676             PES0000010000A180482018080111370044                                                
6000925114676000263                                                                                                             
7PESE                                                                                000000000010000                            
50012010201808012018080225114676             PES0000010000A180482018080111370043                                                
6000925114676000263                                                                                                             
7PESE                                                                                000000000010000                            
50012110201808012018080225115105             PES0000009500A164952018080113300080                                                
6000925115105000221                                                                                                             
7PESE                                                                                000000000009500                            
50012210201808012018080225115521             PES0000005000A158162018080118050002                                                
6000925115521000290                                                                                                             
7PESE                                                                                000000000005000                            
50012310201808012018080225115975             PES0000009500A071202018080110000055                                                
6000925115975000221                                                                                                             
7PESE                                                                                000000000009500                            
50012410201808012018080225116111             PES0000005000A197842018080112040049                                                
6000925116111000258                                                                                                             
7PESE                                                                                000000000005000                            
50012510201808012018080225116213             PES0000010000A180612018080115230066                                                
6000925116213000242                                                                                                             
7PESE                                                                                000000000010000                            
50012610201808012018080225116301             PES0000030000A179532018080115270004                                                
6000925116301000263                                                                                                             
7PESE                                                                                000000000030000                            
50012710201808012018080225117181             PES0000025000D002292018080118340036                                                
6000925117181000279                                                                                                             
7PESE                                                                                000000000025000                            
50012810201808012018080225117423             PES0000010000A142782018080114490059                                                
6000925117423000242                                                                                                             
7PESE                                                                                000000000010000                            
50012910201808012018080225117593             PES0000014300A173142018080116350003                                                
6000925117593000236                                                                                                             
7PESE                                                                                000000000014300                            
50013010201808012018080225117719             PES0000030000A049722018080114590074                                                
6000925117719000278                                                                                                             
7PESE                                                                                000000000030000                            
50013110201808012018080225117833             PES0000015600A164962018080117530028                                                
6000925117833000221                                                                                                             
7PESE                                                                                000000000015600                            
50013210201808012018080225117951             PES0000010000A139942018080111220031                                                
6000925117951000221                                                                                                             
7PESE                                                                                000000000010000                            
50013310201808012018080225118078             PES0000020000A073062018080112030042                                                
6000925118078000221                                                                                                             
7PESE                                                                                000000000020000                            
50013410201808012018080225118479             PES0000010000A142782018080115130092                                                
6000925118479000221                                                                                                             
7PESE                                                                                000000000010000                            
50013510201808012018080225119379             PES0000005000A070462018080111550085                                                
6000925119379000257                                                                                                             
7PESE                                                                                000000000005000                            
50013610201808012018080225122915             PES0000020000A163732018080111470031                                                
6000925122915000278                                                                                                             
7PESE                                                                                000000000020000                            
50013710201808012018080225123146             PES0000003000A127822018080111260086                                                
6000925123146000200                                                                                                             
7PESE                                                                                000000000003000                            
50013810201808012018080225123394             PES0000009500A147432018080114250116                                                
6000925123394000299                                                                                                             
7PESE                                                                                000000000009500                            
50013910201808012018080225123799             PES0000014300A181382018080111100053                                                
6000925123799000221                                                                                                             
7PESE                                                                                000000000014300                            
50014010201808012018080225126459             PES0000020000A173832018080118320161                                                
6000925126459000216                                                                                                             
7PESE                                                                                000000000020000                            
50014110201808012018080225126489             PES0000030000D005412018080109290034                                                
6000925126489000299                                                                                                             
7PESP                                                                                000000000030000                            
50014210201808012018080250000427             PES0000040000D009272018080114300016                                                
6000950000427000263                                                                                                             
7PESE                                                                                000000000040000                            
50014310201808012018080250002867             PES0000020000A136742018080111290004                                                
6000950002867000216                                                                                                             
7PESE                                                                                000000000020000                            
50014410201808012018080250006416             PES0000050000A169522018080111230061                                                
6000950006416000279                                                                                                             
7PESE                                                                                000000000050000                            
50014510201808012018080250007231             PES0000020000A151072018080115190013                                                
6000950007231000263                                                                                                             
7PESE                                                                                000000000020000                            
50014610201808012018080250007335             PES0000015000D005772018080117520150                                                
6000950007335000221                                                                                                             
7PESE                                                                                000000000015000                            
50014710201808012018080250007991             PES0000030000A135242018080115450008                                                
6000950007991000221                                                                                                             
7PESE                                                                                000000000030000                            
50014810201808012018080250008186             PES0000050000D000492018080110140003                                                
6000950008186000290                                                                                                             
7PESE                                                                                000000000050000                            
50014910201808012018080250008414             PES0000022355A258272018080116510061                                                
6000950008414000290                                                                                                             
7PESE                                                                                000000000022355                            
50015010201808012018080250008431             PES0000010000A214462018080116590007                                                
6000950008431000242                                                                                                             
7PESE                                                                                000000000010000                            
50015110201808012018080250008474             PES0000010000D000072018080110510059                                                
6000950008474000242                                                                                                             
7PESE                                                                                000000000010000                            
50015210201808012018080250009113             PES0000015000A137632018080110350019                                                
6000950009113000263                                                                                                             
7PESE                                                                                000000000015000                            
50015310201808012018080250009284             PES0000025000M600592018080113560058                                                
6000950009284000284                                                                                                             
7PESE                                                                                000000000025000                            
50015410201808012018080250009372             PES0000010000A277612018080109300009                                                
6000950009372000200                                                                                                             
7PESE                                                                                000000000010000                            
50015510201808012018080250009588             PES0000005000A214442018080115000024                                                
6000950009588000278                                                                                                             
7PESE                                                                                000000000005000                            
50015610201808012018080250009631             PES0000010000A166652018080116230073                                                
6000950009631000216                                                                                                             
7PESE                                                                                000000000010000                            
50015710201808012018080250009722             PES0000010000A211082018080115180009                                                
6000950009722000242                                                                                                             
7PESE                                                                                000000000010000                            
50015810201808012018080250010039             PES0000010000M600072018080112240054                                                
6000950010039000237                                                                                                             
7PESE                                                                                000000000010000                            
50015910201808012018080250010860             PES0000030000A220692018080113360023                                                
6000950010860000216                                                                                                             
7PESE                                                                                000000000030000                            
50016010201808012018080250010961             PES0000010000A263522018080117090031                                                
6000950010961000263                                                                                                             
7PESE                                                                                000000000010000                            
50016110201808012018080250011238             PES0000005000D010082018080111270020                                                
6000950011238000279                                                                                                             
7PESE                                                                                000000000005000                            
50016210201808012018080250011489             PES0000010000A106002018080114290115                                                
6000950011489000263                                                                                                             
7PESE                                                                                000000000010000                            
50016310201808012018080250011675             PES0000050000A135242018080111480034                                                
6000950011675000236                                                                                                             
7PESE                                                                                000000000050000                            
50016410201808012018080250012035             PES0000010000A090072018080117300035                                                
6000950012035000284                                                                                                             
7PESE                                                                                000000000010000                            
50016510201808012018080250012182             PES0000100000A100002018080109190003                                                
6000950012182000221                                                                                                             
7PESE                                                                                000000000100000                            
50016610201808012018080250012182             PES0000100000A100002018080109190002                                                
6000950012182000221                                                                                                             
7PESE                                                                                000000000100000                            
50016710201808012018080250012577             PES0000020000L192842018080117433809                                                
6000950012577000236                                                                                                             
7PESE                                                                                000000000020000                            
50016810201808012018080250012601             PES0000010000A220702018080110070030                                                
6000950012601000263                                                                                                             
7PESE                                                                                000000000010000                            
50016910201808012018080250012670             PES0000010000A067092018080114020107                                                
6000950012670000200                                                                                                             
7PESE                                                                                000000000010000                            
82018080200000100001690000048126550000000000000000000000000000000000000000169                                                   
9201808020000010000169000004812655000000000000000000000000000000000000000000169                                                 
