120180803PAGO FACIL               090060009INS. SALESIANA SAN FCO. JAVIER-ASOC                                                  
320180803000001INS. SALESIANA SAN FCO. JAVIER-ASOC                                                                              
50000110201808022018080300004499             PES0000005000A259872018080211400037                                                
6000900004499000263                                                                                                             
7PESE                                                                                000000000005000                            
50000210201808022018080300009850             PES0000003500A075792018080218090006                                                
6000900009850000237                                                                                                             
7PESE                                                                                000000000003500                            
50000310201808022018080300011786             PES0000015000A274202018080210320017                                                
6000900011786000284                                                                                                             
7PESE                                                                                000000000015000                            
50000410201808022018080300012212             PES0000100000M600142018080216150028                                                
6000900012212000237                                                                                                             
7PESE                                                                                000000000100000                            
50000510201808022018080300014016             PES0000050000D004902018080213340124                                                
6000900014016000237                                                                                                             
7PESE                                                                                000000000050000                            
50000610201808022018080300014340             PES0000010000A214442018080212550029                                                
6000900014340000242                                                                                                             
7PESE                                                                                000000000010000                            
50000710201808022018080300014457             PES0000030000D005752018080217020007                                                
6000900014457000236                                                                                                             
7PESP                                                                                000000000030000                            
50000810201808022018080300014858             PES0000007000D009272018080211390050                                                
6000900014858000221                                                                                                             
7PESE                                                                                000000000007000                            
50000910201808022018080300015122             PES0000030000A048292018080212000039                                                
6000900015122000284                                                                                                             
7PESE                                                                                000000000030000                            
50001010201808022018080300015715             PES0000015000A166662018080210310019                                                
6000900015715000257                                                                                                             
7PESE                                                                                000000000015000                            
50001110201808022018080300016060             PES0000030000A231052018080211060063                                                
6000900016060000242                                                                                                             
7PESE                                                                                000000000030000                            
50001210201808022018080300016156             PES0000020000A100532018080211390011                                                
6000900016156000242                                                                                                             
7PESE                                                                                000000000020000                            
50001310201808022018080300016244             PES0000015000A214352018080210380020                                                
6000900016244000263                                                                                                             
7PESE                                                                                000000000015000                            
50001410201808022018080300016521             PES0000030000A214372018080212030002                                                
6000900016521000257                                                                                                             
7PESE                                                                                000000000030000                            
50001510201808022018080300016528             PES0000012000A258262018080212590019                                                
6000900016528000290                                                                                                             
7PESE                                                                                000000000012000                            
50001610201808022018080300017276             PES0000020000A180322018080211570015                                                
6000900017276000257                                                                                                             
7PESP                                                                                000000000020000                            
50001710201808022018080300017461             PES0000030000D008562018080216590112                                                
6000900017461000284                                                                                                             
7PESE                                                                                000000000030000                            
50001810201808022018080300018145             PES0000015000D001622018080209140029                                                
6000900018145000278                                                                                                             
7PESE                                                                                000000000015000                            
50001910201808022018080300018688             PES0000018000A161412018080212310073                                                
6000900018688000257                                                                                                             
7PESE                                                                                000000000018000                            
50002010201808022018080300018765             PES0000020000A142382018080211350002                                                
6000900018765000215                                                                                                             
7PESE                                                                                000000000020000                            
50002110201808022018080300019187             PES0000010000A097442018080215040010                                                
6000900019187000284                                                                                                             
7PESE                                                                                000000000010000                            
50002210201808022018080300019490             PES0000020000A147852018080210540003                                                
6000900019490000215                                                                                                             
7PESE                                                                                000000000020000                            
50002310201808022018080300019490             PES0000100000A116892018080210530050                                                
6000900019490000215                                                                                                             
7PESE                                                                                000000000100000                            
50002410201808022018080300019698             PES0000010000D006462018080215130011                                                
6000900019698000221                                                                                                             
7PESE                                                                                000000000010000                            
50002510201808022018080300019698             PES0000090000D006462018080215130010                                                
6000900019698000221                                                                                                             
7PESE                                                                                000000000090000                            
50002610201808022018080300019698             PES0000100000D006462018080215130009                                                
6000900019698000221                                                                                                             
7PESE                                                                                000000000100000                            
50002710201808022018080300019797             PES0000100000D005612018080217270063                                                
6000900019797000200                                                                                                             
7PESE                                                                                000000000100000                            
50002810201808022018080300019861             PES0000010000A206132018080211040023                                                
6000900019861000236                                                                                                             
7PESE                                                                                000000000010000                            
50002910201808022018080300019870             PES0000006000A142512018080214520029                                                
6000900019870000221                                                                                                             
7PESE                                                                                000000000006000                            
50003010201808022018080300019977             PES0000020000A128372018080213130004                                                
6000900019977000284                                                                                                             
7PESE                                                                                000000000020000                            
50003110201808022018080300019982             PES0000014803A220702018080209050003                                                
6000900019982000236                                                                                                             
7PESE                                                                                000000000014803                            
50003210201808022018080300020201             PES0000050000A252902018080210090078                                                
6000900020201000221                                                                                                             
7PESE                                                                                000000000050000                            
50003310201808022018080300020224             PES0000007500A193922018080214350069                                                
6000900020224000279                                                                                                             
7PESE                                                                                000000000007500                            
50003410201808022018080300020230             PES0000030000A044482018080215070009                                                
6000900020230000263                                                                                                             
7PESE                                                                                000000000030000                            
50003510201808022018080300020359             PES0000005300M600532018080212320036                                                
6000900020359000242                                                                                                             
7PESE                                                                                000000000005300                            
50003610201808022018080300020442             PES0000030000A270722018080210260023                                                
6000900020442000284                                                                                                             
7PESE                                                                                000000000030000                            
50003710201808022018080300020471             PES0000003000A211022018080214520066                                                
6000900020471000221                                                                                                             
7PESE                                                                                000000000003000                            
50003810201808022018080300020536             PES0000005000A252902018080211220039                                                
6000900020536000216                                                                                                             
7PESE                                                                                000000000005000                            
50003910201808022018080300020969             PES0000009000A128662018080212310067                                                
6000900020969000258                                                                                                             
7PESE                                                                                000000000009000                            
50004010201808022018080300021138             PES0000096744A126412018080210050025                                                
6000900021138000278                                                                                                             
7PESP                                                                                000000000096744                            
50004110201808022018080300021142             PES0000010000A149232018080211180051                                                
6000900021142000284                                                                                                             
7PESE                                                                                000000000010000                            
50004210201808022018080300022714             PES0000020000D003792018080209240014                                                
6000900022714000216                                                                                                             
7PESE                                                                                000000000020000                            
50004310201808022018080300023059             PES0000015000A174982018080214220054                                                
6000900023059000236                                                                                                             
7PESE                                                                                000000000015000                            
50004410201808022018080300023270             PES0000010000M601652018080216070162                                                
6000900023270000290                                                                                                             
7PESE                                                                                000000000010000                            
50004510201808022018080300023459             PES0000010000A063632018080217560028                                                
6000900023459000299                                                                                                             
7PESE                                                                                000000000010000                            
50004610201808022018080300023786             PES0000015000A161842018080212330002                                                
6000900023786000200                                                                                                             
7PESE                                                                                000000000015000                            
50004710201808022018080300023827             PES0000100000A165962018080215170109                                                
6000900023827000200                                                                                                             
7PESE                                                                                000000000100000                            
50004810201808022018080300023871             PES0000020000D004452018080214080060                                                
6000900023871000221                                                                                                             
7PESE                                                                                000000000020000                            
50004910201808022018080300023937             PES0000050000A194032018080211480026                                                
6000900023937000242                                                                                                             
7PESE                                                                                000000000050000                            
50005010201808022018080300023937             PES0000100000A194032018080211480025                                                
6000900023937000242                                                                                                             
7PESE                                                                                000000000100000                            
50005110201808022018080300023937             PES0000100000A194032018080211480024                                                
6000900023937000242                                                                                                             
7PESE                                                                                000000000100000                            
50005210201808022018080300024009             PES0000010000D001772018080215400142                                                
6000900024009000257                                                                                                             
7PESE                                                                                000000000010000                            
50005310201808022018080300024371             PES0000020000A220792018080214160089                                                
6000900024371000299                                                                                                             
7PESE                                                                                000000000020000                            
50005410201808022018080300024606             PES0000018000A229542018080210040059                                                
6000900024606000237                                                                                                             
7PESE                                                                                000000000018000                            
50005510201808022018080300024877             PES0000035000D009812018080212160084                                                
6000900024877000279                                                                                                             
7PESE                                                                                000000000035000                            
50005610201808022018080300024945             PES0000050000A152992018080217220024                                                
6000900024945000242                                                                                                             
7PESE                                                                                000000000050000                            
50005710201808022018080300024945             PES0000100000A152992018080217220023                                                
6000900024945000242                                                                                                             
7PESE                                                                                000000000100000                            
50005810201808022018080300025727             PES0000040000A182772018080217400020                                                
6000900025727000284                                                                                                             
7PESE                                                                                000000000040000                            
50005910201808022018080300025918             PES0000045000A214672018080214100080                                                
6000900025918000221                                                                                                             
7PESP                                                                                000000000045000                            
50006010201808022018080300026403             PES0000050000D002252018080210360058                                                
6000900026403000299                                                                                                             
7PESE                                                                                000000000050000                            
50006110201808022018080302002339             PES0000040000D001392018080210470036                                                
6000902002339000242                                                                                                             
7PESE                                                                                000000000040000                            
50006210201808022018080302002721             PES0000010000D002032018080212380070                                                
6000902002721000290                                                                                                             
7PESE                                                                                000000000010000                            
50006310201808022018080302003699             PES0000010900A122672018080216590186                                                
6000902003699000284                                                                                                             
7PESE                                                                                000000000010900                            
50006410201808022018080302005381             PES0000020000D000512018080220570180                                                
6000902005381000221                                                                                                             
7PESE                                                                                000000000020000                            
50006510201808022018080305007654             PES0000020000A157482018080213130006                                                
6000905007654000236                                                                                                             
7PESE                                                                                000000000020000                            
50006610201808022018080309055699             PES0000010880A164562018080213050054                                                
6000909055699000257                                                                                                             
7PESE                                                                                000000000010880                            
50006710201808022018080311610987             PES0000015000A115802018080211260055                                                
6000911610987000215                                                                                                             
7PESE                                                                                000000000015000                            
50006810201808022018080321019399             PES0000060000A252912018080213060003                                                
6000921019399000216                                                                                                             
7PESE                                                                                000000000060000                            
50006910201808022018080322019016             PES0000020000A187122018080213460035                                                
6000922019016000284                                                                                                             
7PESE                                                                                000000000020000                            
50007010201808022018080322616720             PES0000030000A220692018080214540047                                                
6000922616720000216                                                                                                             
7PESE                                                                                000000000030000                            
50007110201808022018080322820936             PES0000008289A087222018080209260031                                                
6000922820936000290                                                                                                             
7PESE                                                                                000000000008289                            
50007210201808022018080322914462             PES0000010000D005612018080210210028                                                
6000922914462000221                                                                                                             
7PESE                                                                                000000000010000                            
50007310201808022018080323424330             PES0000010000A138392018080217350049                                                
6000923424330000299                                                                                                             
7PESE                                                                                000000000010000                            
50007410201808022018080324223115             PES0000015000A145252018080214590036                                                
6000924223115000200                                                                                                             
7PESE                                                                                000000000015000                            
50007510201808022018080324308339             PES0000004900A163412018080212430049                                                
6000924308339000200                                                                                                             
7PESE                                                                                000000000004900                            
50007610201808022018080324700410             PES0000040000A122652018080213140036                                                
6000924700410000290                                                                                                             
7PESE                                                                                000000000040000                            
50007710201808022018080324705586             PES0000030000A188902018080213470009                                                
6000924705586000221                                                                                                             
7PESE                                                                                000000000030000                            
50007810201808022018080324708604             PES0000025000A028962018080211450074                                                
6000924708604000200                                                                                                             
7PESE                                                                                000000000025000                            
50007910201808022018080324709200             PES0000010000A152132018080211520054                                                
6000924709200000242                                                                                                             
7PESE                                                                                000000000010000                            
50008010201808022018080324818598             PES0000020000A173652018080216140029                                                
6000924818598000215                                                                                                             
7PESE                                                                                000000000020000                            
50008110201808022018080324904067             PES0000010000A214452018080211070065                                                
6000924904067000237                                                                                                             
7PESE                                                                                000000000010000                            
50008210201808022018080324910634             PES0000010000D002812018080211560074                                                
6000924910634000200                                                                                                             
7PESE                                                                                000000000010000                            
50008310201808022018080324913741             PES0000030000A136682018080212250006                                                
6000924913741000278                                                                                                             
7PESE                                                                                000000000030000                            
50008410201808022018080325002297             PES0000015000A660452018080210530014                                                
6000925002297000242                                                                                                             
7PESE                                                                                000000000015000                            
50008510201808022018080325004669             PES0000010000A122692018080211350043                                                
6000925004669000284                                                                                                             
7PESE                                                                                000000000010000                            
50008610201808022018080325005541             PES0000010000A112952018080211410038                                                
6000925005541000284                                                                                                             
7PESE                                                                                000000000010000                            
50008710201808022018080325006338             PES0000003000A222692018080214460055                                                
6000925006338000221                                                                                                             
7PESP                                                                                000000000003000                            
50008810201808022018080325014058             PES0000070000A259872018080212050049                                                
6000925014058000278                                                                                                             
7PESE                                                                                000000000070000                            
50008910201808022018080325014936             PES0000010000A008222018080215100024                                                
6000925014936000284                                                                                                             
7PESE                                                                                000000000010000                            
50009010201808022018080325021309             PES0000005000A172892018080209030018                                                
6000925021309000221                                                                                                             
7PESE                                                                                000000000005000                            
50009110201808022018080325023049             PES0000005000A161412018080210480038                                                
6000925023049000278                                                                                                             
7PESE                                                                                000000000005000                            
50009210201808022018080325101114             PES0000020000A113682018080211400002                                                
6000925101114000200                                                                                                             
7PESE                                                                                000000000020000                            
50009310201808022018080325104152             PES0000030000A127802018080216160004                                                
6000925104152000263                                                                                                             
7PESE                                                                                000000000030000                            
50009410201808022018080325105130             PES0000050000A038212018080210340067                                                
6000925105130000299                                                                                                             
7PESE                                                                                000000000050000                            
50009510201808022018080325105541             PES0000010000A112952018080211410039                                                
6000925105541000215                                                                                                             
7PESE                                                                                000000000010000                            
50009610201808022018080325105769             PES0000040000A277612018080215340096                                                
6000925105769000278                                                                                                             
7PESE                                                                                000000000040000                            
50009710201808022018080325106338             PES0000003000A222692018080214460056                                                
6000925106338000242                                                                                                             
7PESP                                                                                000000000003000                            
50009810201808022018080325107232             PES0000009500A220692018080214060031                                                
6000925107232000263                                                                                                             
7PESE                                                                                000000000009500                            
50009910201808022018080325107245             PES0000009500A222682018080211350068                                                
6000925107245000290                                                                                                             
7PESE                                                                                000000000009500                            
50010010201808022018080325107532             PES0000005000L191102018080211497108                                                
6000925107532000215                                                                                                             
7PESE                                                                                000000000005000                            
50010110201808022018080325109188             PES0000060000A090002018080216440012                                                
6000925109188000279                                                                                                             
7PESE                                                                                000000000060000                            
50010210201808022018080325109749             PES0000030000D004732018080218560215                                                
6000925109749000200                                                                                                             
7PESE                                                                                000000000030000                            
50010310201808022018080325110011             PES0000010000A099982018080211210070                                                
6000925110011000278                                                                                                             
7PESE                                                                                000000000010000                            
50010410201808022018080325110021             PES0000030000D000282018080217440326                                                
6000925110021000290                                                                                                             
7PESE                                                                                000000000030000                            
50010510201808022018080325110223             PES0000015000A150352018080210400074                                                
6000925110223000290                                                                                                             
7PESE                                                                                000000000015000                            
50010610201808022018080325110825             PES0000020000A053092018080218060002                                                
6000925110825000258                                                                                                             
7PESE                                                                                000000000020000                            
50010710201808022018080325111585             PES0000006400D008002018080216490292                                                
6000925111585000200                                                                                                             
7PESE                                                                                000000000006400                            
50010810201808022018080325112164             PES0000018100A149692018080216110037                                                
6000925112164000200                                                                                                             
7PESE                                                                                000000000018100                            
50010910201808022018080325113128             PES0000010000D004902018080212400086                                                
6000925113128000299                                                                                                             
7PESE                                                                                000000000010000                            
50011010201808022018080325113282             PES0000009500A065362018080211080078                                                
6000925113282000242                                                                                                             
7PESE                                                                                000000000009500                            
50011110201808022018080325113751             PES0000010000D004862018080210140058                                                
6000925113751000215                                                                                                             
7PESE                                                                                000000000010000                            
50011210201808022018080325113975             PES0000020000A214432018080215220018                                                
6000925113975000236                                                                                                             
7PESE                                                                                000000000020000                            
50011310201808022018080325114091             PES0000020000A193392018080211340058                                                
6000925114091000257                                                                                                             
7PESE                                                                                000000000020000                            
50011410201808022018080325114159             PES0000020000A164952018080217120109                                                
6000925114159000242                                                                                                             
7PESE                                                                                000000000020000                            
50011510201808022018080325114426             PES0000010000D005772018080211200062                                                
6000925114426000215                                                                                                             
7PESE                                                                                000000000010000                            
50011610201808022018080325114507             PES0000020000A205372018080213350096                                                
6000925114507000215                                                                                                             
7PESE                                                                                000000000020000                            
50011710201808022018080325114512             PES0000020000M600452018080215420033                                                
6000925114512000263                                                                                                             
7PESE                                                                                000000000020000                            
50011810201808022018080325114737             PES0000015000A163442018080216590024                                                
6000925114737000216                                                                                                             
7PESE                                                                                000000000015000                            
50011910201808022018080325115428             PES0000020000A084182018080211090007                                                
6000925115428000221                                                                                                             
7PESE                                                                                000000000020000                            
50012010201808022018080325115634             PES0000010000D002092018080218460070                                                
6000925115634000242                                                                                                             
7PESE                                                                                000000000010000                            
50012110201808022018080325116584             PES0000020000A260572018080217390059                                                
6000925116584000290                                                                                                             
7PESE                                                                                000000000020000                            
50012210201808022018080325118773             PES0000010000D002722018080214060157                                                
6000925118773000258                                                                                                             
7PESE                                                                                000000000010000                            
50012310201808022018080325119870             PES0000009500A142512018080214520030                                                
6000925119870000215                                                                                                             
7PESE                                                                                000000000009500                            
50012410201808022018080325122504             PES0000020000A123552018080213350030                                                
6000925122504000257                                                                                                             
7PESE                                                                                000000000020000                            
50012510201808022018080325122676             PES0000010000A149492018080209550037                                                
6000925122676000215                                                                                                             
7PESE                                                                                000000000010000                            
50012610201808022018080325122715             PES0000020000A075392018080214210041                                                
6000925122715000242                                                                                                             
7PESE                                                                                000000000020000                            
50012710201808022018080325123049             PES0000005000A161412018080210480037                                                
6000925123049000290                                                                                                             
7PESE                                                                                000000000005000                            
50012810201808022018080325123283             PES0000005000D001922018080210330029                                                
6000925123283000216                                                                                                             
7PESE                                                                                000000000005000                            
50012910201808022018080325125346             PES0000015000A135422018080210080035                                                
6000925125346000221                                                                                                             
7PESE                                                                                000000000015000                            
50013010201808022018080325126085             PES0000020000A182782018080209170023                                                
6000925126085000299                                                                                                             
7PESE                                                                                000000000020000                            
50013110201808022018080325126131             PES0000020000A206052018080214210050                                                
6000925126131000242                                                                                                             
7PESE                                                                                000000000020000                            
50013210201808022018080325126385             PES0000020000A214352018080213580062                                                
6000925126385000237                                                                                                             
7PESE                                                                                000000000020000                            
50013310201808022018080350006582             PES0000010000A132792018080210070045                                                
6000950006582000221                                                                                                             
7PESE                                                                                000000000010000                            
50013410201808022018080350007487             PES0000015000A090072018080210400077                                                
6000950007487000236                                                                                                             
7PESE                                                                                000000000015000                            
50013510201808022018080350007621             PES0000050000A155002018080212350013                                                
6000950007621000200                                                                                                             
7PESE                                                                                000000000050000                            
50013610201808022018080350007695             PES0000020000A200572018080209040001                                                
6000950007695000216                                                                                                             
7PESE                                                                                000000000020000                            
50013710201808022018080350008681             PES0000050000A178372018080211460041                                                
6000950008681000290                                                                                                             
7PESE                                                                                000000000050000                            
50013810201808022018080350009052             PES0000015000D005402018080217450277                                                
6000950009052000215                                                                                                             
7PESP                                                                                000000000015000                            
50013910201808022018080350009107             PES0000015000A128792018080214070063                                                
6000950009107000279                                                                                                             
7PESE                                                                                000000000015000                            
50014010201808022018080350009511             PES0000015000A222952018080218550024                                                
6000950009511000257                                                                                                             
7PESP                                                                                000000000015000                            
50014110201808022018080350009774             PES0000010000A076782018080213190027                                                
6000950009774000237                                                                                                             
7PESE                                                                                000000000010000                            
50014210201808022018080350010011             PES0000010000A099982018080211210071                                                
6000950010011000200                                                                                                             
7PESE                                                                                000000000010000                            
50014310201808022018080350010065             PES0000025000A214432018080210250035                                                
6000950010065000278                                                                                                             
7PESE                                                                                000000000025000                            
50014410201808022018080350010067             PES0000020000A028472018080211110107                                                
6000950010067000242                                                                                                             
7PESE                                                                                000000000020000                            
50014510201808022018080350010130             PES0000015000D000282018080215000218                                                
6000950010130000237                                                                                                             
7PESE                                                                                000000000015000                            
50014610201808022018080350010268             PES0000020000A220692018080209120039                                                
6000950010268000200                                                                                                             
7PESE                                                                                000000000020000                            
50014710201808022018080350010780             PES0000051413A028662018080212050020                                                
6000950010780000257                                                                                                             
7PESE                                                                                000000000051413                            
50014810201808022018080350011207             PES0000100000A176982018080211560091                                                
6000950011207000263                                                                                                             
7PESE                                                                                000000000100000                            
50014910201808022018080350012557             PES0000007000D005862018080212370127                                                
6000950012557000284                                                                                                             
7PESE                                                                                000000000007000                            
50015010201808022018080350012645             PES0000015000M600232018080212570011                                                
6000950012645000200                                                                                                             
7PESE                                                                                000000000015000                            
50015110201808022018080350012936             PES0000040000A166662018080215100058                                                
6000950012936000258                                                                                                             
7PESE                                                                                000000000040000                            
50015210201808022018080350014423             PES0000010000A063632018080217570029                                                
6000950014423000242                                                                                                             
7PESE                                                                                000000000010000                            
50015310201808022018080350014714             PES0000005000A262042018080215280067                                                
6000950014714000290                                                                                                             
7PESE                                                                                000000000005000                            
50015410201808022018080350015215             PES0000100000A178242018080211010072                                                
6000950015215000200                                                                                                             
7PESE                                                                                000000000100000                            
82018080300000100001540000039427290000000000000000000000000000000000000000154                                                   
9201808030000010000154000003942729000000000000000000000000000000000000000000154                                                 
