120180806PAGO FACIL               090060009INS. SALESIANA SAN FCO. JAVIER-ASOC                                                  
320180806000001INS. SALESIANA SAN FCO. JAVIER-ASOC                                                                              
50000110201808032018080625104537             PES0000002500A014732018080210320014                                                
6000925104537000257                                                                                                             
7PESE                                                                                000000000002500                            
50000210201808032018080600010024             PES0000009700A180602018080307160020                                                
6000900010024000215                                                                                                             
7PESE                                                                                000000000009700                            
50000310201808032018080600024403             PES0000025000A229542018080309040023                                                
6000900024403000200                                                                                                             
7PESE                                                                                000000000025000                            
50000410201808032018080624719486             PES0000020000A114372018080310170050                                                
6000924719486000221                                                                                                             
7PESE                                                                                000000000020000                            
50000510201808032018080600020658             PES0000005000A182782018080310040052                                                
6000900020658000257                                                                                                             
7PESE                                                                                000000000005000                            
50000610201808032018080600021659             PES0000010000A097962018080310470035                                                
6000900021659000236                                                                                                             
7PESE                                                                                000000000010000                            
50000710201808032018080625110013             PES0000020800A254952018080310470095                                                
6000925110013000242                                                                                                             
7PESE                                                                                000000000020800                            
50000810201808032018080600025504             PES0000010000A162992018080309420063                                                
6000900025504000290                                                                                                             
7PESE                                                                                000000000010000                            
50000910201808032018080625120312             PES0000009500A158162018080310170061                                                
6000925120312000284                                                                                                             
7PESE                                                                                000000000009500                            
50001010201808032018080625011282             PES0000015000A182772018080310580081                                                
6000925011282000236                                                                                                             
7PESE                                                                                000000000015000                            
50001110201808032018080600017743             PES0000012000A155002018080309400005                                                
6000900017743000242                                                                                                             
7PESE                                                                                000000000012000                            
50001210201808032018080600018606             PES0000015000A095702018080310550035                                                
6000900018606000284                                                                                                             
7PESE                                                                                000000000015000                            
50001310201808032018080625118886             PES0000050000A122662018080309580019                                                
6000925118886000200                                                                                                             
7PESE                                                                                000000000050000                            
50001410201808032018080625111111             PES0000020000A272022018080311090036                                                
6000925111111000236                                                                                                             
7PESE                                                                                000000000020000                            
50001510201808032018080600022920             PES0000020000A147452018080309170010                                                
6000900022920000236                                                                                                             
7PESE                                                                                000000000020000                            
50001610201808032018080600022920             PES0000100000A147452018080309160009                                                
6000900022920000236                                                                                                             
7PESE                                                                                000000000100000                            
50001710201808032018080624710475             PES0000010000A262042018080311100056                                                
6000924710475000258                                                                                                             
7PESE                                                                                000000000010000                            
50001810201808032018080650008295             PES0000005000A160512018080311130038                                                
6000950008295000200                                                                                                             
7PESE                                                                                000000000005000                            
50001910201808032018080600020239             PES0000030390A008222018080311350032                                                
6000900020239000279                                                                                                             
7PESE                                                                                000000000030390                            
50002010201808032018080650010718             PES0000005000A151582018080311120013                                                
6000950010718000258                                                                                                             
7PESE                                                                                000000000005000                            
50002110201808032018080650010169             PES0000010000A180912018080311090011                                                
6000950010169000221                                                                                                             
7PESE                                                                                000000000010000                            
50002210201808032018080600013826             PES0000030000A106002018080312230037                                                
6000900013826000237                                                                                                             
7PESE                                                                                000000000030000                            
50002310201808032018080625119560             PES0000005000A149722018080312160053                                                
6000925119560000242                                                                                                             
7PESE                                                                                000000000005000                            
50002410201808032018080600017806             PES0000015000A211512018080311020052                                                
6000900017806000263                                                                                                             
7PESE                                                                                000000000015000                            
50002510201808032018080625111565             PES0000050000A204602018080310380036                                                
6000925111565000258                                                                                                             
7PESE                                                                                000000000050000                            
50002610201808032018080625009684             PES0000010000A067092018080311490025                                                
6000925009684000284                                                                                                             
7PESE                                                                                000000000010000                            
50002710201808032018080600022120             PES0000015000D007502018080310520033                                                
6000900022120000215                                                                                                             
7PESE                                                                                000000000015000                            
50002810201808032018080625102658             PES0000030000A122682018080311130006                                                
6000925102658000263                                                                                                             
7PESE                                                                                000000000030000                            
50002910201808032018080600014374             PES0000010000A188312018080312030007                                                
6000900014374000263                                                                                                             
7PESE                                                                                000000000010000                            
50003010201808032018080650005994             PES0000003000A153862018080312240055                                                
6000950005994000237                                                                                                             
7PESE                                                                                000000000003000                            
50003110201808032018080600019883             PES0000020000A116882018080312580073                                                
6000900019883000257                                                                                                             
7PESE                                                                                000000000020000                            
50003210201808032018080625106667             PES0000050000A220692018080311580071                                                
6000925106667000236                                                                                                             
7PESE                                                                                000000000050000                            
50003310201808032018080650012132             PES0000010000A220692018080312360092                                                
6000950012132000290                                                                                                             
7PESE                                                                                000000000010000                            
50003410201808032018080600023015             PES0000010000A056382018080312200021                                                
6000900023015000299                                                                                                             
7PESE                                                                                000000000010000                            
50003510201808032018080625115961             PES0000015000A180842018080311180040                                                
6000925115961000258                                                                                                             
7PESE                                                                                000000000015000                            
50003610201808032018080600016451             PES0000030000A031182018080312310060                                                
6000900016451000215                                                                                                             
7PESE                                                                                000000000030000                            
50003710201808032018080625015324             PES0000020000A165462018080312510070                                                
6000925015324000242                                                                                                             
7PESE                                                                                000000000020000                            
50003810201808032018080625024512             PES0000050000A121302018080312450138                                                
6000925024512000278                                                                                                             
7PESE                                                                                000000000050000                            
50003910201808032018080625012196             PES0000010000A180682018080309370005                                                
6000925012196000221                                                                                                             
7PESE                                                                                000000000010000                            
50004010201808032018080600017955             PES0000010000A258262018080312430079                                                
6000900017955000278                                                                                                             
7PESE                                                                                000000000010000                            
50004110201808032018080600015668             PES0000100000A286942018080313500073                                                
6000900015668000263                                                                                                             
7PESE                                                                                000000000100000                            
50004210201808032018080625113323             PES0000020000A139942018080312140003                                                
6000925113323000242                                                                                                             
7PESE                                                                                000000000020000                            
50004310201808032018080602004123             PES0000030000A165572018080312180031                                                
6000902004123000263                                                                                                             
7PESE                                                                                000000000030000                            
50004410201808032018080650011046             PES0000030000A264462018080312020010                                                
6000950011046000200                                                                                                             
7PESE                                                                                000000000030000                            
50004510201808032018080650011730             PES0000015000A272022018080312250021                                                
6000950011730000278                                                                                                             
7PESE                                                                                000000000015000                            
50004610201808032018080650007024             PES0000017000A220662018080313560082                                                
6000950007024000216                                                                                                             
7PESE                                                                                000000000017000                            
50004710201808032018080625123522             PES0000020000A127822018080314140082                                                
6000925123522000279                                                                                                             
7PESE                                                                                000000000020000                            
50004810201808032018080650009050             PES0000029482A080372018080310480012                                                
6000950009050000242                                                                                                             
7PESE                                                                                000000000029482                            
50004910201808032018080600026186             PES0000010000A127762018080313460013                                                
6000900026186000257                                                                                                             
7PESE                                                                                000000000010000                            
50005010201808032018080625112985             PES0000020000A080102018080313300053                                                
6000925112985000215                                                                                                             
7PESE                                                                                000000000020000                            
50005110201808032018080650009789             PES0000010000A179532018080314360042                                                
6000950009789000237                                                                                                             
7PESE                                                                                000000000010000                            
50005210201808032018080633005724             PES0000030000D001472018080313130117                                                
6000933005724000284                                                                                                             
7PESE                                                                                000000000030000                            
50005310201808032018080625119859             PES0000010000A222702018080312490027                                                
6000925119859000279                                                                                                             
7PESE                                                                                000000000010000                            
50005410201808032018080600019082             PES0000050000A181742018080314380011                                                
6000900019082000290                                                                                                             
7PESE                                                                                000000000050000                            
50005510201808032018080600014962             PES0000020000A214382018080315030056                                                
6000900014962000258                                                                                                             
7PESE                                                                                000000000020000                            
50005610201808032018080625106209             PES0000010000A158162018080315080050                                                
6000925106209000299                                                                                                             
7PESE                                                                                000000000010000                            
50005710201808032018080650007993             PES0000050000A150252018080315080072                                                
6000950007993000299                                                                                                             
7PESE                                                                                000000000050000                            
50005810201808032018080600007853             PES0000100000A117762018080314230011                                                
6000900007853000257                                                                                                             
7PESE                                                                                000000000100000                            
50005910201808032018080624901960             PES0000030000D000512018080311260056                                                
6000924901960000299                                                                                                             
7PESE                                                                                000000000030000                            
50006010201808032018080625019882             PES0000020000A177872018080310260013                                                
6000925019882000284                                                                                                             
7PESE                                                                                000000000020000                            
50006110201808032018080650008427             PES0000015000A084922018080315110065                                                
6000950008427000221                                                                                                             
7PESE                                                                                000000000015000                            
50006210201808032018080600011407             PES0000015000A173652018080312240003                                                
6000900011407000278                                                                                                             
7PESE                                                                                000000000015000                            
50006310201808032018080625111635             PES0000010000D005392018080313260084                                                
6000925111635000290                                                                                                             
7PESE                                                                                000000000010000                            
50006410201808032018080600010766             PES0000002000A284232018080314480054                                                
6000900010766000284                                                                                                             
7PESE                                                                                000000000002000                            
50006510201808032018080600024113             PES0000010000D007632018080310470056                                                
6000900024113000284                                                                                                             
7PESE                                                                                000000000010000                            
50006610201808032018080650012623             PES0000025000A169522018080312310051                                                
6000950012623000284                                                                                                             
7PESE                                                                                000000000025000                            
50006710201808032018080600025275             PES0000015000A252842018080314210019                                                
6000900025275000263                                                                                                             
7PESE                                                                                000000000015000                            
50006810201808032018080625113225             PES0000020000A137632018080316030074                                                
6000925113225000200                                                                                                             
7PESE                                                                                000000000020000                            
50006910201808032018080650012735             PES0000100000A262042018080315110065                                                
6000950012735000299                                                                                                             
7PESE                                                                                000000000100000                            
50007010201808032018080650012735             PES0000100000A262042018080315110064                                                
6000950012735000299                                                                                                             
7PESE                                                                                000000000100000                            
50007110201808032018080650007276             PES0000030000A262042018080314190018                                                
6000950007276000242                                                                                                             
7PESE                                                                                000000000030000                            
50007210201808032018080622110748             PES0000015000A031192018080315350012                                                
6000922110748000257                                                                                                             
7PESE                                                                                000000000015000                            
50007310201808032018080624812543             PES0000020000A180472018080316210074                                                
6000924812543000242                                                                                                             
7PESE                                                                                000000000020000                            
50007410201808032018080650008725             PES0000100000D000562018080311070072                                                
6000950008725000200                                                                                                             
7PESE                                                                                000000000100000                            
50007510201808032018080650008725             PES0000100000D000562018080311070073                                                
6000950008725000200                                                                                                             
7PESE                                                                                000000000100000                            
50007610201808032018080650008725             PES0000100000D000562018080311070074                                                
6000950008725000200                                                                                                             
7PESE                                                                                000000000100000                            
50007710201808032018080650008725             PES0000050000D000562018080311080075                                                
6000950008725000200                                                                                                             
7PESE                                                                                000000000050000                            
50007810201808032018080602005410             PES0000010000A180902018080309050004                                                
6000902005410000221                                                                                                             
7PESP                                                                                000000000010000                            
50007910201808032018080625110313             PES0000080000A284222018080316050061                                                
6000925110313000284                                                                                                             
7PESE                                                                                000000000080000                            
50008010201808032018080623614514             PES0000005000A164962018080316510097                                                
6000923614514000221                                                                                                             
7PESE                                                                                000000000005000                            
50008110201808032018080625116740             PES0000020000A214462018080316340037                                                
6000925116740000284                                                                                                             
7PESE                                                                                000000000020000                            
50008210201808032018080600016902             PES0000005000A158442018080316350039                                                
6000900016902000290                                                                                                             
7PESE                                                                                000000000005000                            
50008310201808032018080602003161             PES0000100000A032972018080315570042                                                
6000902003161000257                                                                                                             
7PESE                                                                                000000000100000                            
50008410201808032018080602003161             PES0000100000A032972018080315580043                                                
6000902003161000257                                                                                                             
7PESE                                                                                000000000100000                            
50008510201808032018080602003161             PES0000050000A032972018080315580044                                                
6000902003161000257                                                                                                             
7PESE                                                                                000000000050000                            
50008610201808032018080625119378             PES0000010000A214382018080315390011                                                
6000925119378000216                                                                                                             
7PESE                                                                                000000000010000                            
50008710201808032018080650006277             PES0000020000A188242018080313350011                                                
6000950006277000236                                                                                                             
7PESE                                                                                000000000020000                            
50008810201808032018080600025316             PES0000040000A122682018080317000042                                                
6000900025316000263                                                                                                             
7PESE                                                                                000000000040000                            
50008910201808032018080600021084             PES0000030050A149202018080317420093                                                
6000900021084000242                                                                                                             
7PESE                                                                                000000000030050                            
50009010201808032018080625109731             PES0000010000A204442018080315590015                                                
6000925109731000290                                                                                                             
7PESE                                                                                000000000010000                            
50009110201808032018080600014464             PES0000017000A193912018080316540064                                                
6000900014464000257                                                                                                             
7PESE                                                                                000000000017000                            
50009210201808032018080600023709             PES0000040000A173132018080317430060                                                
6000900023709000215                                                                                                             
7PESE                                                                                000000000040000                            
50009310201808032018080602001492             PES0000015000D010802018080312090067                                                
6000902001492000216                                                                                                             
7PESE                                                                                000000000015000                            
50009410201808032018080602005399             PES0000060000D005422018080313460189                                                
6000902005399000221                                                                                                             
7PESE                                                                                000000000060000                            
50009510201808032018080600018885             PES0000006100D000292018080309210018                                                
6000900018885000279                                                                                                             
7PESP                                                                                000000000006100                            
50009610201808032018080625105474             PES0000010000D000292018080317020287                                                
6000925105474000279                                                                                                             
7PESE                                                                                000000000010000                            
50009710201808032018080625105474             PES0000005000D000292018080317010286                                                
6000925105474000279                                                                                                             
7PESE                                                                                000000000005000                            
50009810201808032018080618703819             PES0000030000D000082018080311160010                                                
6000918703819000221                                                                                                             
7PESP                                                                                000000000030000                            
50009910201808032018080625104165             PES0000030000D000062018080312150074                                                
6000925104165000290                                                                                                             
7PESE                                                                                000000000030000                            
50010010201808032018080602003626             PES0000020000D005772018080311420094                                                
6000902003626000200                                                                                                             
7PESE                                                                                000000000020000                            
50010110201808032018080600004830             PES0000010000D005762018080314460095                                                
6000900004830000263                                                                                                             
7PESE                                                                                000000000010000                            
50010210201808032018080650008993             PES0000100000D009762018080313120139                                                
6000950008993000237                                                                                                             
7PESE                                                                                000000000100000                            
50010310201808032018080650008993             PES0000100000D009762018080313120138                                                
6000950008993000237                                                                                                             
7PESE                                                                                000000000100000                            
50010410201808032018080625123918             PES0000005000D007732018080314160157                                                
6000925123918000221                                                                                                             
7PESE                                                                                000000000005000                            
50010510201808032018080600016226             PES0000001546A107142018080318020091                                                
6000900016226000284                                                                                                             
7PESE                                                                                000000000001546                            
50010610201808032018080625117449             PES0000020000D006012018080311100045                                                
6000925117449000200                                                                                                             
7PESE                                                                                000000000020000                            
50010710201808032018080625114488             PES0000020000A158452018080317480084                                                
6000925114488000236                                                                                                             
7PESE                                                                                000000000020000                            
50010810201808032018080625014488             PES0000020000A158452018080317480085                                                
6000925014488000200                                                                                                             
7PESE                                                                                000000000020000                            
50010910201808032018080600025047             PES0000080000D001762018080310350026                                                
6000900025047000221                                                                                                             
7PESE                                                                                000000000080000                            
50011010201808032018080624208256             PES0000005000A220722018080317400063                                                
6000924208256000215                                                                                                             
7PESE                                                                                000000000005000                            
50011110201808032018080625114771             PES0000050000A222692018080318080016                                                
6000925114771000200                                                                                                             
7PESP                                                                                000000000050000                            
50011210201808032018080650009238             PES0000025000A201392018080317480045                                                
6000950009238000200                                                                                                             
7PESE                                                                                000000000025000                            
50011310201808032018080624714139             PES0000050000D000182018080317060257                                                
6000924714139000236                                                                                                             
7PESP                                                                                000000000050000                            
50011410201808032018080600022940             PES0000015000A145202018080317470040                                                
6000900022940000284                                                                                                             
7PESE                                                                                000000000015000                            
50011510201808032018080600016695             PES0000010000A063712018080317090054                                                
6000900016695000284                                                                                                             
7PESE                                                                                000000000010000                            
50011610201808032018080625101978             PES0000020000A098882018080317580058                                                
6000925101978000215                                                                                                             
7PESE                                                                                000000000020000                            
50011710201808032018080625104140             PES0000020000A214442018080317230027                                                
6000925104140000278                                                                                                             
7PESE                                                                                000000000020000                            
50011810201808032018080625116214             PES0000005000A025642018080317480003                                                
6000925116214000279                                                                                                             
7PESE                                                                                000000000005000                            
50011910201808032018080650009795             PES0000020000D002302018080314370148                                                
6000950009795000221                                                                                                             
7PESE                                                                                000000000020000                            
50012010201808032018080600009850             PES0000007000A075792018080318340021                                                
6000900009850000237                                                                                                             
7PESE                                                                                000000000007000                            
50012110201808032018080600017629             PES0000100000A166992018080317310036                                                
6000900017629000299                                                                                                             
7PESE                                                                                000000000100000                            
50012210201808032018080625008217             PES0000020000D001632018080310100026                                                
6000925008217000215                                                                                                             
7PESE                                                                                000000000020000                            
50012310201808032018080600017888             PES0000050000A150992018080319240018                                                
6000900017888000237                                                                                                             
7PESE                                                                                000000000050000                            
50012410201808032018080602005062             PES0000015000A070462018080318520078                                                
6000902005062000263                                                                                                             
7PESE                                                                                000000000015000                            
50012510201808032018080600019847             PES0000020000A166652018080318270008                                                
6000900019847000299                                                                                                             
7PESE                                                                                000000000020000                            
50012610201808032018080600016219             PES0000005000A007672018080319380298                                                
6000900016219000263                                                                                                             
7PESE                                                                                000000000005000                            
50012710201808032018080650011223             PES0000050000A213912018080317590009                                                
6000950011223000279                                                                                                             
7PESE                                                                                000000000050000                            
50012810201808032018080600014327             PES0000025000A008222018080318070077                                                
6000900014327000242                                                                                                             
7PESE                                                                                000000000025000                            
50012910201808032018080600017735             PES0000010000A040552018080317430029                                                
6000900017735000299                                                                                                             
7PESE                                                                                000000000010000                            
50013010201808032018080622221049             PES0000010380A126412018080319300077                                                
6000922221049000284                                                                                                             
7PESE                                                                                000000000010380                            
50013110201808032018080602000309             PES0000009300A173062018080311220013                                                
6000902000309000279                                                                                                             
7PESE                                                                                000000000009300                            
50013210201808032018080600018558             PES0000005000D006132018080316550093                                                
6000900018558000263                                                                                                             
7PESE                                                                                000000000005000                            
50013310201808032018080624224051             PES0000030000A069252018080318550029                                                
6000924224051000290                                                                                                             
7PESE                                                                                000000000030000                            
50013410201808032018080600019916             PES0000050000D004732018080313350030                                                
6000900019916000290                                                                                                             
7PESE                                                                                000000000050000                            
50013510201808032018080600021851             PES0000030000A122592018080320020025                                                
6000900021851000284                                                                                                             
7PESE                                                                                000000000030000                            
50013610201808032018080650007880             PES0000010000D002102018080316230130                                                
6000950007880000242                                                                                                             
7PESP                                                                                000000000010000                            
50013710201808032018080600015932             PES0000050000D008012018080316160101                                                
6000900015932000221                                                                                                             
7PESE                                                                                000000000050000                            
50013810201808032018080600025681             PES0000020000D004322018080315280003                                                
6000900025681000200                                                                                                             
7PESE                                                                                000000000020000                            
50013910201808032018080625111878             PES0000005000D000492018080318530096                                                
6000925111878000236                                                                                                             
7PESE                                                                                000000000005000                            
50014010201808032018080600018260             PES0000010000D006102018080317270076                                                
6000900018260000263                                                                                                             
7PESE                                                                                000000000010000                            
50014110201808032018080600017513             PES0000025000D006102018080318330125                                                
6000900017513000242                                                                                                             
7PESE                                                                                000000000025000                            
50014210201808032018080600020480             PES0000006000D002962018080315420020                                                
6000900020480000216                                                                                                             
7PESE                                                                                000000000006000                            
50014310201808032018080650010224             PES0000050000D005272018080312380114                                                
6000950010224000263                                                                                                             
7PESE                                                                                000000000050000                            
50014410201808032018080625124346             PES0000020000D004082018080320310268                                                
6000925124346000284                                                                                                             
7PESE                                                                                000000000020000                            
50014510201808032018080650011055             PES0000010000D000512018080319140116                                                
6000950011055000299                                                                                                             
7PESE                                                                                000000000010000                            
50014610201808032018080625108072             PES0000014300L192042018080311065793                                                
6000925108072000284                                                                                                             
7PESE                                                                                000000000014300                            
50014710201808032018080650006683             PES0000003500L192042018080312105797                                                
6000950006683000279                                                                                                             
7PESE                                                                                000000000003500                            
50014810201808032018080600023902             PES0000020000A203712018080318130008                                                
6000900023902000290                                                                                                             
7PESE                                                                                000000000020000                            
50014910201808032018080600023277             PES0000050000M601102018080310060005                                                
6000900023277000242                                                                                                             
7PESE                                                                                000000000050000                            
50015010201808032018080602004059             PES0000005000M600072018080316560150                                                
6000902004059000237                                                                                                             
7PESE                                                                                000000000005000                            
50015110201808032018080633005792             PES0000050000M600002018080313580028                                                
6000933005792000299                                                                                                             
7PESE                                                                                000000000050000                            
50015210201808032018080625110102             PES0000010000M600002018080311140007                                                
6000925110102000290                                                                                                             
7PESE                                                                                000000000010000                            
50015310201808042018080600021042             PES0000040000A118562018080310510016                                                
6000900021042000278                                                                                                             
7PESE                                                                                000000000040000                            
50015410201808042018080600025614             PES0000050000A120252018080316380009                                                
6000900025614000237                                                                                                             
7PESE                                                                                000000000050000                            
50015510201808042018080625112834             PES0000010000A035742018080409220013                                                
6000925112834000237                                                                                                             
7PESE                                                                                000000000010000                            
50015610201808042018080600014367             PES0000015000A180852018080409500014                                                
6000900014367000242                                                                                                             
7PESE                                                                                000000000015000                            
50015710201808042018080600015765             PES0000020000A106002018080411040101                                                
6000900015765000279                                                                                                             
7PESE                                                                                000000000020000                            
50015810201808042018080600008757             PES0000030000A112932018080411270077                                                
6000900008757000221                                                                                                             
7PESE                                                                                000000000030000                            
50015910201808042018080600022970             PES0000020000A145272018080411330122                                                
6000900022970000258                                                                                                             
7PESE                                                                                000000000020000                            
50016010201808042018080624924743             PES0000004000D009802018080410030018                                                
6000924924743000221                                                                                                             
7PESE                                                                                000000000004000                            
50016110201808042018080650008717             PES0000040000A135242018080412060109                                                
6000950008717000242                                                                                                             
7PESE                                                                                000000000040000                            
50016210201808042018080625106371             PES0000010000A254952018080411440063                                                
6000925106371000200                                                                                                             
7PESE                                                                                000000000010000                            
50016310201808042018080624712062             PES0000010000A254952018080411130039                                                
6000924712062000258                                                                                                             
7PESE                                                                                000000000010000                            
50016410201808042018080650005995             PES0000010000A254952018080412060086                                                
6000950005995000278                                                                                                             
7PESE                                                                                000000000010000                            
50016510201808042018080600009838             PES0000010000A184912018080410100032                                                
6000900009838000263                                                                                                             
7PESE                                                                                000000000010000                            
50016610201808042018080600013392             PES0000010000D010382018080411550012                                                
6000900013392000290                                                                                                             
7PESE                                                                                000000000010000                            
50016710201808042018080624411964             PES0000030000A260682018080410500019                                                
6000924411964000242                                                                                                             
7PESP                                                                                000000000030000                            
50016810201808042018080600017511             PES0000005000D001252018080411020151                                                
6000900017511000278                                                                                                             
7PESE                                                                                000000000005000                            
50016910201808042018080625122506             PES0000020000A127752018080410220011                                                
6000925122506000221                                                                                                             
7PESE                                                                                000000000020000                            
50017010201808042018080600014553             PES0000020000A103002018080411290020                                                
6000900014553000200                                                                                                             
7PESE                                                                                000000000020000                            
50017110201808042018080602003887             PES0000005000A031192018080412170061                                                
6000902003887000216                                                                                                             
7PESE                                                                                000000000005000                            
50017210201808042018080624701119             PES0000050000D008872018080409480027                                                
6000924701119000215                                                                                                             
7PESE                                                                                000000000050000                            
50017310201808042018080600016626             PES0000010000D008452018080411100031                                                
6000900016626000242                                                                                                             
7PESE                                                                                000000000010000                            
50017410201808042018080600010351             PES0000003000A264472018080411280072                                                
6000900010351000221                                                                                                             
7PESE                                                                                000000000003000                            
50017510201808042018080650012565             PES0000100000A264472018080412500118                                                
6000950012565000237                                                                                                             
7PESE                                                                                000000000100000                            
50017610201808042018080650012565             PES0000100000A264472018080412510119                                                
6000950012565000237                                                                                                             
7PESE                                                                                000000000100000                            
50017710201808042018080650008045             PES0000015000A264472018080411280073                                                
6000950008045000242                                                                                                             
7PESE                                                                                000000000015000                            
50017810201808042018080600025867             PES0000050000A164912018080411500022                                                
6000900025867000290                                                                                                             
7PESE                                                                                000000000050000                            
50017910201808042018080625111249             PES0000006000A204442018080412340032                                                
6000925111249000200                                                                                                             
7PESE                                                                                000000000006000                            
50018010201808042018080625106387             PES0000004000A216302018080411480082                                                
6000925106387000237                                                                                                             
7PESE                                                                                000000000004000                            
50018110201808042018080650011970             PES0000050000A070462018080412110035                                                
6000950011970000200                                                                                                             
7PESE                                                                                000000000050000                            
50018210201808042018080625106296             PES0000009000D005402018080410520122                                                
6000925106296000215                                                                                                             
7PESE                                                                                000000000009000                            
50018310201808042018080625106398             PES0000020000D005402018080409560060                                                
6000925106398000290                                                                                                             
7PESP                                                                                000000000020000                            
50018410201808042018080602005513             PES0000005776D009262018080411150093                                                
6000902005513000242                                                                                                             
7PESE                                                                                000000000005776                            
50018510201808042018080600024040             PES0000040000A153792018080411020037                                                
6000900024040000237                                                                                                             
7PESE                                                                                000000000040000                            
50018610201808042018080602001603             PES0000100000A063662018080411560004                                                
6000902001603000258                                                                                                             
7PESE                                                                                000000000100000                            
50018710201808042018080602001603             PES0000100000A063662018080411560005                                                
6000902001603000258                                                                                                             
7PESE                                                                                000000000100000                            
50018810201808042018080600013948             PES0000005000A254962018080412140022                                                
6000900013948000278                                                                                                             
7PESE                                                                                000000000005000                            
50018910201808042018080602005515             PES0000100000A214762018080411370009                                                
6000902005515000216                                                                                                             
7PESE                                                                                000000000100000                            
50019010201808042018080624316428             PES0000015000A171712018080411470027                                                
6000924316428000200                                                                                                             
7PESE                                                                                000000000015000                            
50019110201808042018080600020847             PES0000020000A207462018080411190023                                                
6000900020847000221                                                                                                             
7PESE                                                                                000000000020000                            
50019210201808042018080624904234             PES0000030000A182942018080412440041                                                
6000924904234000284                                                                                                             
7PESE                                                                                000000000030000                            
50019310201808042018080624111759             PES0000006000A133952018080411160028                                                
6000924111759000284                                                                                                             
7PESE                                                                                000000000006000                            
50019410201808042018080600020223             PES0000020000A112932018080412290028                                                
6000900020223000242                                                                                                             
7PESE                                                                                000000000020000                            
50019510201808042018080625106419             PES0000014300D002262018080410060030                                                
6000925106419000242                                                                                                             
7PESE                                                                                000000000014300                            
50019610201808042018080600004170             PES0000010000D002252018080410360039                                                
6000900004170000258                                                                                                             
7PESE                                                                                000000000010000                            
50019710201808042018080600009972             PES0000015000A220682018080413530035                                                
6000900009972000278                                                                                                             
7PESE                                                                                000000000015000                            
50019810201808042018080600021151             PES0000015000D007232018080410520059                                                
6000900021151000279                                                                                                             
7PESP                                                                                000000000015000                            
50019910201808042018080600018071             PES0000010000D002092018080410490057                                                
6000900018071000299                                                                                                             
7PESE                                                                                000000000010000                            
50020010201808042018080625122628             PES0000010000D002332018080413250157                                                
6000925122628000258                                                                                                             
7PESE                                                                                000000000010000                            
50020110201808042018080613807365             PES0000017000D005832018080411410248                                                
6000913807365000263                                                                                                             
7PESE                                                                                000000000017000                            
50020210201808042018080600023056             PES0000020000D001772018080411000030                                                
6000900023056000221                                                                                                             
7PESE                                                                                000000000020000                            
50020310201808042018080625112266             PES0000013000A053092018080412280034                                                
6000925112266000299                                                                                                             
7PESE                                                                                000000000013000                            
50020410201808042018080600017269             PES0000020000D001262018080414540415                                                
6000900017269000236                                                                                                             
7PESP                                                                                000000000020000                            
50020510201808042018080600021224             PES0000030000A168142018080418290096                                                
6000900021224000221                                                                                                             
7PESE                                                                                000000000030000                            
50020610201808042018080600017140             PES0000010000A093492018080410180007                                                
6000900017140000257                                                                                                             
7PESE                                                                                000000000010000                            
50020710201808042018080600021702             PES0000030000A270002018080416350001                                                
6000900021702000279                                                                                                             
7PESE                                                                                000000000030000                            
50020810201808042018080650012521             PES0000100000D008012018080418440157                                                
6000950012521000290                                                                                                             
7PESE                                                                                000000000100000                            
50020910201808042018080650012521             PES0000050000D008012018080418450158                                                
6000950012521000290                                                                                                             
7PESE                                                                                000000000050000                            
50021010201808042018080600021586             PES0000005000D006692018080421290070                                                
6000900021586000284                                                                                                             
7PESE                                                                                000000000005000                            
50021110201808042018080600017708             PES0000007000L193842018080414060296                                                
6000900017708000221                                                                                                             
7PESE                                                                                000000000007000                            
50021210201808042018080600022259             PES0000020000A111322018080413440011                                                
6000900022259000216                                                                                                             
7PESE                                                                                000000000020000                            
50021310201808052018080600011019             PES0000025000D003792018080510090029                                                
6000900011019000200                                                                                                             
7PESE                                                                                000000000025000                            
50021410201808052018080625108249             PES0000005000D000492018080518080445                                                
6000925108249000284                                                                                                             
7PESE                                                                                000000000005000                            
50021510201808052018080625110614             PES0000009500D005282018080513000156                                                
6000925110614000263                                                                                                             
7PESE                                                                                000000000009500                            
50021610201808052018080625111508             PES0000001000D003462018080511490029                                                
6000925111508000215                                                                                                             
7PESE                                                                                000000000001000                            
50021710201808052018080625115137             PES0000010000D006742018080510110088                                                
6000925115137000278                                                                                                             
7PESE                                                                                000000000010000                            
50021810201808052018080650012779             PES0000010000D005382018080516470113                                                
6000950012779000236                                                                                                             
7PESE                                                                                000000000010000                            
50021910201808052018080650012779             PES0000020000D005382018080516470112                                                
6000950012779000236                                                                                                             
7PESE                                                                                000000000020000                            
82018080600000100002190000059261240000000000000000000000000000000000000000219                                                   
9201808060000010000219000005926124000000000000000000000000000000000000000000219                                                 
