120180807PAGO FACIL               090060009INS. SALESIANA SAN FCO. JAVIER-ASOC                                                  
320180807000001INS. SALESIANA SAN FCO. JAVIER-ASOC                                                                              
50000110201808062018080700001428             PES0000060000A053092018080610250055                                                
6000900001428000221                                                                                                             
7PESE                                                                                000000000060000                            
50000210201808062018080700001919             PES0000020000A032972018080618000028                                                
6000900001919000200                                                                                                             
7PESE                                                                                000000000020000                            
50000310201808062018080700003096             PES0000008000A145382018080612470025                                                
6000900003096000258                                                                                                             
7PESE                                                                                000000000008000                            
50000410201808062018080700005967             PES0000010000A222682018080615340054                                                
6000900005967000242                                                                                                             
7PESE                                                                                000000000010000                            
50000510201808062018080700008557             PES0000020000A094782018080610410042                                                
6000900008557000299                                                                                                             
7PESE                                                                                000000000020000                            
50000610201808062018080700009850             PES0000005000A075792018080611320047                                                
6000900009850000237                                                                                                             
7PESE                                                                                000000000005000                            
50000710201808062018080700009886             PES0000020000A144232018080614040045                                                
6000900009886000221                                                                                                             
7PESE                                                                                000000000020000                            
50000810201808062018080700011080             PES0000050000L193702018080614247435                                                
6000900011080000263                                                                                                             
7PESE                                                                                000000000050000                            
50000910201808062018080700011401             PES0000020000A263522018080613160034                                                
6000900011401000263                                                                                                             
7PESE                                                                                000000000020000                            
50001010201808062018080700011943             PES0000030000L193972018080609472065                                                
6000900011943000200                                                                                                             
7PESE                                                                                000000000030000                            
50001110201808062018080700013308             PES0000006600A198772018080613220045                                                
6000900013308000284                                                                                                             
7PESE                                                                                000000000006600                            
50001210201808062018080700014124             PES0000040000D000502018080616440093                                                
6000900014124000200                                                                                                             
7PESE                                                                                000000000040000                            
50001310201808062018080700014126             PES0000050000D004912018080615320246                                                
6000900014126000279                                                                                                             
7PESE                                                                                000000000050000                            
50001410201808062018080700015492             PES0000020000D000182018080612150004                                                
6000900015492000200                                                                                                             
7PESE                                                                                000000000020000                            
50001510201808062018080700015573             PES0000018000A032972018080618100031                                                
6000900015573000200                                                                                                             
7PESE                                                                                000000000018000                            
50001610201808062018080700016007             PES0000020000A255082018080617460061                                                
6000900016007000237                                                                                                             
7PESE                                                                                000000000020000                            
50001710201808062018080700016571             PES0000010000A028662018080617350027                                                
6000900016571000279                                                                                                             
7PESE                                                                                000000000010000                            
50001810201808062018080700016578             PES0000020000D005382018080613500273                                                
6000900016578000221                                                                                                             
7PESE                                                                                000000000020000                            
50001910201808062018080700016851             PES0000030000A029032018080610170009                                                
6000900016851000278                                                                                                             
7PESE                                                                                000000000030000                            
50002010201808062018080700017695             PES0000010000A180322018080617060059                                                
6000900017695000221                                                                                                             
7PESE                                                                                000000000010000                            
50002110201808062018080700017963             PES0000020000L193462018080613030965                                                
6000900017963000221                                                                                                             
7PESE                                                                                000000000020000                            
50002210201808062018080700018096             PES0000010000A157762018080615520083                                                
6000900018096000216                                                                                                             
7PESE                                                                                000000000010000                            
50002310201808062018080700019062             PES0000015000D004292018080615150004                                                
6000900019062000242                                                                                                             
7PESP                                                                                000000000015000                            
50002410201808062018080700019804             PES0000010000A175232018080616240077                                                
6000900019804000284                                                                                                             
7PESE                                                                                000000000010000                            
50002510201808062018080700020056             PES0000020000D005382018080613500272                                                
6000900020056000299                                                                                                             
7PESE                                                                                000000000020000                            
50002610201808062018080700020541             PES0000006900A274662018080611240007                                                
6000900020541000263                                                                                                             
7PESE                                                                                000000000006900                            
50002710201808062018080700020881             PES0000010000A162562018080619410008                                                
6000900020881000215                                                                                                             
7PESE                                                                                000000000010000                            
50002810201808062018080700020989             PES0000040000A147132018080617170029                                                
6000900020989000200                                                                                                             
7PESE                                                                                000000000040000                            
50002910201808062018080700021118             PES0000006000A101232018080616580049                                                
6000900021118000221                                                                                                             
7PESE                                                                                000000000006000                            
50003010201808062018080700021967             PES0000050000A166402018080615190023                                                
6000900021967000236                                                                                                             
7PESP                                                                                000000000050000                            
50003110201808062018080700021975             PES0000010000A227742018080612530025                                                
6000900021975000284                                                                                                             
7PESE                                                                                000000000010000                            
50003210201808062018080700022167             PES0000005000A283472018080612500056                                                
6000900022167000258                                                                                                             
7PESE                                                                                000000000005000                            
50003310201808062018080700022424             PES0000000500A081902018080610340061                                                
6000900022424000290                                                                                                             
7PESE                                                                                000000000000500                            
50003410201808062018080700022424             PES0000004500A081902018080610340062                                                
6000900022424000290                                                                                                             
7PESE                                                                                000000000004500                            
50003510201808062018080700022424             PES0000005000A081902018080610340064                                                
6000900022424000290                                                                                                             
7PESE                                                                                000000000005000                            
50003610201808062018080700022424             PES0000005000A081902018080610340063                                                
6000900022424000290                                                                                                             
7PESE                                                                                000000000005000                            
50003710201808062018080700022424             PES0000005000A081902018080610340060                                                
6000900022424000290                                                                                                             
7PESE                                                                                000000000005000                            
50003810201808062018080700022701             PES0000010000A214432018080613280001                                                
6000900022701000284                                                                                                             
7PESE                                                                                000000000010000                            
50003910201808062018080700022729             PES0000005000A056262018080613550016                                                
6000900022729000216                                                                                                             
7PESE                                                                                000000000005000                            
50004010201808062018080700022744             PES0000015000A171402018080610390032                                                
6000900022744000299                                                                                                             
7PESE                                                                                000000000015000                            
50004110201808062018080700023060             PES0000005000A123552018080615540024                                                
6000900023060000242                                                                                                             
7PESE                                                                                000000000005000                            
50004210201808062018080700023062             PES0000015000A145382018080614140056                                                
6000900023062000215                                                                                                             
7PESE                                                                                000000000015000                            
50004310201808062018080700023571             PES0000010000L191302018080614579174                                                
6000900023571000279                                                                                                             
7PESE                                                                                000000000010000                            
50004410201808062018080700023778             PES0000035000D009922018080617120156                                                
6000900023778000257                                                                                                             
7PESE                                                                                000000000035000                            
50004510201808062018080700024225             PES0000010000M600382018080614088942                                                
6000900024225000299                                                                                                             
7PESE                                                                                000000000010000                            
50004610201808062018080700024676             PES0000015000D007772018080615570204                                                
6000900024676000215                                                                                                             
7PESE                                                                                000000000015000                            
50004710201808062018080700025378             PES0000100000A214442018080614380005                                                
6000900025378000284                                                                                                             
7PESE                                                                                000000000100000                            
50004810201808062018080700026425             PES0000011000A153862018080616330004                                                
6000900026425000215                                                                                                             
7PESE                                                                                000000000011000                            
50004910201808062018080702001426             PES0000100000A163402018080610500014                                                
6000902001426000284                                                                                                             
7PESE                                                                                000000000100000                            
50005010201808062018080702001426             PES0000100000A163402018080610500013                                                
6000902001426000284                                                                                                             
7PESE                                                                                000000000100000                            
50005110201808062018080702001854             PES0000015000D009802018080608590017                                                
6000902001854000242                                                                                                             
7PESE                                                                                000000000015000                            
50005210201808062018080702002546             PES0000010000A135242018080612030040                                                
6000902002546000299                                                                                                             
7PESE                                                                                000000000010000                            
50005310201808062018080702004006             PES0000020000A149032018080611500071                                                
6000902004006000200                                                                                                             
7PESE                                                                                000000000020000                            
50005410201808062018080702004394             PES0000020000A160512018080618020007                                                
6000902004394000200                                                                                                             
7PESE                                                                                000000000020000                            
50005510201808062018080702004722             PES0000050000A146132018080615000021                                                
6000902004722000221                                                                                                             
7PESE                                                                                000000000050000                            
50005610201808062018080702004980             PES0000030000A160352018080613120087                                                
6000902004980000236                                                                                                             
7PESE                                                                                000000000030000                            
50005710201808062018080715420541             PES0000003100A274662018080611240005                                                
6000915420541000284                                                                                                             
7PESE                                                                                000000000003100                            
50005810201808062018080716520541             PES0000005000A274662018080611240002                                                
6000916520541000221                                                                                                             
7PESE                                                                                000000000005000                            
50005910201808062018080717007267             PES0000030000D010382018080612160152                                                
6000917007267000279                                                                                                             
7PESP                                                                                000000000030000                            
50006010201808062018080717836813             PES0000010000A127802018080611470061                                                
6000917836813000263                                                                                                             
7PESE                                                                                000000000010000                            
50006110201808062018080718920541             PES0000005000A274662018080611240004                                                
6000918920541000258                                                                                                             
7PESE                                                                                000000000005000                            
50006210201808062018080719220541             PES0000005000A274662018080611240003                                                
6000919220541000290                                                                                                             
7PESE                                                                                000000000005000                            
50006310201808062018080721020897             PES0000020000A164202018080613160015                                                
6000921020897000257                                                                                                             
7PESE                                                                                000000000020000                            
50006410201808062018080721222067             PES0000020000A171352018080619550042                                                
6000921222067000290                                                                                                             
7PESE                                                                                000000000020000                            
50006510201808062018080722314407             PES0000004900A284242018080612230089                                                
6000922314407000200                                                                                                             
7PESE                                                                                000000000004900                            
50006610201808062018080723512134             PES0000004000A214762018080618270053                                                
6000923512134000200                                                                                                             
7PESE                                                                                000000000004000                            
50006710201808062018080723515333             PES0000005000A164562018080615160056                                                
6000923515333000236                                                                                                             
7PESE                                                                                000000000005000                            
50006810201808062018080724024842             PES0000025000A152482018080609010028                                                
6000924024842000279                                                                                                             
7PESE                                                                                000000000025000                            
50006910201808062018080724025737             PES0000020000A167342018080609140055                                                
6000924025737000258                                                                                                             
7PESE                                                                                000000000020000                            
50007010201808062018080724105975             PES0000010000A222682018080610110058                                                
6000924105975000278                                                                                                             
7PESE                                                                                000000000010000                            
50007110201808062018080724113327             PES0000070000A070462018080619220068                                                
6000924113327000278                                                                                                             
7PESE                                                                                000000000070000                            
50007210201808062018080724216062             PES0000010000D008832018080612560078                                                
6000924216062000215                                                                                                             
7PESE                                                                                000000000010000                            
50007310201808062018080724220541             PES0000020770A274662018080611240006                                                
6000924220541000263                                                                                                             
7PESE                                                                                000000000020770                            
50007410201808062018080724403674             PES0000060000A139892018080616410060                                                
6000924403674000279                                                                                                             
7PESE                                                                                000000000060000                            
50007510201808062018080724417322             PES0000100000A150992018080611540050                                                
6000924417322000257                                                                                                             
7PESE                                                                                000000000100000                            
50007610201808062018080724706967             PES0000015000A183072018080612300064                                                
6000924706967000215                                                                                                             
7PESE                                                                                000000000015000                            
50007710201808062018080724724078             PES0000010000A157842018080611360017                                                
6000924724078000216                                                                                                             
7PESE                                                                                000000000010000                            
50007810201808062018080724724157             PES0000020000D007632018080611320065                                                
6000924724157000242                                                                                                             
7PESE                                                                                000000000020000                            
50007910201808062018080724802647             PES0000005000D000062018080611590077                                                
6000924802647000263                                                                                                             
7PESE                                                                                000000000005000                            
50008010201808062018080724809376             PES0000030000A214442018080616500075                                                
6000924809376000278                                                                                                             
7PESE                                                                                000000000030000                            
50008110201808062018080724825852             PES0000020000A047792018080611030001                                                
6000924825852000242                                                                                                             
7PESE                                                                                000000000020000                            
50008210201808062018080724909376             PES0000030000A214442018080616500076                                                
6000924909376000290                                                                                                             
7PESE                                                                                000000000030000                            
50008310201808062018080724917441             PES0000020000A260932018080609520013                                                
6000924917441000200                                                                                                             
7PESE                                                                                000000000020000                            
50008410201808062018080725005124             PES0000010099D003462018080610100003                                                
6000925005124000284                                                                                                             
7PESE                                                                                000000000010099                            
50008510201808062018080725006297             PES0000030000M600002018080616450064                                                
6000925006297000221                                                                                                             
7PESE                                                                                000000000030000                            
50008610201808062018080725009376             PES0000030000A214442018080616500074                                                
6000925009376000284                                                                                                             
7PESE                                                                                000000000030000                            
50008710201808062018080725012537             PES0000050000A063842018080614290122                                                
6000925012537000278                                                                                                             
7PESE                                                                                000000000050000                            
50008810201808062018080725019563             PES0000010000A620272018080610250050                                                
6000925019563000221                                                                                                             
7PESE                                                                                000000000010000                            
50008910201808062018080725100425             PES0000030000A116882018080612220066                                                
6000925100425000263                                                                                                             
7PESE                                                                                000000000030000                            
50009010201808062018080725101850             PES0000050000A067092018080609340066                                                
6000925101850000263                                                                                                             
7PESE                                                                                000000000050000                            
50009110201808062018080725103223             PES0000030000A286942018080617010037                                                
6000925103223000290                                                                                                             
7PESE                                                                                000000000030000                            
50009210201808062018080725105741             PES0000020000A106002018080610180033                                                
6000925105741000242                                                                                                             
7PESE                                                                                000000000020000                            
50009310201808062018080725105791             PES0000009500A073062018080615140001                                                
6000925105791000263                                                                                                             
7PESE                                                                                000000000009500                            
50009410201808062018080725105985             PES0000015000A157252018080611370054                                                
6000925105985000215                                                                                                             
7PESE                                                                                000000000015000                            
50009510201808062018080725106366             PES0000005000A024182018080609230050                                                
6000925106366000257                                                                                                             
7PESE                                                                                000000000005000                            
50009610201808062018080725106632             PES0000005000A114372018080612130043                                                
6000925106632000284                                                                                                             
7PESE                                                                                000000000005000                            
50009710201808062018080725108488             PES0000010000A149712018080611250038                                                
6000925108488000279                                                                                                             
7PESE                                                                                000000000010000                            
50009810201808062018080725109376             PES0000030000A214442018080616500077                                                
6000925109376000215                                                                                                             
7PESE                                                                                000000000030000                            
50009910201808062018080725109388             PES0000010000A139132018080616580016                                                
6000925109388000200                                                                                                             
7PESE                                                                                000000000010000                            
50010010201808062018080725110422             PES0000009500D000282018080615520222                                                
6000925110422000299                                                                                                             
7PESE                                                                                000000000009500                            
50010110201808062018080725110611             PES0000014300A220712018080611270050                                                
6000925110611000263                                                                                                             
7PESE                                                                                000000000014300                            
50010210201808062018080725111598             PES0000010000D005142018080613330003                                                
6000925111598000237                                                                                                             
7PESE                                                                                000000000010000                            
50010310201808062018080725113968             PES0000012000A025642018080609290004                                                
6000925113968000215                                                                                                             
7PESE                                                                                000000000012000                            
50010410201808062018080725114124             PES0000010000D000502018080616450094                                                
6000925114124000290                                                                                                             
7PESE                                                                                000000000010000                            
50010510201808062018080725114600             PES0000009500M600832018080613460066                                                
6000925114600000284                                                                                                             
7PESE                                                                                000000000009500                            
50010610201808062018080725114922             PES0000010000A197842018080610530010                                                
6000925114922000242                                                                                                             
7PESE                                                                                000000000010000                            
50010710201808062018080725115055             PES0000010000A155002018080608530028                                                
6000925115055000237                                                                                                             
7PESE                                                                                000000000010000                            
50010810201808062018080725115769             PES0000009500D002292018080617000340                                                
6000925115769000200                                                                                                             
7PESE                                                                                000000000009500                            
50010910201808062018080725117667             PES0000050000L190902018080610295305                                                
6000925117667000215                                                                                                             
7PESE                                                                                000000000050000                            
50011010201808062018080725117766             PES0000015000L191102018080618577195                                                
6000925117766000299                                                                                                             
7PESE                                                                                000000000015000                            
50011110201808062018080725118012             PES0000004000A114372018080611500003                                                
6000925118012000263                                                                                                             
7PESE                                                                                000000000004000                            
50011210201808062018080725118300             PES0000015000M600842018080613410015                                                
6000925118300000216                                                                                                             
7PESE                                                                                000000000015000                            
50011310201808062018080725118659             PES0000009500A163442018080613040008                                                
6000925118659000200                                                                                                             
7PESE                                                                                000000000009500                            
50011410201808062018080725119871             PES0000030000A142512018080611050070                                                
6000925119871000242                                                                                                             
7PESE                                                                                000000000030000                            
50011510201808062018080725123675             PES0000015000A145202018080616150015                                                
6000925123675000221                                                                                                             
7PESE                                                                                000000000015000                            
50011610201808062018080725124126             PES0000005000A161842018080613420013                                                
6000925124126000200                                                                                                             
7PESE                                                                                000000000005000                            
50011710201808062018080725124127             PES0000005000A161842018080613420014                                                
6000925124127000237                                                                                                             
7PESE                                                                                000000000005000                            
50011810201808062018080725126077             PES0000050000A049722018080618290021                                                
6000925126077000237                                                                                                             
7PESE                                                                                000000000050000                            
50011910201808062018080725126420             PES0000005000A215782018080618530047                                                
6000925126420000221                                                                                                             
7PESE                                                                                000000000005000                            
50012010201808062018080733005732             PES0000020000A140952018080612150084                                                
6000933005732000242                                                                                                             
7PESE                                                                                000000000020000                            
50012110201808062018080750006643             PES0000015000A063242018080610300058                                                
6000950006643000279                                                                                                             
7PESE                                                                                000000000015000                            
50012210201808062018080750007195             PES0000045000D002092018080611360173                                                
6000950007195000242                                                                                                             
7PESE                                                                                000000000045000                            
50012310201808062018080750008811             PES0000050000A170922018080610360061                                                
6000950008811000257                                                                                                             
7PESE                                                                                000000000050000                            
50012410201808062018080750009103             PES0000006000A204432018080610330028                                                
6000950009103000237                                                                                                             
7PESE                                                                                000000000006000                            
50012510201808062018080750009673             PES0000005000A063712018080616070058                                                
6000950009673000284                                                                                                             
7PESE                                                                                000000000005000                            
50012610201808062018080750009869             PES0000020000D000302018080608420013                                                
6000950009869000200                                                                                                             
7PESE                                                                                000000000020000                            
50012710201808062018080750009911             PES0000030000A037092018080612500035                                                
6000950009911000215                                                                                                             
7PESE                                                                                000000000030000                            
50012810201808062018080750010127             PES0000030000D000192018080609480024                                                
6000950010127000258                                                                                                             
7PESE                                                                                000000000030000                            
50012910201808062018080750010632             PES0000050000A158442018080617540052                                                
6000950010632000284                                                                                                             
7PESE                                                                                000000000050000                            
50013010201808062018080750010746             PES0000012000A032972018080610280022                                                
6000950010746000263                                                                                                             
7PESE                                                                                000000000012000                            
50013110201808062018080750011240             PES0000015000A282492018080618150058                                                
6000950011240000221                                                                                                             
7PESE                                                                                000000000015000                            
50013210201808062018080750011537             PES0000040000A114372018080615090059                                                
6000950011537000284                                                                                                             
7PESE                                                                                000000000040000                            
50013310201808062018080750011551             PES0000010000D000062018080610590049                                                
6000950011551000221                                                                                                             
7PESE                                                                                000000000010000                            
50013410201808062018080750011904             PES0000015000D003462018080610330022                                                
6000950011904000263                                                                                                             
7PESP                                                                                000000000015000                            
50013510201808062018080750012255             PES0000010000D005322018080613240131                                                
6000950012255000263                                                                                                             
7PESE                                                                                000000000010000                            
50013610201808062018080750012380             PES0000010000A168742018080611090012                                                
6000950012380000284                                                                                                             
7PESE                                                                                000000000010000                            
50013710201808062018080750012633             PES0000020000A137632018080610380032                                                
6000950012633000200                                                                                                             
7PESE                                                                                000000000020000                            
50013810201808062018080750014029             PES0000010000A215782018080612570013                                                
6000950014029000299                                                                                                             
7PESE                                                                                000000000010000                            
50013910201808062018080750015232             PES0000020000D001632018080616380221                                                
6000950015232000242                                                                                                             
7PESE                                                                                000000000020000                            
50014010201808062018080750015232             PES0000100000D001632018080616380220                                                
6000950015232000242                                                                                                             
7PESE                                                                                000000000100000                            
50014110201808062018080750015281             PES0000010000A090002018080611540018                                                
6000950015281000237                                                                                                             
7PESE                                                                                000000000010000                            
82018080700000100001410000030301690000000000000000000000000000000000000000141                                                   
9201808070000010000141000003030169000000000000000000000000000000000000000000141                                                 
