120180808PAGO FACIL               090060009INS. SALESIANA SAN FCO. JAVIER-ASOC                                                  
320180808000001INS. SALESIANA SAN FCO. JAVIER-ASOC                                                                              
50000110201808072018080800000694             PES0000010000A211472018080710140032                                                
6000900000694000242                                                                                                             
7PESE                                                                                000000000010000                            
50000210201808072018080800004039             PES0000015000A186202018080717260141                                                
6000900004039000258                                                                                                             
7PESE                                                                                000000000015000                            
50000310201808072018080800008096             PES0000010000D000842018080712150065                                                
6000900008096000284                                                                                                             
7PESE                                                                                000000000010000                            
50000410201808072018080800008805             PES0000012000A149692018080710120052                                                
6000900008805000242                                                                                                             
7PESE                                                                                000000000012000                            
50000510201808072018080800009020             PES0000010000A167992018080711020012                                                
6000900009020000242                                                                                                             
7PESE                                                                                000000000010000                            
50000610201808072018080800009072             PES0000005000A260332018080716460005                                                
6000900009072000237                                                                                                             
7PESE                                                                                000000000005000                            
50000710201808072018080800009078             PES0000015000D002092018080711400158                                                
6000900009078000242                                                                                                             
7PESP                                                                                000000000015000                            
50000810201808072018080800009552             PES0000070000A258742018080717170079                                                
6000900009552000263                                                                                                             
7PESE                                                                                000000000070000                            
50000910201808072018080800011783             PES0000008450A142702018080715580031                                                
6000900011783000279                                                                                                             
7PESE                                                                                000000000008450                            
50001010201808072018080800012710             PES0000030000A048012018080716180010                                                
6000900012710000242                                                                                                             
7PESE                                                                                000000000030000                            
50001110201808072018080800014580             PES0000015000D008002018080713080257                                                
6000900014580000279                                                                                                             
7PESE                                                                                000000000015000                            
50001210201808072018080800014763             PES0000020000D004282018080708540055                                                
6000900014763000263                                                                                                             
7PESP                                                                                000000000020000                            
50001310201808072018080800015925             PES0000045000D005982018080716050030                                                
6000900015925000200                                                                                                             
7PESP                                                                                000000000045000                            
50001410201808072018080800015970             PES0000050000A231052018080712250052                                                
6000900015970000258                                                                                                             
7PESE                                                                                000000000050000                            
50001510201808072018080800016028             PES0000050000A142512018080713110088                                                
6000900016028000221                                                                                                             
7PESE                                                                                000000000050000                            
50001610201808072018080800016416             PES0000010000A134432018080712490029                                                
6000900016416000284                                                                                                             
7PESE                                                                                000000000010000                            
50001710201808072018080800016608             PES0000020000A157762018080718240071                                                
6000900016608000263                                                                                                             
7PESE                                                                                000000000020000                            
50001810201808072018080800016949             PES0000050000D000072018080712500102                                                
6000900016949000242                                                                                                             
7PESP                                                                                000000000050000                            
50001910201808072018080800017039             PES0000020000A129522018080710000010                                                
6000900017039000221                                                                                                             
7PESE                                                                                000000000020000                            
50002010201808072018080800017093             PES0000015000A260762018080712480007                                                
6000900017093000263                                                                                                             
7PESE                                                                                000000000015000                            
50002110201808072018080800017471             PES0000010000A112952018080714020028                                                
6000900017471000200                                                                                                             
7PESE                                                                                000000000010000                            
50002210201808072018080800017751             PES0000030000A252892018080713570046                                                
6000900017751000200                                                                                                             
7PESE                                                                                000000000030000                            
50002310201808072018080800017886             PES0000050000A168742018080711570018                                                
6000900017886000263                                                                                                             
7PESE                                                                                000000000050000                            
50002410201808072018080800018086             PES0000010000A157762018080712010006                                                
6000900018086000299                                                                                                             
7PESE                                                                                000000000010000                            
50002510201808072018080800018316             PES0000080000A127902018080718270042                                                
6000900018316000263                                                                                                             
7PESE                                                                                000000000080000                            
50002610201808072018080800018977             PES0000010000D008582018080710530063                                                
6000900018977000237                                                                                                             
7PESE                                                                                000000000010000                            
50002710201808072018080800019298             PES0000050000A212952018080712240063                                                
6000900019298000263                                                                                                             
7PESE                                                                                000000000050000                            
50002810201808072018080800020322             PES0000010000A154672018080714580064                                                
6000900020322000221                                                                                                             
7PESE                                                                                000000000010000                            
50002910201808072018080800021601             PES0000020000A141912018080712150020                                                
6000900021601000221                                                                                                             
7PESE                                                                                000000000020000                            
50003010201808072018080800022593             PES0000050000A170612018080715070021                                                
6000900022593000257                                                                                                             
7PESE                                                                                000000000050000                            
50003110201808072018080800022641             PES0000010000A147452018080714460080                                                
6000900022641000278                                                                                                             
7PESE                                                                                000000000010000                            
50003210201808072018080800023396             PES0000020000M600392018080711270009                                                
6000900023396000278                                                                                                             
7PESE                                                                                000000000020000                            
50003310201808072018080800023737             PES0000030000D007732018080711230111                                                
6000900023737000216                                                                                                             
7PESE                                                                                000000000030000                            
50003410201808072018080800024018             PES0000015000A144682018080710160096                                                
6000900024018000242                                                                                                             
7PESE                                                                                000000000015000                            
50003510201808072018080800024160             PES0000010000A212202018080715370011                                                
6000900024160000200                                                                                                             
7PESE                                                                                000000000010000                            
50003610201808072018080800024798             PES0000020000A161282018080713270036                                                
6000900024798000242                                                                                                             
7PESE                                                                                000000000020000                            
50003710201808072018080800026297             PES0000100000A222652018080710350044                                                
6000900026297000221                                                                                                             
7PESE                                                                                000000000100000                            
50003810201808072018080800026440             PES0000020740D009612018080709380020                                                
6000900026440000284                                                                                                             
7PESE                                                                                000000000020740                            
50003910201808072018080802003984             PES0000010000A153512018080711350083                                                
6000902003984000221                                                                                                             
7PESE                                                                                000000000010000                            
50004010201808072018080802004082             PES0000010000D000072018080711500064                                                
6000902004082000263                                                                                                             
7PESP                                                                                000000000010000                            
50004110201808072018080802004176             PES0000030000A180602018080711280023                                                
6000902004176000290                                                                                                             
7PESE                                                                                000000000030000                            
50004210201808072018080802004218             PES0000010000A214442018080712420010                                                
6000902004218000236                                                                                                             
7PESE                                                                                000000000010000                            
50004310201808072018080818022306             PES0000020000A147132018080720190045                                                
6000918022306000263                                                                                                             
7PESP                                                                                000000000020000                            
50004410201808072018080824022085             PES0000015000A154042018080709060051                                                
6000924022085000278                                                                                                             
7PESE                                                                                000000000015000                            
50004510201808072018080824222427             PES0000004000A156552018080713030005                                                
6000924222427000200                                                                                                             
7PESE                                                                                000000000004000                            
50004610201808072018080824223862             PES0000010000D007662018080715200168                                                
6000924223862000236                                                                                                             
7PESE                                                                                000000000010000                            
50004710201808072018080824417041             PES0000064000A231052018080712340064                                                
6000924417041000221                                                                                                             
7PESE                                                                                000000000064000                            
50004810201808072018080824418387             PES0000010000D010152018080713070076                                                
6000924418387000221                                                                                                             
7PESE                                                                                000000000010000                            
50004910201808072018080824715165             PES0000100000A178372018080710510071                                                
6000924715165000215                                                                                                             
7PESE                                                                                000000000100000                            
50005010201808072018080824716544             PES0000005000A215782018080711160031                                                
6000924716544000236                                                                                                             
7PESP                                                                                000000000005000                            
50005110201808072018080824723486             PES0000020000A056262018080710060033                                                
6000924723486000284                                                                                                             
7PESE                                                                                000000000020000                            
50005210201808072018080824914588             PES0000050000D005422018080717230363                                                
6000924914588000236                                                                                                             
7PESE                                                                                000000000050000                            
50005310201808072018080825008217             PES0000020000D001622018080710550082                                                
6000925008217000215                                                                                                             
7PESE                                                                                000000000020000                            
50005410201808072018080825009729             PES0000020000A152132018080717120042                                                
6000925009729000221                                                                                                             
7PESE                                                                                000000000020000                            
50005510201808072018080825010994             PES0000010000D002712018080712560182                                                
6000925010994000284                                                                                                             
7PESE                                                                                000000000010000                            
50005610201808072018080825016102             PES0000010000D002712018080712560181                                                
6000925016102000242                                                                                                             
7PESE                                                                                000000000010000                            
50005710201808072018080825019251             PES0000050000A106002018080711110009                                                
6000925019251000284                                                                                                             
7PESE                                                                                000000000050000                            
50005810201808072018080825021748             PES0000005000A105722018080710540096                                                
6000925021748000257                                                                                                             
7PESE                                                                                000000000005000                            
50005910201808072018080825102182             PES0000050000D001392018080710400051                                                
6000925102182000257                                                                                                             
7PESE                                                                                000000000050000                            
50006010201808072018080825104805             PES0000020000A222632018080712400032                                                
6000925104805000257                                                                                                             
7PESE                                                                                000000000020000                            
50006110201808072018080825105827             PES0000009500A174982018080711130009                                                
6000925105827000216                                                                                                             
7PESE                                                                                000000000009500                            
50006210201808072018080825106278             PES0000012000D005382018080709370082                                                
6000925106278000236                                                                                                             
7PESE                                                                                000000000012000                            
50006310201808072018080825106531             PES0000020000A220662018080715200004                                                
6000925106531000236                                                                                                             
7PESE                                                                                000000000020000                            
50006410201808072018080825108332             PES0000010000A137632018080709550015                                                
6000925108332000221                                                                                                             
7PESE                                                                                000000000010000                            
50006510201808072018080825108554             PES0000050000A100002018080715400014                                                
6000925108554000279                                                                                                             
7PESE                                                                                000000000050000                            
50006610201808072018080825109132             PES0000005000A182782018080710030001                                                
6000925109132000242                                                                                                             
7PESE                                                                                000000000005000                            
50006710201808072018080825109313             PES0000025000A071842018080716020023                                                
6000925109313000258                                                                                                             
7PESE                                                                                000000000025000                            
50006810201808072018080825109491             PES0000010000A154672018080716290049                                                
6000925109491000200                                                                                                             
7PESE                                                                                000000000010000                            
50006910201808072018080825110725             PES0000010000D002102018080710190049                                                
6000925110725000242                                                                                                             
7PESP                                                                                000000000010000                            
50007010201808072018080825110994             PES0000010000D002712018080712560180                                                
6000925110994000215                                                                                                             
7PESE                                                                                000000000010000                            
50007110201808072018080825111971             PES0000030000D004902018080711050045                                                
6000925111971000200                                                                                                             
7PESE                                                                                000000000030000                            
50007210201808072018080825112045             PES0000009500A285052018080710230033                                                
6000925112045000279                                                                                                             
7PESE                                                                                000000000009500                            
50007310201808072018080825112728             PES0000010000A160372018080709350025                                                
6000925112728000237                                                                                                             
7PESE                                                                                000000000010000                            
50007410201808072018080825113136             PES0000003000A260832018080713030024                                                
6000925113136000242                                                                                                             
7PESE                                                                                000000000003000                            
50007510201808072018080825114620             PES0000080000D005612018080713100155                                                
6000925114620000236                                                                                                             
7PESP                                                                                000000000080000                            
50007610201808072018080825115565             PES0000009500D003462018080716560248                                                
6000925115565000237                                                                                                             
7PESE                                                                                000000000009500                            
50007710201808072018080825115754             PES0000070000A167352018080710250052                                                
6000925115754000200                                                                                                             
7PESE                                                                                000000000070000                            
50007810201808072018080825116102             PES0000010000D002712018080712560179                                                
6000925116102000263                                                                                                             
7PESE                                                                                000000000010000                            
50007910201808072018080825116295             PES0000010000M600202018080711350017                                                
6000925116295000215                                                                                                             
7PESE                                                                                000000000010000                            
50008010201808072018080825118617             PES0000009500M600182018080710440002                                                
6000925118617000236                                                                                                             
7PESE                                                                                000000000009500                            
50008110201808072018080825119401             PES0000009500D000182018080715300102                                                
6000925119401000215                                                                                                             
7PESE                                                                                000000000009500                            
50008210201808072018080825121748             PES0000005000A105722018080710530095                                                
6000925121748000279                                                                                                             
7PESE                                                                                000000000005000                            
50008310201808072018080825123175             PES0000009500A145262018080709070013                                                
6000925123175000242                                                                                                             
7PESE                                                                                000000000009500                            
50008410201808072018080825126333             PES0000010000D010092018080713280060                                                
6000925126333000242                                                                                                             
7PESE                                                                                000000000010000                            
50008510201808072018080850006217             PES0000006000A048012018080712020041                                                
6000950006217000284                                                                                                             
7PESE                                                                                000000000006000                            
50008610201808072018080850006486             PES0000100000A220632018080716330029                                                
6000950006486000257                                                                                                             
7PESE                                                                                000000000100000                            
50008710201808072018080850006486             PES0000100000A220632018080716330028                                                
6000950006486000257                                                                                                             
7PESE                                                                                000000000100000                            
50008810201808072018080850006486             PES0000100000A220632018080716330027                                                
6000950006486000257                                                                                                             
7PESE                                                                                000000000100000                            
50008910201808072018080850006486             PES0000100000A220632018080716330026                                                
6000950006486000257                                                                                                             
7PESE                                                                                000000000100000                            
50009010201808072018080850007339             PES0000005000A260932018080712200048                                                
6000950007339000263                                                                                                             
7PESE                                                                                000000000005000                            
50009110201808072018080850007836             PES0000002500A163412018080710050027                                                
6000950007836000236                                                                                                             
7PESE                                                                                000000000002500                            
50009210201808072018080850007935             PES0000025000A119382018080708090002                                                
6000950007935000215                                                                                                             
7PESE                                                                                000000000025000                            
50009310201808072018080850008009             PES0000010000A162372018080711340065                                                
6000950008009000284                                                                                                             
7PESE                                                                                000000000010000                            
50009410201808072018080850008085             PES0000020000A188312018080711310036                                                
6000950008085000242                                                                                                             
7PESE                                                                                000000000020000                            
50009510201808072018080850008094             PES0000006000D005132018080711040097                                                
6000950008094000237                                                                                                             
7PESP                                                                                000000000006000                            
50009610201808072018080850008236             PES0000020000A071842018080713360013                                                
6000950008236000284                                                                                                             
7PESE                                                                                000000000020000                            
50009710201808072018080850008357             PES0000050000D001632018080712110070                                                
6000950008357000284                                                                                                             
7PESE                                                                                000000000050000                            
50009810201808072018080850009054             PES0000025000D005412018080714390163                                                
6000950009054000284                                                                                                             
7PESE                                                                                000000000025000                            
50009910201808072018080850009162             PES0000013000A136932018080716060049                                                
6000950009162000257                                                                                                             
7PESE                                                                                000000000013000                            
50010010201808072018080850009341             PES0000007593D005282018080717000039                                                
6000950009341000290                                                                                                             
7PESE                                                                                000000000007593                            
50010110201808072018080850009577             PES0000022381A170922018080710570011                                                
6000950009577000215                                                                                                             
7PESE                                                                                000000000022381                            
50010210201808072018080850009938             PES0000030000A029032018080710170043                                                
6000950009938000200                                                                                                             
7PESE                                                                                000000000030000                            
50010310201808072018080850009988             PES0000100000A044482018080710410031                                                
6000950009988000236                                                                                                             
7PESE                                                                                000000000100000                            
50010410201808072018080850009988             PES0000100000A044482018080710410030                                                
6000950009988000236                                                                                                             
7PESE                                                                                000000000100000                            
50010510201808072018080850010153             PES0000030000A142712018080711390020                                                
6000950010153000299                                                                                                             
7PESP                                                                                000000000030000                            
50010610201808072018080850010381             PES0000007500A168562018080709380033                                                
6000950010381000221                                                                                                             
7PESE                                                                                000000000007500                            
50010710201808072018080850010465             PES0000015000A254962018080711120014                                                
6000950010465000236                                                                                                             
7PESE                                                                                000000000015000                            
50010810201808072018080850010878             PES0000050000D008202018080717310234                                                
6000950010878000221                                                                                                             
7PESE                                                                                000000000050000                            
50010910201808072018080850010878             PES0000100000D008202018080717310233                                                
6000950010878000221                                                                                                             
7PESE                                                                                000000000100000                            
50011010201808072018080850011554             PES0000004000A284242018080712480056                                                
6000950011554000236                                                                                                             
7PESE                                                                                000000000004000                            
50011110201808072018080850012159             PES0000020000D002262018080712140133                                                
6000950012159000299                                                                                                             
7PESE                                                                                000000000020000                            
50011210201808072018080850012499             PES0000030000D004732018080714180019                                                
6000950012499000237                                                                                                             
7PESE                                                                                000000000030000                            
50011310201808072018080850012843             PES0000005000D005362018080713140129                                                
6000950012843000263                                                                                                             
7PESE                                                                                000000000005000                            
50011410201808072018080850012950             PES0000025000A119382018080708090003                                                
6000950012950000290                                                                                                             
7PESE                                                                                000000000025000                            
82018080800000100001140000031351640000000000000000000000000000000000000000114                                                   
9201808080000010000114000003135164000000000000000000000000000000000000000000114                                                 
