120180809PAGO FACIL               090060009INS. SALESIANA SAN FCO. JAVIER-ASOC                                                  
320180809000001INS. SALESIANA SAN FCO. JAVIER-ASOC                                                                              
50000110201808082018080900007218             PES0000010000A259872018080810130015                                                
6000900007218000237                                                                                                             
7PESE                                                                                000000000010000                            
50000210201808082018080900009894             PES0000020000A084922018080810440033                                                
6000900009894000279                                                                                                             
7PESE                                                                                000000000020000                            
50000310201808082018080900010579             PES0000040000A286942018080816040001                                                
6000900010579000284                                                                                                             
7PESE                                                                                000000000040000                            
50000410201808082018080900010637             PES0000030000A204602018080810070017                                                
6000900010637000236                                                                                                             
7PESE                                                                                000000000030000                            
50000510201808082018080900010947             PES0000030000A159742018080811110020                                                
6000900010947000200                                                                                                             
7PESE                                                                                000000000030000                            
50000610201808082018080900012811             PES0000100000A008222018080817390038                                                
6000900012811000299                                                                                                             
7PESE                                                                                000000000100000                            
50000710201808082018080900013836             PES0000005000D001632018080810200024                                                
6000900013836000263                                                                                                             
7PESE                                                                                000000000005000                            
50000810201808082018080900014330             PES0000010000A063712018080815310017                                                
6000900014330000221                                                                                                             
7PESE                                                                                000000000010000                            
50000910201808082018080900014848             PES0000035000D003842018080812290137                                                
6000900014848000200                                                                                                             
7PESE                                                                                000000000035000                            
50001010201808082018080900015709             PES0000010000A153182018080811520072                                                
6000900015709000263                                                                                                             
7PESE                                                                                000000000010000                            
50001110201808082018080900016090             PES0000010000A193292018080812330059                                                
6000900016090000216                                                                                                             
7PESE                                                                                000000000010000                            
50001210201808082018080900017474             PES0000010000A273762018080810560043                                                
6000900017474000215                                                                                                             
7PESP                                                                                000000000010000                            
50001310201808082018080900017930             PES0000020000D005972018080811000181                                                
6000900017930000242                                                                                                             
7PESE                                                                                000000000020000                            
50001410201808082018080900018105             PES0000030000D002042018080818310202                                                
6000900018105000278                                                                                                             
7PESE                                                                                000000000030000                            
50001510201808082018080900018173             PES0000005500A130812018080812080045                                                
6000900018173000279                                                                                                             
7PESE                                                                                000000000005500                            
50001610201808082018080900019965             PES0000005000A081062018080817560018                                                
6000900019965000284                                                                                                             
7PESE                                                                                000000000005000                            
50001710201808082018080900020346             PES0000050000A019762018080811350023                                                
6000900020346000215                                                                                                             
7PESE                                                                                000000000050000                            
50001810201808082018080900020569             PES0000030000D006102018080821220317                                                
6000900020569000290                                                                                                             
7PESP                                                                                000000000030000                            
50001910201808082018080900020691             PES0000022979D005972018080820490440                                                
6000900020691000200                                                                                                             
7PESE                                                                                000000000022979                            
50002010201808082018080900022315             PES0000010000A167562018080810370049                                                
6000900022315000299                                                                                                             
7PESE                                                                                000000000010000                            
50002110201808082018080900022517             PES0000035000A149472018080811500006                                                
6000900022517000299                                                                                                             
7PESE                                                                                000000000035000                            
50002210201808082018080900022742             PES0000010000A123552018080816100038                                                
6000900022742000221                                                                                                             
7PESE                                                                                000000000010000                            
50002310201808082018080900022765             PES0000010000A159382018080816590001                                                
6000900022765000279                                                                                                             
7PESE                                                                                000000000010000                            
50002410201808082018080900022916             PES0000020000A127752018080816470057                                                
6000900022916000216                                                                                                             
7PESE                                                                                000000000020000                            
50002510201808082018080900023235             PES0000035000M600742018080812310043                                                
6000900023235000278                                                                                                             
7PESE                                                                                000000000035000                            
50002610201808082018080900023290             PES0000015000A018912018080816520008                                                
6000900023290000242                                                                                                             
7PESE                                                                                000000000015000                            
50002710201808082018080900023707             PES0000030000A027022018080811370017                                                
6000900023707000242                                                                                                             
7PESE                                                                                000000000030000                            
50002810201808082018080900024296             PES0000100000A197652018080810480059                                                
6000900024296000200                                                                                                             
7PESE                                                                                000000000100000                            
50002910201808082018080900024324             PES0000010000A093212018080809010036                                                
6000900024324000278                                                                                                             
7PESP                                                                                000000000010000                            
50003010201808082018080900024482             PES0000040000A119572018080811580009                                                
6000900024482000263                                                                                                             
7PESE                                                                                000000000040000                            
50003110201808082018080900024591             PES0000040000A157542018080811240051                                                
6000900024591000278                                                                                                             
7PESE                                                                                000000000040000                            
50003210201808082018080900024909             PES0000020000D009372018080813110050                                                
6000900024909000284                                                                                                             
7PESE                                                                                000000000020000                            
50003310201808082018080900024988             PES0000020000A064522018080821570027                                                
6000900024988000257                                                                                                             
7PESE                                                                                000000000020000                            
50003410201808082018080900026153             PES0000050000D005312018080810450019                                                
6000900026153000278                                                                                                             
7PESP                                                                                000000000050000                            
50003510201808082018080902000320             PES0000025000A110862018080810080014                                                
6000902000320000215                                                                                                             
7PESE                                                                                000000000025000                            
50003610201808082018080902004829             PES0000015000A214372018080810050043                                                
6000902004829000284                                                                                                             
7PESE                                                                                000000000015000                            
50003710201808082018080911213452             PES0000005000A200082018080808510021                                                
6000911213452000221                                                                                                             
7PESE                                                                                000000000005000                            
50003810201808082018080915105873             PES0000010000A153862018080812240030                                                
6000915105873000258                                                                                                             
7PESE                                                                                000000000010000                            
50003910201808082018080922024700             PES0000007000M680142018080810160016                                                
6000922024700000263                                                                                                             
7PESE                                                                                000000000007000                            
50004010201808082018080922206208             PES0000002000A262362018080819010002                                                
6000922206208000237                                                                                                             
7PESE                                                                                000000000002000                            
50004110201808082018080923513226             PES0000007000A142512018080811190040                                                
6000923513226000200                                                                                                             
7PESE                                                                                000000000007000                            
50004210201808082018080923517246             PES0000030000D006422018080816530096                                                
6000923517246000237                                                                                                             
7PESE                                                                                000000000030000                            
50004310201808082018080924018940             PES0000010000A129522018080810390104                                                
6000924018940000263                                                                                                             
7PESE                                                                                000000000010000                            
50004410201808082018080924114794             PES0000020000L192672018080819159125                                                
6000924114794000242                                                                                                             
7PESE                                                                                000000000020000                            
50004510201808082018080924219995             PES0000010000D000502018080814340162                                                
6000924219995000263                                                                                                             
7PESE                                                                                000000000010000                            
50004610201808082018080924306345             PES0000008700A166652018080811180042                                                
6000924306345000200                                                                                                             
7PESE                                                                                000000000008700                            
50004710201808082018080924402560             PES0000100000A258272018080816040015                                                
6000924402560000257                                                                                                             
7PESE                                                                                000000000100000                            
50004810201808082018080924402560             PES0000100000A258272018080816040014                                                
6000924402560000257                                                                                                             
7PESE                                                                                000000000100000                            
50004910201808082018080924706495             PES0000006000A188242018080811080039                                                
6000924706495000242                                                                                                             
7PESE                                                                                000000000006000                            
50005010201808082018080924714154             PES0000010000A182772018080812090075                                                
6000924714154000200                                                                                                             
7PESE                                                                                000000000010000                            
50005110201808082018080924718495             PES0000060000A259872018080815260019                                                
6000924718495000263                                                                                                             
7PESE                                                                                000000000060000                            
50005210201808082018080924724001             PES0000060000A291922018080814220075                                                
6000924724001000290                                                                                                             
7PESE                                                                                000000000060000                            
50005310201808082018080924724176             PES0000020000A153792018080810160062                                                
6000924724176000263                                                                                                             
7PESE                                                                                000000000020000                            
50005410201808082018080924812439             PES0000005000A145662018080809370031                                                
6000924812439000215                                                                                                             
7PESE                                                                                000000000005000                            
50005510201808082018080924821898             PES0000020000A167132018080810390031                                                
6000924821898000279                                                                                                             
7PESE                                                                                000000000020000                            
50005610201808082018080924823290             PES0000015000A018912018080816530009                                                
6000924823290000290                                                                                                             
7PESE                                                                                000000000015000                            
50005710201808082018080924907416             PES0000020000A099982018080810520007                                                
6000924907416000278                                                                                                             
7PESE                                                                                000000000020000                            
50005810201808082018080924908363             PES0000025000L193222018080809566233                                                
6000924908363000221                                                                                                             
7PESE                                                                                000000000025000                            
50005910201808082018080924912311             PES0000010000A193912018080814510039                                                
6000924912311000299                                                                                                             
7PESE                                                                                000000000010000                            
50006010201808082018080925010979             PES0000030000A034162018080813030015                                                
6000925010979000215                                                                                                             
7PESE                                                                                000000000030000                            
50006110201808082018080925012439             PES0000005000A145662018080809370032                                                
6000925012439000221                                                                                                             
7PESE                                                                                000000000005000                            
50006210201808082018080925013310             PES0000005000A112852018080816330030                                                
6000925013310000299                                                                                                             
7PESE                                                                                000000000005000                            
50006310201808082018080925013888             PES0000030000A211402018080813240052                                                
6000925013888000221                                                                                                             
7PESE                                                                                000000000030000                            
50006410201808082018080925022647             PES0000005000A283462018080816100026                                                
6000925022647000242                                                                                                             
7PESE                                                                                000000000005000                            
50006510201808082018080925023097             PES0000030000A031402018080811200004                                                
6000925023097000221                                                                                                             
7PESE                                                                                000000000030000                            
50006610201808082018080925103496             PES0000010000A173652018080810230011                                                
6000925103496000200                                                                                                             
7PESE                                                                                000000000010000                            
50006710201808082018080925104741             PES0000020000A214372018080814370039                                                
6000925104741000290                                                                                                             
7PESE                                                                                000000000020000                            
50006810201808082018080925105748             PES0000020000A184912018080811430042                                                
6000925105748000284                                                                                                             
7PESE                                                                                000000000020000                            
50006910201808082018080925106136             PES0000009500L260012018080812173273                                                
6000925106136000242                                                                                                             
7PESE                                                                                000000000009500                            
50007010201808082018080925106532             PES0000010000A220682018080815240019                                                
6000925106532000263                                                                                                             
7PESE                                                                                000000000010000                            
50007110201808082018080925107425             PES0000009500L190322018080817342647                                                
6000925107425000279                                                                                                             
7PESE                                                                                000000000009500                            
50007210201808082018080925107454             PES0000009500L190322018080817342648                                                
6000925107454000216                                                                                                             
7PESE                                                                                000000000009500                            
50007310201808082018080925107767             PES0000006000A220722018080813020017                                                
6000925107767000299                                                                                                             
7PESE                                                                                000000000006000                            
50007410201808082018080925108658             PES0000020000D005612018080812290087                                                
6000925108658000236                                                                                                             
7PESE                                                                                000000000020000                            
50007510201808082018080925109734             PES0000020000A215782018080815540010                                                
6000925109734000200                                                                                                             
7PESE                                                                                000000000020000                            
50007610201808082018080925109894             PES0000020000A084922018080810440032                                                
6000925109894000263                                                                                                             
7PESE                                                                                000000000020000                            
50007710201808082018080925111376             PES0000015000A176972018080811510019                                                
6000925111376000284                                                                                                             
7PESE                                                                                000000000015000                            
50007810201808082018080925112331             PES0000010000A175102018080810490024                                                
6000925112331000258                                                                                                             
7PESE                                                                                000000000010000                            
50007910201808082018080925113190             PES0000010000D001732018080813100176                                                
6000925113190000284                                                                                                             
7PESE                                                                                000000000010000                            
50008010201808082018080925113717             PES0000014189A008222018080814160032                                                
6000925113717000221                                                                                                             
7PESE                                                                                000000000014189                            
50008110201808082018080925114291             PES0000040000A031192018080817220012                                                
6000925114291000284                                                                                                             
7PESE                                                                                000000000040000                            
50008210201808082018080925115702             PES0000080000M600092018080811420027                                                
6000925115702000215                                                                                                             
7PESE                                                                                000000000080000                            
50008310201808082018080925115826             PES0000030000D000182018080818120428                                                
6000925115826000216                                                                                                             
7PESE                                                                                000000000030000                            
50008410201808082018080925116188             PES0000002000A158162018080816410034                                                
6000925116188000279                                                                                                             
7PESE                                                                                000000000002000                            
50008510201808082018080925117364             PES0000020000D003842018080816090195                                                
6000925117364000263                                                                                                             
7PESE                                                                                000000000020000                            
50008610201808082018080925117555             PES0000001500A137632018080810540063                                                
6000925117555000200                                                                                                             
7PESE                                                                                000000000001500                            
50008710201808082018080925117663             PES0000009500L260012018080812193292                                                
6000925117663000278                                                                                                             
7PESE                                                                                000000000009500                            
50008810201808082018080925117960             PES0000010000M600532018080814510088                                                
6000925117960000215                                                                                                             
7PESE                                                                                000000000010000                            
50008910201808082018080925123949             PES0000015000A152922018080811280013                                                
6000925123949000236                                                                                                             
7PESE                                                                                000000000015000                            
50009010201808082018080925124034             PES0000020000A152922018080811590059                                                
6000925124034000242                                                                                                             
7PESE                                                                                000000000020000                            
50009110201808082018080925208192             PES0000020000A160342018080814040012                                                
6000925208192000278                                                                                                             
7PESE                                                                                000000000020000                            
50009210201808082018080925211737             PES0000010000A171562018080810510043                                                
6000925211737000200                                                                                                             
7PESE                                                                                000000000010000                            
50009310201808082018080925213147             PES0000020000A173232018080810110024                                                
6000925213147000236                                                                                                             
7PESE                                                                                000000000020000                            
50009410201808082018080925217995             PES0000020000A204862018080817570060                                                
6000925217995000284                                                                                                             
7PESE                                                                                000000000020000                            
50009510201808082018080925223178             PES0000050000A167562018080816050050                                                
6000925223178000279                                                                                                             
7PESE                                                                                000000000050000                            
50009610201808082018080933005753             PES0000015000A153862018080810080033                                                
6000933005753000221                                                                                                             
7PESE                                                                                000000000015000                            
50009710201808082018080950006273             PES0000015000A016682018080811280045                                                
6000950006273000299                                                                                                             
7PESE                                                                                000000000015000                            
50009810201808082018080950007347             PES0000020000M640492018080811050018                                                
6000950007347000216                                                                                                             
7PESE                                                                                000000000020000                            
50009910201808082018080950008768             PES0000060000A117772018080811390062                                                
6000950008768000200                                                                                                             
7PESE                                                                                000000000060000                            
50010010201808082018080950009144             PES0000020000A193922018080816020002                                                
6000950009144000278                                                                                                             
7PESE                                                                                000000000020000                            
50010110201808082018080950009444             PES0000030000A169522018080809390037                                                
6000950009444000216                                                                                                             
7PESE                                                                                000000000030000                            
50010210201808082018080950009449             PES0000030000A092942018080811210011                                                
6000950009449000299                                                                                                             
7PESE                                                                                000000000030000                            
50010310201808082018080950009507             PES0000050000D003852018080813280101                                                
6000950009507000237                                                                                                             
7PESP                                                                                000000000050000                            
50010410201808082018080950009620             PES0000030000A214372018080815110006                                                
6000950009620000258                                                                                                             
7PESE                                                                                000000000030000                            
50010510201808082018080950009645             PES0000010000D010082018080811470051                                                
6000950009645000284                                                                                                             
7PESE                                                                                000000000010000                            
50010610201808082018080950010136             PES0000010000A215782018080811520050                                                
6000950010136000242                                                                                                             
7PESE                                                                                000000000010000                            
50010710201808082018080950010395             PES0000060000L192102018080814388365                                                
6000950010395000299                                                                                                             
7PESE                                                                                000000000060000                            
50010810201808082018080950010777             PES0000039100A153512018080810270008                                                
6000950010777000278                                                                                                             
7PESE                                                                                000000000039100                            
50010910201808082018080950010862             PES0000025000A163032018080813490028                                                
6000950010862000284                                                                                                             
7PESE                                                                                000000000025000                            
50011010201808082018080950010895             PES0000030000A135242018080818060046                                                
6000950010895000263                                                                                                             
7PESE                                                                                000000000030000                            
50011110201808082018080950012021             PES0000020000A214432018080816240028                                                
6000950012021000221                                                                                                             
7PESE                                                                                000000000020000                            
50011210201808082018080950012093             PES0000010000M600592018080815120076                                                
6000950012093000263                                                                                                             
7PESE                                                                                000000000010000                            
50011310201808082018080950012733             PES0000010000A016682018080811450057                                                
6000950012733000221                                                                                                             
7PESE                                                                                000000000010000                            
50011410201808082018080998009389             PES0000030000D000182018080816380386                                                
6000998009389000279                                                                                                             
7PESE                                                                                000000000030000                            
82018080900000100001140000026899680000000000000000000000000000000000000000114                                                   
9201808090000010000114000002689968000000000000000000000000000000000000000000114                                                 
