120180810PAGO FACIL               090060009INS. SALESIANA SAN FCO. JAVIER-ASOC                                                  
320180810000001INS. SALESIANA SAN FCO. JAVIER-ASOC                                                                              
50000110201808092018081050005980             PES0000010000D005402018080811470113                                                
6000950005980000278                                                                                                             
7PESE                                                                                000000000010000                            
50000210201808092018081000002344             PES0000010000D007642018080909260054                                                
6000900002344000263                                                                                                             
7PESE                                                                                000000000010000                            
50000310201808092018081000002634             PES0000020000A621162018080910130010                                                
6000900002634000284                                                                                                             
7PESE                                                                                000000000020000                            
50000410201808092018081000007108             PES0000004500A150252018080910270028                                                
6000900007108000290                                                                                                             
7PESE                                                                                000000000004500                            
50000510201808092018081000007490             PES0000010000A165092018080912440007                                                
6000900007490000284                                                                                                             
7PESE                                                                                000000000010000                            
50000610201808092018081000010687             PES0000040000A152492018080915580031                                                
6000900010687000258                                                                                                             
7PESE                                                                                000000000040000                            
50000710201808092018081000011435             PES0000020000A007672018080909010057                                                
6000900011435000279                                                                                                             
7PESE                                                                                000000000020000                            
50000810201808092018081000012844             PES0000010000A211392018080912460041                                                
6000900012844000278                                                                                                             
7PESE                                                                                000000000010000                            
50000910201808092018081000014112             PES0000010000A214682018080916420009                                                
6000900014112000215                                                                                                             
7PESE                                                                                000000000010000                            
50001010201808092018081000014586             PES0000010000D004282018080916360066                                                
6000900014586000284                                                                                                             
7PESE                                                                                000000000010000                            
50001110201808092018081000015430             PES0000007500A233012018080916420027                                                
6000900015430000284                                                                                                             
7PESE                                                                                000000000007500                            
50001210201808092018081000015608             PES0000030000A049722018080911170021                                                
6000900015608000216                                                                                                             
7PESP                                                                                000000000030000                            
50001310201808092018081000015841             PES0000030000A100002018080912230051                                                
6000900015841000200                                                                                                             
7PESE                                                                                000000000030000                            
50001410201808092018081000015876             PES0000012000A288682018080909180001                                                
6000900015876000257                                                                                                             
7PESE                                                                                000000000012000                            
50001510201808092018081000016172             PES0000020000A142382018080916170063                                                
6000900016172000257                                                                                                             
7PESE                                                                                000000000020000                            
50001610201808092018081000016417             PES0000010000A048012018080918160100                                                
6000900016417000221                                                                                                             
7PESE                                                                                000000000010000                            
50001710201808092018081000016425             PES0000015000A252922018080911320021                                                
6000900016425000279                                                                                                             
7PESE                                                                                000000000015000                            
50001810201808092018081000016724             PES0000010000A084922018080912250017                                                
6000900016724000284                                                                                                             
7PESE                                                                                000000000010000                            
50001910201808092018081000018111             PES0000030000A139892018080919120047                                                
6000900018111000258                                                                                                             
7PESE                                                                                000000000030000                            
50002010201808092018081000018833             PES0000070000A264322018080918290029                                                
6000900018833000284                                                                                                             
7PESE                                                                                000000000070000                            
50002110201808092018081000019632             PES0000010000A063842018080915330045                                                
6000900019632000263                                                                                                             
7PESE                                                                                000000000010000                            
50002210201808092018081000019798             PES0000030000A084922018080914080073                                                
6000900019798000237                                                                                                             
7PESE                                                                                000000000030000                            
50002310201808092018081000019845             PES0000050000M600142018080913050010                                                
6000900019845000221                                                                                                             
7PESE                                                                                000000000050000                            
50002410201808092018081000019879             PES0000020000D000502018080920570222                                                
6000900019879000237                                                                                                             
7PESE                                                                                000000000020000                            
50002510201808092018081000020355             PES0000010000A284382018080912180046                                                
6000900020355000200                                                                                                             
7PESP                                                                                000000000010000                            
50002610201808092018081000020409             PES0000008000A260752018080910080012                                                
6000900020409000236                                                                                                             
7PESE                                                                                000000000008000                            
50002710201808092018081000020483             PES0000020000A132012018080910360029                                                
6000900020483000221                                                                                                             
7PESE                                                                                000000000020000                            
50002810201808092018081000021306             PES0000030000A174772018080909000027                                                
6000900021306000258                                                                                                             
7PESE                                                                                000000000030000                            
50002910201808092018081000021541             PES0000020000A134882018080913210038                                                
6000900021541000215                                                                                                             
7PESE                                                                                000000000020000                            
50003010201808092018081000021771             PES0000050000D006682018080910110050                                                
6000900021771000216                                                                                                             
7PESE                                                                                000000000050000                            
50003110201808092018081000022487             PES0000020000A199382018080914500030                                                
6000900022487000257                                                                                                             
7PESE                                                                                000000000020000                            
50003210201808092018081000022682             PES0000020000A025872018080912310111                                                
6000900022682000200                                                                                                             
7PESE                                                                                000000000020000                            
50003310201808092018081000023288             PES0000010000A183282018080915250036                                                
6000900023288000200                                                                                                             
7PESE                                                                                000000000010000                            
50003410201808092018081000023727             PES0000010000A129142018080911400038                                                
6000900023727000299                                                                                                             
7PESE                                                                                000000000010000                            
50003510201808092018081000023818             PES0000005000A214462018080911470019                                                
6000900023818000216                                                                                                             
7PESE                                                                                000000000005000                            
50003610201808092018081000023880             PES0000040000A166512018080915000030                                                
6000900023880000215                                                                                                             
7PESE                                                                                000000000040000                            
50003710201808092018081000024137             PES0000030000A144682018080909120001                                                
6000900024137000278                                                                                                             
7PESE                                                                                000000000030000                            
50003810201808092018081000024395             PES0000010000A143342018080911250029                                                
6000900024395000284                                                                                                             
7PESE                                                                                000000000010000                            
50003910201808092018081000024598             PES0000010000A158582018080911460022                                                
6000900024598000216                                                                                                             
7PESE                                                                                000000000010000                            
50004010201808092018081000024757             PES0000030000A158572018080912150039                                                
6000900024757000215                                                                                                             
7PESE                                                                                000000000030000                            
50004110201808092018081000024986             PES0000015000A229532018080910530042                                                
6000900024986000284                                                                                                             
7PESE                                                                                000000000015000                            
50004210201808092018081000026366             PES0000005673M601252018080910410004                                                
6000900026366000236                                                                                                             
7PESE                                                                                000000000005673                            
50004310201808092018081002000812             PES0000020000A125022018080917460063                                                
6000902000812000236                                                                                                             
7PESE                                                                                000000000020000                            
50004410201808092018081002000969             PES0000080000A125022018080917460062                                                
6000902000969000216                                                                                                             
7PESE                                                                                000000000080000                            
50004510201808092018081002000969             PES0000100000A125022018080917460061                                                
6000902000969000216                                                                                                             
7PESE                                                                                000000000100000                            
50004610201808092018081002002549             PES0000020000A158442018080917170031                                                
6000902002549000290                                                                                                             
7PESE                                                                                000000000020000                            
50004710201808092018081002002705             PES0000020000A222632018080914550074                                                
6000902002705000284                                                                                                             
7PESE                                                                                000000000020000                            
50004810201808092018081002003699             PES0000007354A149722018080912490021                                                
6000902003699000284                                                                                                             
7PESE                                                                                000000000007354                            
50004910201808092018081002005133             PES0000010000A090052018080912370011                                                
6000902005133000237                                                                                                             
7PESE                                                                                000000000010000                            
50005010201808092018081018006825             PES0000040000A188912018080912450018                                                
6000918006825000263                                                                                                             
7PESE                                                                                000000000040000                            
50005110201808092018081022801739             PES0000100000A167062018080917390055                                                
6000922801739000242                                                                                                             
7PESE                                                                                000000000100000                            
50005210201808092018081023425490             PES0000010000D001822018080918100259                                                
6000923425490000200                                                                                                             
7PESE                                                                                000000000010000                            
50005310201808092018081023720147             PES0000010000A089982018080913120021                                                
6000923720147000221                                                                                                             
7PESE                                                                                000000000010000                            
50005410201808092018081024119385             PES0000015000A089292018080916490070                                                
6000924119385000221                                                                                                             
7PESE                                                                                000000000015000                            
50005510201808092018081024217996             PES0000015000A105312018080918340066                                                
6000924217996000200                                                                                                             
7PESE                                                                                000000000015000                            
50005610201808092018081024318409             PES0000020000A102582018080912210030                                                
6000924318409000284                                                                                                             
7PESE                                                                                000000000020000                            
50005710201808092018081024415096             PES0000030000A165462018080912350062                                                
6000924415096000236                                                                                                             
7PESE                                                                                000000000030000                            
50005810201808092018081024416254             PES0000050000A231062018080909480042                                                
6000924416254000237                                                                                                             
7PESE                                                                                000000000050000                            
50005910201808092018081024420788             PES0000070000A288612018080915470031                                                
6000924420788000299                                                                                                             
7PESE                                                                                000000000070000                            
50006010201808092018081024712921             PES0000030000A222642018080916090032                                                
6000924712921000258                                                                                                             
7PESE                                                                                000000000030000                            
50006110201808092018081024721137             PES0000005000A168142018080917290062                                                
6000924721137000263                                                                                                             
7PESE                                                                                000000000005000                            
50006210201808092018081024813998             PES0000015000M600552018080915270047                                                
6000924813998000242                                                                                                             
7PESE                                                                                000000000015000                            
50006310201808092018081024905199             PES0000020000A106002018080917500031                                                
6000924905199000242                                                                                                             
7PESE                                                                                000000000020000                            
50006410201808092018081025006757             PES0000010000D000302018080917420635                                                
6000925006757000290                                                                                                             
7PESE                                                                                000000000010000                            
50006510201808092018081025011612             PES0000050000A178372018080912360014                                                
6000925011612000216                                                                                                             
7PESE                                                                                000000000050000                            
50006610201808092018081025017556             PES0000020000A164182018080917250026                                                
6000925017556000215                                                                                                             
7PESE                                                                                000000000020000                            
50006710201808092018081025104036             PES0000020000A286942018080910290060                                                
6000925104036000242                                                                                                             
7PESE                                                                                000000000020000                            
50006810201808092018081025104869             PES0000010000A263522018080912120002                                                
6000925104869000242                                                                                                             
7PESE                                                                                000000000010000                            
50006910201808092018081025105401             PES0000014300D000292018080915000181                                                
6000925105401000290                                                                                                             
7PESE                                                                                000000000014300                            
50007010201808092018081025106003             PES0000010000A153862018080919570064                                                
6000925106003000257                                                                                                             
7PESE                                                                                000000000010000                            
50007110201808092018081025106452             PES0000015000A170302018080909590038                                                
6000925106452000200                                                                                                             
7PESE                                                                                000000000015000                            
50007210201808092018081025106673             PES0000003000A175112018080915100064                                                
6000925106673000216                                                                                                             
7PESE                                                                                000000000003000                            
50007310201808092018081025107074             PES0000009500A084182018080916070010                                                
6000925107074000200                                                                                                             
7PESP                                                                                000000000009500                            
50007410201808092018081025107575             PES0000010000A165102018080917450072                                                
6000925107575000216                                                                                                             
7PESE                                                                                000000000010000                            
50007510201808092018081025109155             PES0000012000A024182018080908230005                                                
6000925109155000290                                                                                                             
7PESE                                                                                000000000012000                            
50007610201808092018081025109317             PES0000020000D004902018080913460091                                                
6000925109317000290                                                                                                             
7PESE                                                                                000000000020000                            
50007710201808092018081025114009             PES0000010000D005612018080916450015                                                
6000925114009000200                                                                                                             
7PESE                                                                                000000000010000                            
50007810201808092018081025114524             PES0000030000A171562018080915070075                                                
6000925114524000258                                                                                                             
7PESE                                                                                000000000030000                            
50007910201808092018081025115263             PES0000009500A222682018080916260031                                                
6000925115263000221                                                                                                             
7PESE                                                                                000000000009500                            
50008010201808092018081025115534             PES0000030000A215692018080913060058                                                
6000925115534000221                                                                                                             
7PESE                                                                                000000000030000                            
50008110201808092018081025115543             PES0000020000D009622018080914420135                                                
6000925115543000216                                                                                                             
7PESE                                                                                000000000020000                            
50008210201808092018081025115993             PES0000010000D005272018080918110176                                                
6000925115993000200                                                                                                             
7PESE                                                                                000000000010000                            
50008310201808092018081025116595             PES0000015000A114372018080912090061                                                
6000925116595000258                                                                                                             
7PESE                                                                                000000000015000                            
50008410201808092018081025119432             PES0000010000A188952018080915360065                                                
6000925119432000221                                                                                                             
7PESE                                                                                000000000010000                            
50008510201808092018081025119532             PES0000008000M600542018080916210027                                                
6000925119532000237                                                                                                             
7PESE                                                                                000000000008000                            
50008610201808092018081025120086             PES0000010000A230672018080909190004                                                
6000925120086000258                                                                                                             
7PESE                                                                                000000000010000                            
50008710201808092018081025120308             PES0000010000A032972018080917170043                                                
6000925120308000278                                                                                                             
7PESE                                                                                000000000010000                            
50008810201808092018081025122806             PES0000030000A039562018080918510052                                                
6000925122806000263                                                                                                             
7PESE                                                                                000000000030000                            
50008910201808092018081025123506             PES0000020000A124532018080909450012                                                
6000925123506000263                                                                                                             
7PESE                                                                                000000000020000                            
50009010201808092018081025125538             PES0000027000A181502018080914510008                                                
6000925125538000200                                                                                                             
7PESE                                                                                000000000027000                            
50009110201808092018081025203217             PES0000020000D005412018080909260002                                                
6000925203217000237                                                                                                             
7PESE                                                                                000000000020000                            
50009210201808092018081025211111             PES0000020000A182942018080911070050                                                
6000925211111000258                                                                                                             
7PESE                                                                                000000000020000                            
50009310201808092018081025211801             PES0000015000A070462018080912320054                                                
6000925211801000237                                                                                                             
7PESE                                                                                000000000015000                            
50009410201808092018081025211974             PES0000020000A100002018080914580006                                                
6000925211974000236                                                                                                             
7PESE                                                                                000000000020000                            
50009510201808092018081025212440             PES0000010000D000072018080912510070                                                
6000925212440000284                                                                                                             
7PESP                                                                                000000000010000                            
50009610201808092018081025214262             PES0000020000A161432018080913150024                                                
6000925214262000263                                                                                                             
7PESE                                                                                000000000020000                            
50009710201808092018081025216216             PES0000020000D008332018080910320033                                                
6000925216216000278                                                                                                             
7PESE                                                                                000000000020000                            
50009810201808092018081025216295             PES0000015000A063832018080913380015                                                
6000925216295000237                                                                                                             
7PESE                                                                                000000000015000                            
50009910201808092018081025216669             PES0000020000A071842018080916310013                                                
6000925216669000263                                                                                                             
7PESE                                                                                000000000020000                            
50010010201808092018081025216774             PES0000010000D005762018080909530007                                                
6000925216774000221                                                                                                             
7PESE                                                                                000000000010000                            
50010110201808092018081025219843             PES0000005000A182942018080912000031                                                
6000925219843000263                                                                                                             
7PESE                                                                                000000000005000                            
50010210201808092018081025222806             PES0000030000A039562018080918510051                                                
6000925222806000299                                                                                                             
7PESE                                                                                000000000030000                            
50010310201808092018081025225283             PES0000030000D005762018080909500004                                                
6000925225283000236                                                                                                             
7PESE                                                                                000000000030000                            
50010410201808092018081025226137             PES0000100000A175832018080914380021                                                
6000925226137000279                                                                                                             
7PESE                                                                                000000000100000                            
50010510201808092018081025226411             PES0000005000A116972018080916080005                                                
6000925226411000263                                                                                                             
7PESE                                                                                000000000005000                            
50010610201808092018081033005823             PES0000030000A143792018080917070048                                                
6000933005823000263                                                                                                             
7PESE                                                                                000000000030000                            
50010710201808092018081033005859             PES0000010000A153862018080918520037                                                
6000933005859000257                                                                                                             
7PESE                                                                                000000000010000                            
50010810201808092018081033005867             PES0000050000A193292018080910090002                                                
6000933005867000200                                                                                                             
7PESE                                                                                000000000050000                            
50010910201808092018081050005946             PES0000030000A163402018080910570041                                                
6000950005946000284                                                                                                             
7PESE                                                                                000000000030000                            
50011010201808092018081050007674             PES0000050000D004892018080912240134                                                
6000950007674000236                                                                                                             
7PESE                                                                                000000000050000                            
50011110201808092018081050007831             PES0000030000A193912018080913430027                                                
6000950007831000258                                                                                                             
7PESE                                                                                000000000030000                            
50011210201808092018081050008110             PES0000010700A286942018080916430054                                                
6000950008110000215                                                                                                             
7PESE                                                                                000000000010700                            
50011310201808092018081050008138             PES0000020000A263522018080913190056                                                
6000950008138000242                                                                                                             
7PESE                                                                                000000000020000                            
50011410201808092018081050008424             PES0000005000A071842018080918110024                                                
6000950008424000221                                                                                                             
7PESE                                                                                000000000005000                            
50011510201808092018081050009441             PES0000080000D008222018080911510034                                                
6000950009441000215                                                                                                             
7PESE                                                                                000000000080000                            
50011610201808092018081050009603             PES0000020000A157712018080914420003                                                
6000950009603000215                                                                                                             
7PESE                                                                                000000000020000                            
50011710201808092018081050010140             PES0000006000D008452018080913170043                                                
6000950010140000263                                                                                                             
7PESE                                                                                000000000006000                            
50011810201808092018081050010376             PES0000040000A178372018080910470013                                                
6000950010376000279                                                                                                             
7PESE                                                                                000000000040000                            
50011910201808092018081050010489             PES0000020000A182772018080915080047                                                
6000950010489000221                                                                                                             
7PESE                                                                                000000000020000                            
50012010201808092018081050010727             PES0000020000A033762018080910240054                                                
6000950010727000242                                                                                                             
7PESE                                                                                000000000020000                            
50012110201808092018081050010737             PES0000005000A071202018080909250008                                                
6000950010737000278                                                                                                             
7PESE                                                                                000000000005000                            
50012210201808092018081050010966             PES0000020000D002102018080910440035                                                
6000950010966000242                                                                                                             
7PESE                                                                                000000000020000                            
50012310201808092018081050011448             PES0000020000A008222018080912550047                                                
6000950011448000236                                                                                                             
7PESE                                                                                000000000020000                            
50012410201808092018081050012188             PES0000030000D005862018080908150013                                                
6000950012188000236                                                                                                             
7PESP                                                                                000000000030000                            
82018081000000100001240000028000270000000000000000000000000000000000000000124                                                   
9201808100000010000124000002800027000000000000000000000000000000000000000000124                                                 
