120180813PAGO FACIL               090060009INS. SALESIANA SAN FCO. JAVIER-ASOC                                                  
320180813000001INS. SALESIANA SAN FCO. JAVIER-ASOC                                                                              
50000110201808102018081300020605             PES0000010000A170492018081008310007                                                
6000900020605000221                                                                                                             
7PESE                                                                                000000000010000                            
50000210201808102018081324417149             PES0000007000A260762018081009200022                                                
6000924417149000216                                                                                                             
7PESE                                                                                000000000007000                            
50000310201808102018081325207233             PES0000020000A086812018081009420048                                                
6000925207233000221                                                                                                             
7PESE                                                                                000000000020000                            
50000410201808102018081350000368             PES0000010000A119572018081008190003                                                
6000950000368000284                                                                                                             
7PESE                                                                                000000000010000                            
50000510201808102018081302004232             PES0000010000A139912018081010000029                                                
6000902004232000278                                                                                                             
7PESE                                                                                000000000010000                            
50000610201808102018081350007420             PES0000003000A230672018081010030036                                                
6000950007420000237                                                                                                             
7PESE                                                                                000000000003000                            
50000710201808102018081302002153             PES0000020000A123872018081009380024                                                
6000902002153000257                                                                                                             
7PESE                                                                                000000000020000                            
50000810201808102018081324316825             PES0000020000A253222018081009570005                                                
6000924316825000263                                                                                                             
7PESE                                                                                000000000020000                            
50000910201808102018081325119455             PES0000005000A284242018081009030007                                                
6000925119455000279                                                                                                             
7PESE                                                                                000000000005000                            
50001010201808102018081300023615             PES0000100000A101712018081010460067                                                
6000900023615000284                                                                                                             
7PESE                                                                                000000000100000                            
50001110201808102018081325116614             PES0000030000A150252018081009470014                                                
6000925116614000237                                                                                                             
7PESE                                                                                000000000030000                            
50001210201808102018081300017235             PES0000050000A089982018081010210009                                                
6000900017235000216                                                                                                             
7PESE                                                                                000000000050000                            
50001310201808102018081300018447             PES0000010000A276742018081011000090                                                
6000900018447000284                                                                                                             
7PESE                                                                                000000000010000                            
50001410201808102018081325219484             PES0000010000A071842018081011020055                                                
6000925219484000242                                                                                                             
7PESE                                                                                000000000010000                            
50001510201808102018081300023794             PES0000025000A031402018081011290024                                                
6000900023794000263                                                                                                             
7PESE                                                                                000000000025000                            
50001610201808102018081300025575             PES0000010000A219652018081010520042                                                
6000900025575000200                                                                                                             
7PESE                                                                                000000000010000                            
50001710201808102018081325123844             PES0000060000A127812018081010310005                                                
6000925123844000242                                                                                                             
7PESE                                                                                000000000060000                            
50001810201808102018081300018522             PES0000020000A197162018081010050032                                                
6000900018522000279                                                                                                             
7PESE                                                                                000000000020000                            
50001910201808102018081325222885             PES0000010000A145382018081009480011                                                
6000925222885000258                                                                                                             
7PESE                                                                                000000000010000                            
50002010201808102018081325122885             PES0000010000A145382018081009480012                                                
6000925122885000236                                                                                                             
7PESE                                                                                000000000010000                            
50002110201808102018081324221839             PES0000015000A227742018081010290002                                                
6000924221839000215                                                                                                             
7PESE                                                                                000000000015000                            
50002210201808102018081325115606             PES0000015000A080062018081011440062                                                
6000925115606000237                                                                                                             
7PESE                                                                                000000000015000                            
50002310201808102018081302004962             PES0000005000A259872018081010080018                                                
6000902004962000257                                                                                                             
7PESE                                                                                000000000005000                            
50002410201808102018081325204652             PES0000005000A146132018081009330002                                                
6000925204652000263                                                                                                             
7PESE                                                                                000000000005000                            
50002510201808102018081302004227             PES0000020000A182942018081011520066                                                
6000902004227000221                                                                                                             
7PESE                                                                                000000000020000                            
50002610201808102018081300017675             PES0000015000A288612018081011160002                                                
6000900017675000279                                                                                                             
7PESE                                                                                000000000015000                            
50002710201808102018081324309711             PES0000050000A045632018081010440055                                                
6000924309711000284                                                                                                             
7PESE                                                                                000000000050000                            
50002810201808102018081350010691             PES0000010000A204382018081011050009                                                
6000950010691000290                                                                                                             
7PESE                                                                                000000000010000                            
50002910201808102018081322923242             PES0000010000A144182018081011450058                                                
6000922923242000237                                                                                                             
7PESE                                                                                000000000010000                            
50003010201808102018081322015229             PES0000014000A139912018081011080021                                                
6000922015229000263                                                                                                             
7PESE                                                                                000000000014000                            
50003110201808102018081300007687             PES0000020000A188102018081011420001                                                
6000900007687000237                                                                                                             
7PESE                                                                                000000000020000                            
50003210201808102018081300023630             PES0000050000A127812018081011560016                                                
6000900023630000258                                                                                                             
7PESE                                                                                000000000050000                            
50003310201808102018081300015749             PES0000050000A122692018081011350013                                                
6000900015749000263                                                                                                             
7PESE                                                                                000000000050000                            
50003410201808102018081302003333             PES0000005000A166652018081012260037                                                
6000902003333000279                                                                                                             
7PESE                                                                                000000000005000                            
50003510201808102018081300023761             PES0000350000A263632018081009530009                                                
6000900023761000284                                                                                                             
7PESE                                                                                000000000350000                            
50003610201808102018081350015262             PES0000030000A177472018081012040047                                                
6000950015262000221                                                                                                             
7PESE                                                                                000000000030000                            
50003710201808102018081300023511             PES0000010000D007912018081011450110                                                
6000900023511000221                                                                                                             
7PESE                                                                                000000000010000                            
50003810201808102018081350006205             PES0000010000A262362018081010160004                                                
6000950006205000284                                                                                                             
7PESE                                                                                000000000010000                            
50003910201808102018081325020011             PES0000020000A222692018081012250052                                                
6000925020011000284                                                                                                             
7PESP                                                                                000000000020000                            
50004010201808102018081350010785             PES0000030000D002102018081010580079                                                
6000950010785000221                                                                                                             
7PESE                                                                                000000000030000                            
50004110201808102018081325118749             PES0000014500A155002018081012460060                                                
6000925118749000299                                                                                                             
7PESE                                                                                000000000014500                            
50004210201808102018081300014562             PES0000020000A220682018081012100024                                                
6000900014562000290                                                                                                             
7PESE                                                                                000000000020000                            
50004310201808102018081300012424             PES0000050000A081062018081012330021                                                
6000900012424000263                                                                                                             
7PESE                                                                                000000000050000                            
50004410201808102018081325120303             PES0000020000A220692018081012470056                                                
6000925120303000290                                                                                                             
7PESP                                                                                000000000020000                            
50004510201808102018081350012419             PES0000030000A222632018081013120028                                                
6000950012419000237                                                                                                             
7PESE                                                                                000000000030000                            
50004610201808102018081300022791             PES0000050000A145382018081013120040                                                
6000900022791000215                                                                                                             
7PESE                                                                                000000000050000                            
50004710201808102018081300020547             PES0000015000A288602018081012220015                                                
6000900020547000279                                                                                                             
7PESE                                                                                000000000015000                            
50004810201808102018081325011271             PES0000012585A122672018081012580040                                                
6000925011271000278                                                                                                             
7PESE                                                                                000000000012585                            
50004910201808102018081325105721             PES0000004000A153862018081012380042                                                
6000925105721000299                                                                                                             
7PESE                                                                                000000000004000                            
50005010201808102018081350007286             PES0000020000A149472018081012370014                                                
6000950007286000263                                                                                                             
7PESE                                                                                000000000020000                            
50005110201808102018081300005270             PES0000060000A094782018081012240037                                                
6000900005270000216                                                                                                             
7PESE                                                                                000000000060000                            
50005210201808102018081325118378             PES0000030200A103002018081013210001                                                
6000925118378000278                                                                                                             
7PESE                                                                                000000000030200                            
50005310201808102018081325204184             PES0000010000A182942018081012380021                                                
6000925204184000237                                                                                                             
7PESE                                                                                000000000010000                            
50005410201808102018081350010683             PES0000003000A175122018081011100015                                                
6000950010683000242                                                                                                             
7PESE                                                                                000000000003000                            
50005510201808102018081325205230             PES0000010000A188192018081014030023                                                
6000925205230000236                                                                                                             
7PESE                                                                                000000000010000                            
50005610201808102018081300023581             PES0000042500A177532018081013570030                                                
6000900023581000200                                                                                                             
7PESE                                                                                000000000042500                            
50005710201808102018081324714508             PES0000008592A008222018081014040025                                                
6000924714508000284                                                                                                             
7PESE                                                                                000000000008592                            
50005810201808102018081300025751             PES0000020000A120082018081014480030                                                
6000900025751000242                                                                                                             
7PESE                                                                                000000000020000                            
50005910201808102018081300012668             PES0000020000A137632018081014500041                                                
6000900012668000236                                                                                                             
7PESE                                                                                000000000020000                            
50006010201808102018081325012668             PES0000020000A137632018081014470039                                                
6000925012668000290                                                                                                             
7PESE                                                                                000000000020000                            
50006110201808102018081350015327             PES0000030000A166652018081014340020                                                
6000950015327000215                                                                                                             
7PESE                                                                                000000000030000                            
50006210201808102018081325215960             PES0000005000A070462018081015260009                                                
6000925215960000242                                                                                                             
7PESE                                                                                000000000005000                            
50006310201808102018081300020221             PES0000030000A033762018081014480001                                                
6000900020221000278                                                                                                             
7PESE                                                                                000000000030000                            
50006410201808102018081300023177             PES0000006500A188912018081014470012                                                
6000900023177000221                                                                                                             
7PESE                                                                                000000000006500                            
50006510201808102018081300018095             PES0000010000A040552018081016130035                                                
6000900018095000284                                                                                                             
7PESE                                                                                000000000010000                            
50006610201808102018081350007422             PES0000010000D003802018081010290047                                                
6000950007422000200                                                                                                             
7PESE                                                                                000000000010000                            
50006710201808102018081300017929             PES0000027500A199142018081011460042                                                
6000900017929000237                                                                                                             
7PESE                                                                                000000000027500                            
50006810201808102018081325214864             PES0000010000D001732018081011330071                                                
6000925214864000221                                                                                                             
7PESE                                                                                000000000010000                            
50006910201808102018081325114864             PES0000010000D001732018081011330072                                                
6000925114864000200                                                                                                             
7PESE                                                                                000000000010000                            
50007010201808102018081300022540             PES0000030000A145372018081016100018                                                
6000900022540000221                                                                                                             
7PESE                                                                                000000000030000                            
50007110201808102018081324819549             PES0000025000A033762018081017190043                                                
6000924819549000263                                                                                                             
7PESE                                                                                000000000025000                            
50007210201808102018081350007568             PES0000020000A158442018081017520028                                                
6000950007568000236                                                                                                             
7PESE                                                                                000000000020000                            
50007310201808102018081300022982             PES0000010000D009882018081011420073                                                
6000900022982000257                                                                                                             
7PESE                                                                                000000000010000                            
50007410201808102018081325208365             PES0000010000A099982018081016310023                                                
6000925208365000236                                                                                                             
7PESE                                                                                000000000010000                            
50007510201808102018081300020751             PES0000010000D005142018081014210117                                                
6000900020751000221                                                                                                             
7PESE                                                                                000000000010000                            
50007610201808102018081325210307             PES0000007000A048012018081017060051                                                
6000925210307000221                                                                                                             
7PESE                                                                                000000000007000                            
50007710201808102018081325110478             PES0000050000D005412018081009510051                                                
6000925110478000221                                                                                                             
7PESE                                                                                000000000050000                            
50007810201808102018081325110478             PES0000100000D005412018081009510050                                                
6000925110478000221                                                                                                             
7PESE                                                                                000000000100000                            
50007910201808102018081325206296             PES0000008000D005412018081011410147                                                
6000925206296000237                                                                                                             
7PESE                                                                                000000000008000                            
50008010201808102018081311312590             PES0000052000D009772018081016150145                                                
6000911312590000242                                                                                                             
7PESE                                                                                000000000052000                            
50008110201808102018081302004832             PES0000050000D005752018081015190095                                                
6000902004832000263                                                                                                             
7PESE                                                                                000000000050000                            
50008210201808102018081350011425             PES0000050000A014732018081010550022                                                
6000950011425000279                                                                                                             
7PESE                                                                                000000000050000                            
50008310201808102018081325106229             PES0000015300D000292018081012160127                                                
6000925106229000242                                                                                                             
7PESE                                                                                000000000015300                            
50008410201808102018081300025342             PES0000060000A076782018081017570033                                                
6000900025342000290                                                                                                             
7PESE                                                                                000000000060000                            
50008510201808102018081325117109             PES0000030000D005132018081012440153                                                
6000925117109000258                                                                                                             
7PESE                                                                                000000000030000                            
50008610201808102018081300016041             PES0000200000A164932018081017360014                                                
6000900016041000221                                                                                                             
7PESE                                                                                000000000200000                            
50008710201808102018081350009377             PES0000050000A232842018081016240009                                                
6000950009377000284                                                                                                             
7PESE                                                                                000000000050000                            
50008810201808102018081300009850             PES0000010000A075792018081018430047                                                
6000900009850000237                                                                                                             
7PESE                                                                                000000000010000                            
50008910201808102018081300020002             PES0000035000A255082018081017430034                                                
6000900020002000221                                                                                                             
7PESE                                                                                000000000035000                            
50009010201808102018081325117878             PES0000010000A206262018081012410065                                                
6000925117878000200                                                                                                             
7PESE                                                                                000000000010000                            
50009110201808102018081350009677             PES0000010000A088382018081018480063                                                
6000950009677000221                                                                                                             
7PESE                                                                                000000000010000                            
50009210201808102018081325219282             PES0000020000D002752018081016460073                                                
6000925219282000242                                                                                                             
7PESE                                                                                000000000020000                            
50009310201808102018081300010818             PES0000050000D001632018081014150111                                                
6000900010818000242                                                                                                             
7PESE                                                                                000000000050000                            
50009410201808102018081325101707             PES0000010000A213112018081017550030                                                
6000925101707000278                                                                                                             
7PESE                                                                                000000000010000                            
50009510201808102018081302004368             PES0000030000A124612018081016490028                                                
6000902004368000278                                                                                                             
7PESE                                                                                000000000030000                            
50009610201808102018081325116550             PES0000004000A161432018081018080024                                                
6000925116550000284                                                                                                             
7PESE                                                                                000000000004000                            
50009710201808102018081325108321             PES0000005000A214682018081018560003                                                
6000925108321000263                                                                                                             
7PESE                                                                                000000000005000                            
50009810201808102018081325207623             PES0000015000A136802018081018380034                                                
6000925207623000263                                                                                                             
7PESE                                                                                000000000015000                            
50009910201808102018081350007646             PES0000013000A112372018081012170024                                                
6000950007646000221                                                                                                             
7PESE                                                                                000000000013000                            
50010010201808102018081325104377             PES0000008000A086812018081019150040                                                
6000925104377000221                                                                                                             
7PESE                                                                                000000000008000                            
50010110201808102018081325206776             PES0000030000A127982018081020370059                                                
6000925206776000263                                                                                                             
7PESE                                                                                000000000030000                            
50010210201808102018081302003434             PES0000020000A012652018081019010092                                                
6000902003434000221                                                                                                             
7PESE                                                                                000000000020000                            
50010310201808102018081350008373             PES0000100000D010082018081017500036                                                
6000950008373000290                                                                                                             
7PESE                                                                                000000000100000                            
50010410201808102018081318418907             PES0000010000D005952018081019290211                                                
6000918418907000221                                                                                                             
7PESE                                                                                000000000010000                            
50010510201808102018081325123610             PES0000020000M601152018081011130015                                                
6000925123610000290                                                                                                             
7PESE                                                                                000000000020000                            
50010610201808102018081300002579             PES0000010000M600542018081017070028                                                
6000900002579000242                                                                                                             
7PESE                                                                                000000000010000                            
50010710201808102018081325214046             PES0000020000M600102018081011460028                                                
6000925214046000221                                                                                                             
7PESE                                                                                000000000020000                            
50010810201808112018081325207083             PES0000020000A137082018081110510040                                                
6000925207083000221                                                                                                             
7PESE                                                                                000000000020000                            
50010910201808112018081325108251             PES0000005000A146892018081110290067                                                
6000925108251000221                                                                                                             
7PESE                                                                                000000000005000                            
50011010201808112018081300013311             PES0000020000A184912018081110440037                                                
6000900013311000263                                                                                                             
7PESE                                                                                000000000020000                            
50011110201808112018081325210550             PES0000010000A089982018081111050043                                                
6000925210550000237                                                                                                             
7PESE                                                                                000000000010000                            
50011210201808112018081300021046             PES0000020000A149202018081112030090                                                
6000900021046000215                                                                                                             
7PESE                                                                                000000000020000                            
50011310201808112018081300020953             PES0000015000A087222018081110490031                                                
6000900020953000221                                                                                                             
7PESE                                                                                000000000015000                            
50011410201808112018081325123420             PES0000020000A167562018081111290015                                                
6000925123420000299                                                                                                             
7PESE                                                                                000000000020000                            
50011510201808112018081325205107             PES0000020000D008302018081111190075                                                
6000925205107000284                                                                                                             
7PESE                                                                                000000000020000                            
50011610201808112018081300023308             PES0000050000A134582018081112180093                                                
6000900023308000216                                                                                                             
7PESE                                                                                000000000050000                            
50011710201808112018081325219541             PES0000021430D005392018081110240044                                                
6000925219541000257                                                                                                             
7PESE                                                                                000000000021430                            
50011810201808112018081302001435             PES0000050000D008862018081112020059                                                
6000902001435000278                                                                                                             
7PESE                                                                                000000000050000                            
50011910201808112018081300005505             PES0000003000A282502018081110300030                                                
6000900005505000263                                                                                                             
7PESE                                                                                000000000003000                            
50012010201808112018081325214631             PES0000200000D000062018081112240102                                                
6000925214631000216                                                                                                             
7PESE                                                                                000000000200000                            
50012110201808112018081325103791             PES0000020000D005752018081112320128                                                
6000925103791000279                                                                                                             
7PESP                                                                                000000000020000                            
50012210201808112018081325203791             PES0000020000D005752018081112320127                                                
6000925203791000200                                                                                                             
7PESP                                                                                000000000020000                            
50012310201808112018081325207700             PES0000020000D000082018081111370057                                                
6000925207700000221                                                                                                             
7PESE                                                                                000000000020000                            
50012410201808112018081325114475             PES0000020000D000082018081111360056                                                
6000925114475000200                                                                                                             
7PESE                                                                                000000000020000                            
50012510201808112018081300021988             PES0000030000A141912018081112150009                                                
6000900021988000216                                                                                                             
7PESE                                                                                000000000030000                            
50012610201808112018081300025932             PES0000010000A089982018081112270034                                                
6000900025932000263                                                                                                             
7PESE                                                                                000000000010000                            
50012710201808112018081325110589             PES0000020000A086812018081112290050                                                
6000925110589000200                                                                                                             
7PESE                                                                                000000000020000                            
50012810201808112018081325122566             PES0000010000A145322018081110090020                                                
6000925122566000278                                                                                                             
7PESE                                                                                000000000010000                            
50012910201808112018081302003887             PES0000005000A031192018081112010032                                                
6000902003887000216                                                                                                             
7PESE                                                                                000000000005000                            
50013010201808112018081322905853             PES0000006000D008192018081109140004                                                
6000922905853000200                                                                                                             
7PESE                                                                                000000000006000                            
50013110201808112018081325202140             PES0000210000A070462018081111520037                                                
6000925202140000200                                                                                                             
7PESP                                                                                000000000210000                            
50013210201808112018081300018535             PES0000020000A029312018081112450047                                                
6000900018535000200                                                                                                             
7PESE                                                                                000000000020000                            
50013310201808112018081350010029             PES0000050000A214762018081112480082                                                
6000950010029000215                                                                                                             
7PESE                                                                                000000000050000                            
50013410201808112018081300020573             PES0000040000A290032018081111420023                                                
6000900020573000215                                                                                                             
7PESE                                                                                000000000040000                            
50013510201808112018081325207108             PES0000005000A220672018081110320006                                                
6000925207108000215                                                                                                             
7PESE                                                                                000000000005000                            
50013610201808112018081300019915             PES0000010000A220792018081111130023                                                
6000900019915000263                                                                                                             
7PESE                                                                                000000000010000                            
50013710201808112018081325210011             PES0000015000A099982018081112530074                                                
6000925210011000290                                                                                                             
7PESE                                                                                000000000015000                            
50013810201808112018081325210987             PES0000010000A099982018081111340056                                                
6000925210987000216                                                                                                             
7PESE                                                                                000000000010000                            
50013910201808112018081300012595             PES0000009000A100002018081112120028                                                
6000900012595000284                                                                                                             
7PESE                                                                                000000000009000                            
50014010201808112018081325103691             PES0000020000A285052018081113170051                                                
6000925103691000263                                                                                                             
7PESE                                                                                000000000020000                            
50014110201808112018081325213983             PES0000030000A188902018081112410032                                                
6000925213983000215                                                                                                             
7PESE                                                                                000000000030000                            
50014210201808112018081325111323             PES0000010000A205372018081113400011                                                
6000925111323000258                                                                                                             
7PESE                                                                                000000000010000                            
50014310201808112018081300010622             PES0000020000A116192018081111190026                                                
6000900010622000236                                                                                                             
7PESE                                                                                000000000020000                            
50014410201808112018081325201571             PES0000015000D004372018081109390037                                                
6000925201571000236                                                                                                             
7PESE                                                                                000000000015000                            
50014510201808112018081325218646             PES0000010000D001732018081110130040                                                
6000925218646000290                                                                                                             
7PESE                                                                                000000000010000                            
50014610201808112018081300020551             PES0000010000D006472018081111340232                                                
6000900020551000299                                                                                                             
7PESP                                                                                000000000010000                            
50014710201808112018081325218511             PES0000020000A263522018081114250065                                                
6000925218511000236                                                                                                             
7PESE                                                                                000000000020000                            
50014810201808112018081325204750             PES0000020000D003462018081112420106                                                
6000925204750000215                                                                                                             
7PESE                                                                                000000000020000                            
50014910201808112018081325000636             PES0000020000D003462018081110370027                                                
6000925000636000221                                                                                                             
7PESE                                                                                000000000020000                            
50015010201808112018081325205174             PES0000070000A153892018081109020030                                                
6000925205174000258                                                                                                             
7PESE                                                                                000000000070000                            
50015110201808112018081300022905             PES0000020000A174992018081113210012                                                
6000900022905000258                                                                                                             
7PESE                                                                                000000000020000                            
50015210201808112018081300022322             PES0000020000A174982018081113030057                                                
6000900022322000215                                                                                                             
7PESE                                                                                000000000020000                            
50015310201808112018081300016941             PES0000005000D010082018081110520017                                                
6000900016941000263                                                                                                             
7PESE                                                                                000000000005000                            
50015410201808112018081300025015             PES0000010000L192352018081112306684                                                
6000900025015000284                                                                                                             
7PESE                                                                                000000000010000                            
50015510201808112018081325112596             PES0000010000L193422018081119013086                                                
6000925112596000215                                                                                                             
7PESE                                                                                000000000010000                            
50015610201808112018081325110597             PES0000070000A260932018081114500088                                                
6000925110597000258                                                                                                             
7PESE                                                                                000000000070000                            
50015710201808122018081300019014             PES0000020000D006112018081212440220                                                
6000900019014000299                                                                                                             
7PESE                                                                                000000000020000                            
50015810201808122018081300022317             PES0000035000A166402018081219410049                                                
6000900022317000263                                                                                                             
7PESE                                                                                000000000035000                            
50015910201808122018081325115237             PES0000060000D005312018081212170124                                                
6000925115237000284                                                                                                             
7PESE                                                                                000000000060000                            
50016010201808122018081325217446             PES0000010000A253392018081212540067                                                
6000925217446000221                                                                                                             
7PESE                                                                                000000000010000                            
50016110201808122018081350011959             PES0000015000D005362018081215370226                                                
6000950011959000263                                                                                                             
7PESE                                                                                000000000015000                            
82018081300000100001610000044851070000000000000000000000000000000000000000161                                                   
9201808130000010000161000004485107000000000000000000000000000000000000000000161                                                 
