120180814PAGO FACIL               090060009INS. SALESIANA SAN FCO. JAVIER-ASOC                                                  
320180814000001INS. SALESIANA SAN FCO. JAVIER-ASOC                                                                              
50000110201808132018081400008772             PES0000020000A128792018081312130032                                                
6000900008772000290                                                                                                             
7PESE                                                                                000000000020000                            
50000210201808132018081400009072             PES0000005000A274202018081314030064                                                
6000900009072000237                                                                                                             
7PESE                                                                                000000000005000                            
50000310201808132018081400009263             PES0000005000A160512018081317130031                                                
6000900009263000279                                                                                                             
7PESE                                                                                000000000005000                            
50000410201808132018081400009850             PES0000007000A075792018081310050046                                                
6000900009850000237                                                                                                             
7PESE                                                                                000000000007000                            
50000510201808132018081400010693             PES0000025000A284232018081310500094                                                
6000900010693000242                                                                                                             
7PESE                                                                                000000000025000                            
50000610201808132018081400011043             PES0000005000A214452018081312490052                                                
6000900011043000278                                                                                                             
7PESE                                                                                000000000005000                            
50000710201808132018081400012199             PES0000005000A160512018081317130030                                                
6000900012199000263                                                                                                             
7PESE                                                                                000000000005000                            
50000810201808132018081400012221             PES0000030000L191042018081313497080                                                
6000900012221000221                                                                                                             
7PESE                                                                                000000000030000                            
50000910201808132018081400012695             PES0000005000A141302018081313350035                                                
6000900012695000200                                                                                                             
7PESE                                                                                000000000005000                            
50001010201808132018081400012976             PES0000020000A158372018081309210029                                                
6000900012976000236                                                                                                             
7PESE                                                                                000000000020000                            
50001110201808132018081400015530             PES0000025000A135422018081311120029                                                
6000900015530000290                                                                                                             
7PESE                                                                                000000000025000                            
50001210201808132018081400015921             PES0000020000A164202018081312190025                                                
6000900015921000263                                                                                                             
7PESE                                                                                000000000020000                            
50001310201808132018081400015982             PES0000030000A253222018081311200011                                                
6000900015982000257                                                                                                             
7PESE                                                                                000000000030000                            
50001410201808132018081400017429             PES0000030000D008012018081311040101                                                
6000900017429000263                                                                                                             
7PESE                                                                                000000000030000                            
50001510201808132018081400017815             PES0000010000D006252018081315220018                                                
6000900017815000258                                                                                                             
7PESE                                                                                000000000010000                            
50001610201808132018081400018159             PES0000010000A064992018081311540003                                                
6000900018159000237                                                                                                             
7PESE                                                                                000000000010000                            
50001710201808132018081400019340             PES0000015000A152492018081310350009                                                
6000900019340000278                                                                                                             
7PESE                                                                                000000000015000                            
50001810201808132018081400019617             PES0000020000L190792018081312467029                                                
6000900019617000284                                                                                                             
7PESE                                                                                000000000020000                            
50001910201808132018081400019921             PES0000005000D003792018081311360172                                                
6000900019921000242                                                                                                             
7PESP                                                                                000000000005000                            
50002010201808132018081400020178             PES0000035000A162372018081316270071                                                
6000900020178000221                                                                                                             
7PESE                                                                                000000000035000                            
50002110201808132018081400020297             PES0000020000A273762018081314230069                                                
6000900020297000258                                                                                                             
7PESE                                                                                000000000020000                            
50002210201808132018081400021103             PES0000030000A051542018081310400072                                                
6000900021103000221                                                                                                             
7PESE                                                                                000000000030000                            
50002310201808132018081400021304             PES0000012000A126412018081319370068                                                
6000900021304000284                                                                                                             
7PESP                                                                                000000000012000                            
50002410201808132018081400021740             PES0000015000A288862018081315470015                                                
6000900021740000200                                                                                                             
7PESE                                                                                000000000015000                            
50002510201808132018081400021796             PES0000020000D009832018081313330033                                                
6000900021796000242                                                                                                             
7PESE                                                                                000000000020000                            
50002610201808132018081400022370             PES0000020000M800002018081318140058                                                
6000900022370000263                                                                                                             
7PESE                                                                                000000000020000                            
50002710201808132018081400022418             PES0000060000A056382018081311030032                                                
6000900022418000215                                                                                                             
7PESE                                                                                000000000060000                            
50002810201808132018081400022579             PES0000013000M600282018081311550055                                                
6000900022579000215                                                                                                             
7PESE                                                                                000000000013000                            
50002910201808132018081400022961             PES0000150000A127762018081313410055                                                
6000900022961000263                                                                                                             
7PESE                                                                                000000000150000                            
50003010201808132018081400024220             PES0000030000D000072018081316560262                                                
6000900024220000216                                                                                                             
7PESE                                                                                000000000030000                            
50003110201808132018081400024316             PES0000005000D003792018081311360171                                                
6000900024316000216                                                                                                             
7PESP                                                                                000000000005000                            
50003210201808132018081400025373             PES0000020000A104622018081316360011                                                
6000900025373000200                                                                                                             
7PESE                                                                                000000000020000                            
50003310201808132018081402000384             PES0000004854A660212018081309010060                                                
6000902000384000200                                                                                                             
7PESE                                                                                000000000004854                            
50003410201808132018081402001603             PES0000025000A200982018081317330034                                                
6000902001603000258                                                                                                             
7PESE                                                                                000000000025000                            
50003510201808132018081402002254             PES0000010000A214432018081313540029                                                
6000902002254000200                                                                                                             
7PESE                                                                                000000000010000                            
50003610201808132018081402003784             PES0000030000A750072018081311520037                                                
6000902003784000290                                                                                                             
7PESE                                                                                000000000030000                            
50003710201808132018081402003994             PES0000080000A129302018081310370012                                                
6000902003994000257                                                                                                             
7PESE                                                                                000000000080000                            
50003810201808132018081402005288             PES0000030000A158372018081310100014                                                
6000902005288000257                                                                                                             
7PESE                                                                                000000000030000                            
50003910201808132018081414115959             PES0000006000A070462018081317000028                                                
6000914115959000257                                                                                                             
7PESE                                                                                000000000006000                            
50004010201808132018081422919366             PES0000020000D004292018081317530128                                                
6000922919366000279                                                                                                             
7PESE                                                                                000000000020000                            
50004110201808132018081423724028             PES0000030000D005452018081312460168                                                
6000923724028000279                                                                                                             
7PESE                                                                                000000000030000                            
50004210201808132018081423813005             PES0000015000A033762018081316430019                                                
6000923813005000263                                                                                                             
7PESE                                                                                000000000015000                            
50004310201808132018081424116942             PES0000010000A113132018081311340023                                                
6000924116942000278                                                                                                             
7PESE                                                                                000000000010000                            
50004410201808132018081424303310             PES0000025000D000052018081315160150                                                
6000924303310000216                                                                                                             
7PESE                                                                                000000000025000                            
50004510201808132018081424315884             PES0000011000A153182018081319550017                                                
6000924315884000236                                                                                                             
7PESE                                                                                000000000011000                            
50004610201808132018081424316988             PES0000010000A253252018081312450082                                                
6000924316988000236                                                                                                             
7PESE                                                                                000000000010000                            
50004710201808132018081424422959             PES0000010000A127772018081313320010                                                
6000924422959000278                                                                                                             
7PESE                                                                                000000000010000                            
50004810201808132018081424423104             PES0000020000A018912018081316360001                                                
6000924423104000290                                                                                                             
7PESE                                                                                000000000020000                            
50004910201808132018081424707499             PES0000015000A130812018081311250049                                                
6000924707499000221                                                                                                             
7PESE                                                                                000000000015000                            
50005010201808132018081424720241             PES0000015000L194762018081311250215                                                
6000924720241000242                                                                                                             
7PESE                                                                                000000000015000                            
50005110201808132018081424804767             PES0000050000D003462018081318240071                                                
6000924804767000216                                                                                                             
7PESE                                                                                000000000050000                            
50005210201808132018081425011615             PES0000010000A158442018081312350042                                                
6000925011615000221                                                                                                             
7PESE                                                                                000000000010000                            
50005310201808132018081425012812             PES0000010000D000042018081309530026                                                
6000925012812000299                                                                                                             
7PESE                                                                                000000000010000                            
50005410201808132018081425013371             PES0000005000A166652018081312080049                                                
6000925013371000279                                                                                                             
7PESE                                                                                000000000005000                            
50005510201808132018081425105443             PES0000010000D002202018081311510138                                                
6000925105443000263                                                                                                             
7PESE                                                                                000000000010000                            
50005610201808132018081425106318             PES0000020000A213502018081316240013                                                
6000925106318000290                                                                                                             
7PESE                                                                                000000000020000                            
50005710201808132018081425108805             PES0000014300A043992018081315560094                                                
6000925108805000236                                                                                                             
7PESE                                                                                000000000014300                            
50005810201808132018081425110320             PES0000020000A071842018081313500003                                                
6000925110320000200                                                                                                             
7PESE                                                                                000000000020000                            
50005910201808132018081425111183             PES0000020000A031192018081315020052                                                
6000925111183000279                                                                                                             
7PESE                                                                                000000000020000                            
50006010201808132018081425111338             PES0000020000A122672018081314200031                                                
6000925111338000258                                                                                                             
7PESE                                                                                000000000020000                            
50006110201808132018081425111402             PES0000009500A049722018081315370064                                                
6000925111402000284                                                                                                             
7PESE                                                                                000000000009500                            
50006210201808132018081425111716             PES0000020000A150252018081311210004                                                
6000925111716000290                                                                                                             
7PESE                                                                                000000000020000                            
50006310201808132018081425111913             PES0000020000A214452018081310110024                                                
6000925111913000221                                                                                                             
7PESE                                                                                000000000020000                            
50006410201808132018081425112127             PES0000100000A100002018081314050056                                                
6000925112127000215                                                                                                             
7PESE                                                                                000000000100000                            
50006510201808132018081425112283             PES0000014300A188912018081314030004                                                
6000925112283000237                                                                                                             
7PESE                                                                                000000000014300                            
50006610201808132018081425113371             PES0000010000A166652018081312080048                                                
6000925113371000200                                                                                                             
7PESE                                                                                000000000010000                            
50006710201808132018081425114172             PES0000012000A088382018081311530044                                                
6000925114172000257                                                                                                             
7PESE                                                                                000000000012000                            
50006810201808132018081425114910             PES0000005000A289092018081311010008                                                
6000925114910000257                                                                                                             
7PESE                                                                                000000000005000                            
50006910201808132018081425115751             PES0000009500A220792018081311290027                                                
6000925115751000200                                                                                                             
7PESE                                                                                000000000009500                            
50007010201808132018081425117741             PES0000020000A092382018081315480086                                                
6000925117741000263                                                                                                             
7PESE                                                                                000000000020000                            
50007110201808132018081425118226             PES0000040000D001472018081312510136                                                
6000925118226000263                                                                                                             
7PESE                                                                                000000000040000                            
50007210201808132018081425119210             PES0000005000D004892018081313370202                                                
6000925119210000278                                                                                                             
7PESE                                                                                000000000005000                            
50007310201808132018081425119302             PES0000010000D005392018081312190166                                                
6000925119302000236                                                                                                             
7PESE                                                                                000000000010000                            
50007410201808132018081425119528             PES0000010000A085342018081318330041                                                
6000925119528000221                                                                                                             
7PESE                                                                                000000000010000                            
50007510201808132018081425122747             PES0000009500A146582018081316000035                                                
6000925122747000284                                                                                                             
7PESE                                                                                000000000009500                            
50007610201808132018081425123018             PES0000014300A127822018081312060004                                                
6000925123018000284                                                                                                             
7PESE                                                                                000000000014300                            
50007710201808132018081425123870             PES0000005000D002012018081309500002                                                
6000925123870000279                                                                                                             
7PESE                                                                                000000000005000                            
50007810201808132018081425124220             PES0000010000D000072018081316560263                                                
6000925124220000200                                                                                                             
7PESE                                                                                000000000010000                            
50007910201808132018081425200418             PES0000020000A179532018081310230052                                                
6000925200418000263                                                                                                             
7PESE                                                                                000000000020000                            
50008010201808132018081425202293             PES0000020000D008662018081309070005                                                
6000925202293000257                                                                                                             
7PESP                                                                                000000000020000                            
50008110201808132018081425203294             PES0000007000D006012018081310370050                                                
6000925203294000236                                                                                                             
7PESE                                                                                000000000007000                            
50008210201808132018081425203497             PES0000100000A193912018081315230046                                                
6000925203497000263                                                                                                             
7PESE                                                                                000000000100000                            
50008310201808132018081425203547             PES0000020000A180472018081317410051                                                
6000925203547000258                                                                                                             
7PESE                                                                                000000000020000                            
50008410201808132018081425203611             PES0000010000A214452018081311230003                                                
6000925203611000284                                                                                                             
7PESE                                                                                000000000010000                            
50008510201808132018081425204214             PES0000010000D000082018081315500112                                                
6000925204214000279                                                                                                             
7PESE                                                                                000000000010000                            
50008610201808132018081425204666             PES0000020000A214362018081311560009                                                
6000925204666000236                                                                                                             
7PESE                                                                                000000000020000                            
50008710201808132018081425205409             PES0000007000D006012018081310370051                                                
6000925205409000200                                                                                                             
7PESE                                                                                000000000007000                            
50008810201808132018081425205443             PES0000010000D002202018081311520139                                                
6000925205443000299                                                                                                             
7PESE                                                                                000000000010000                            
50008910201808132018081425205973             PES0000008000D000292018081315180068                                                
6000925205973000242                                                                                                             
7PESE                                                                                000000000008000                            
50009010201808132018081425205994             PES0000002000A153862018081317560026                                                
6000925205994000221                                                                                                             
7PESE                                                                                000000000002000                            
50009110201808132018081425206532             PES0000010000D010352018081311540087                                                
6000925206532000299                                                                                                             
7PESE                                                                                000000000010000                            
50009210201808132018081425206953             PES0000020000D005762018081316420178                                                
6000925206953000237                                                                                                             
7PESE                                                                                000000000020000                            
50009310201808132018081425207492             PES0000010000A140462018081311230019                                                
6000925207492000278                                                                                                             
7PESE                                                                                000000000010000                            
50009410201808132018081425208187             PES0000010000A032972018081315520007                                                
6000925208187000221                                                                                                             
7PESE                                                                                000000000010000                            
50009510201808132018081425209135             PES0000004000A063842018081318160085                                                
6000925209135000278                                                                                                             
7PESE                                                                                000000000004000                            
50009610201808132018081425209183             PES0000012000D008462018081309440019                                                
6000925209183000221                                                                                                             
7PESE                                                                                000000000012000                            
50009710201808132018081425209597             PES0000010000A254952018081310420075                                                
6000925209597000257                                                                                                             
7PESE                                                                                000000000010000                            
50009810201808132018081425209706             PES0000010000D000072018081315360206                                                
6000925209706000221                                                                                                             
7PESE                                                                                000000000010000                            
50009910201808132018081425209749             PES0000030000D001732018081316550274                                                
6000925209749000221                                                                                                             
7PESE                                                                                000000000030000                            
50010010201808132018081425210094             PES0000003000A135242018081312540026                                                
6000925210094000200                                                                                                             
7PESE                                                                                000000000003000                            
50010110201808132018081425211182             PES0000010000A160362018081313080032                                                
6000925211182000263                                                                                                             
7PESE                                                                                000000000010000                            
50010210201808132018081425211201             PES0000025000D008012018081309520042                                                
6000925211201000242                                                                                                             
7PESE                                                                                000000000025000                            
50010310201808132018081425211716             PES0000030000A150252018081311210005                                                
6000925211716000221                                                                                                             
7PESE                                                                                000000000030000                            
50010410201808132018081425212207             PES0000010000D005312018081312130056                                                
6000925212207000200                                                                                                             
7PESE                                                                                000000000010000                            
50010510201808132018081425212271             PES0000020000A188902018081311210019                                                
6000925212271000263                                                                                                             
7PESE                                                                                000000000020000                            
50010610201808132018081425212812             PES0000010000D000042018081309540028                                                
6000925212812000242                                                                                                             
7PESE                                                                                000000000010000                            
50010710201808132018081425213344             PES0000005000A076782018081317260030                                                
6000925213344000258                                                                                                             
7PESE                                                                                000000000005000                            
50010810201808132018081425213660             PES0000020000M600452018081311030009                                                
6000925213660000215                                                                                                             
7PESE                                                                                000000000020000                            
50010910201808132018081425213976             PES0000006000A180902018081314500082                                                
6000925213976000299                                                                                                             
7PESE                                                                                000000000006000                            
50011010201808132018081425214250             PES0000030000A150232018081310070026                                                
6000925214250000278                                                                                                             
7PESE                                                                                000000000030000                            
50011110201808132018081425214329             PES0000005000A097432018081312410021                                                
6000925214329000221                                                                                                             
7PESE                                                                                000000000005000                            
50011210201808132018081425214792             PES0000010000A031192018081312300032                                                
6000925214792000216                                                                                                             
7PESE                                                                                000000000010000                            
50011310201808132018081425214798             PES0000040000A150232018081312350028                                                
6000925214798000221                                                                                                             
7PESE                                                                                000000000040000                            
50011410201808132018081425214838             PES0000010000A179532018081311500024                                                
6000925214838000299                                                                                                             
7PESE                                                                                000000000010000                            
50011510201808132018081425214967             PES0000010000A014732018081310520022                                                
6000925214967000242                                                                                                             
7PESE                                                                                000000000010000                            
50011610201808132018081425215530             PES0000020000A135422018081311120028                                                
6000925215530000215                                                                                                             
7PESE                                                                                000000000020000                            
50011710201808132018081425215708             PES0000010000A142782018081309560027                                                
6000925215708000242                                                                                                             
7PESE                                                                                000000000010000                            
50011810201808132018081425215800             PES0000005000D010402018081316460164                                                
6000925215800000284                                                                                                             
7PESP                                                                                000000000005000                            
50011910201808132018081425216627             PES0000010000A175112018081313010143                                                
6000925216627000299                                                                                                             
7PESE                                                                                000000000010000                            
50012010201808132018081425217423             PES0000010000A142782018081311110018                                                
6000925217423000263                                                                                                             
7PESE                                                                                000000000010000                            
50012110201808132018081425217600             PES0000010000D008012018081314030003                                                
6000925217600000242                                                                                                             
7PESE                                                                                000000000010000                            
50012210201808132018081425218201             PES0000010000A164962018081310340065                                                
6000925218201000263                                                                                                             
7PESE                                                                                000000000010000                            
50012310201808132018081425218695             PES0000030000A182762018081316490018                                                
6000925218695000284                                                                                                             
7PESE                                                                                000000000030000                            
50012410201808132018081425218734             PES0000010000A130812018081310220050                                                
6000925218734000216                                                                                                             
7PESE                                                                                000000000010000                            
50012510201808132018081425218821             PES0000020000D005392018081312200169                                                
6000925218821000200                                                                                                             
7PESE                                                                                000000000020000                            
50012610201808132018081425219302             PES0000015000D005392018081312180164                                                
6000925219302000258                                                                                                             
7PESE                                                                                000000000015000                            
50012710201808132018081425220089             PES0000020000A063842018081317090018                                                
6000925220089000284                                                                                                             
7PESE                                                                                000000000020000                            
50012810201808132018081425222747             PES0000010000A146582018081316000034                                                
6000925222747000215                                                                                                             
7PESE                                                                                000000000010000                            
50012910201808132018081425223956             PES0000020000A153792018081312330013                                                
6000925223956000279                                                                                                             
7PESE                                                                                000000000020000                            
50013010201808132018081425225346             PES0000010000A114372018081312270003                                                
6000925225346000257                                                                                                             
7PESE                                                                                000000000010000                            
50013110201808132018081433005731             PES0000114500D001642018081311070063                                                
6000933005731000200                                                                                                             
7PESE                                                                                000000000114500                            
50013210201808132018081450005759             PES0000080000A063842018081318240093                                                
6000950005759000284                                                                                                             
7PESE                                                                                000000000080000                            
50013310201808132018081450006383             PES0000010000D009762018081314570006                                                
6000950006383000236                                                                                                             
7PESE                                                                                000000000010000                            
50013410201808132018081450006514             PES0000015000A048012018081312120046                                                
6000950006514000221                                                                                                             
7PESE                                                                                000000000015000                            
50013510201808132018081450007439             PES0000025000D001642018081313140110                                                
6000950007439000279                                                                                                             
7PESE                                                                                000000000025000                            
50013610201808132018081450008048             PES0000030000A121662018081312300047                                                
6000950008048000257                                                                                                             
7PESE                                                                                000000000030000                            
50013710201808132018081450009868             PES0000020000A136932018081312320050                                                
6000950009868000263                                                                                                             
7PESP                                                                                000000000020000                            
50013810201808132018081450010462             PES0000020000D010092018081314000084                                                
6000950010462000221                                                                                                             
7PESE                                                                                000000000020000                            
50013910201808132018081450010876             PES0000001745A046092018081319330018                                                
6000950010876000257                                                                                                             
7PESE                                                                                000000000001745                            
50014010201808132018081450011554             PES0000012900A284222018081311420050                                                
6000950011554000236                                                                                                             
7PESE                                                                                000000000012900                            
50014110201808132018081450011784             PES0000050000A063842018081316050067                                                
6000950011784000237                                                                                                             
7PESE                                                                                000000000050000                            
50014210201808132018081450012375             PES0000030000D001662018081309590098                                                
6000950012375000236                                                                                                             
7PESE                                                                                000000000030000                            
50014310201808132018081450012476             PES0000010000A076262018081317100024                                                
6000950012476000284                                                                                                             
7PESE                                                                                000000000010000                            
50014410201808132018081450012675             PES0000010000M601632018081316010059                                                
6000950012675000279                                                                                                             
7PESE                                                                                000000000010000                            
50014510201808132018081450012712             PES0000020000A180602018081312010006                                                
6000950012712000237                                                                                                             
7PESE                                                                                000000000020000                            
50014610201808132018081450014382             PES0000050000A602232018081314250057                                                
6000950014382000242                                                                                                             
7PESE                                                                                000000000050000                            
50014710201808132018081450015106             PES0000006000D000282018081311250020                                                
6000950015106000290                                                                                                             
7PESE                                                                                000000000006000                            
82018081400000100001470000029013990000000000000000000000000000000000000000147                                                   
9201808140000010000147000002901399000000000000000000000000000000000000000000147                                                 
