120180815PAGO FACIL               090060009INS. SALESIANA SAN FCO. JAVIER-ASOC                                                  
320180815000001INS. SALESIANA SAN FCO. JAVIER-ASOC                                                                              
50000110201808142018081500023124             PES0000050000A047792018081315080040                                                
6000900023124000290                                                                                                             
7PESE                                                                                000000000050000                            
50000210201808142018081500002731             PES0000010000D002332018081411350116                                                
6000900002731000299                                                                                                             
7PESE                                                                                000000000010000                            
50000310201808142018081500005681             PES0000010000A171822018081410500068                                                
6000900005681000237                                                                                                             
7PESE                                                                                000000000010000                            
50000410201808142018081500008870             PES0000010000M600532018081416310138                                                
6000900008870000242                                                                                                             
7PESE                                                                                000000000010000                            
50000510201808142018081500008974             PES0000020000D001632018081417510248                                                
6000900008974000290                                                                                                             
7PESE                                                                                000000000020000                            
50000610201808142018081500010401             PES0000010000A168562018081413480047                                                
6000900010401000216                                                                                                             
7PESE                                                                                000000000010000                            
50000710201808142018081500011143             PES0000020000A214442018081411150017                                                
6000900011143000284                                                                                                             
7PESE                                                                                000000000020000                            
50000810201808142018081500014357             PES0000003400A222702018081415270020                                                
6000900014357000216                                                                                                             
7PESE                                                                                000000000003400                            
50000910201808142018081500014726             PES0000020000A029032018081410210039                                                
6000900014726000263                                                                                                             
7PESE                                                                                000000000020000                            
50001010201808142018081500015449             PES0000026500A214372018081415450024                                                
6000900015449000221                                                                                                             
7PESE                                                                                000000000026500                            
50001110201808142018081500016005             PES0000030000A016682018081410270020                                                
6000900016005000263                                                                                                             
7PESE                                                                                000000000030000                            
50001210201808142018081500016411             PES0000010000A284242018081410340060                                                
6000900016411000215                                                                                                             
7PESE                                                                                000000000010000                            
50001310201808142018081500016755             PES0000060000D001732018081415400204                                                
6000900016755000290                                                                                                             
7PESE                                                                                000000000060000                            
50001410201808142018081500016940             PES0000140000A176972018081415030067                                                
6000900016940000221                                                                                                             
7PESE                                                                                000000000140000                            
50001510201808142018081500017245             PES0000035000A204652018081412080098                                                
6000900017245000242                                                                                                             
7PESE                                                                                000000000035000                            
50001610201808142018081500017338             PES0000150000A142382018081413000046                                                
6000900017338000237                                                                                                             
7PESE                                                                                000000000150000                            
50001710201808142018081500017962             PES0000020000A031192018081409480008                                                
6000900017962000299                                                                                                             
7PESE                                                                                000000000020000                            
50001810201808142018081500018029             PES0000020000D010132018081413260067                                                
6000900018029000242                                                                                                             
7PESE                                                                                000000000020000                            
50001910201808142018081500018955             PES0000003000A165572018081411580070                                                
6000900018955000216                                                                                                             
7PESE                                                                                000000000003000                            
50002010201808142018081500019320             PES0000005000A254952018081409420005                                                
6000900019320000221                                                                                                             
7PESE                                                                                000000000005000                            
50002110201808142018081500019456             PES0000020000M600112018081412470035                                                
6000900019456000221                                                                                                             
7PESE                                                                                000000000020000                            
50002210201808142018081500020236             PES0000005000D003792018081411140112                                                
6000900020236000278                                                                                                             
7PESE                                                                                000000000005000                            
50002310201808142018081500020249             PES0000006720D005312018081410310019                                                
6000900020249000200                                                                                                             
7PESE                                                                                000000000006720                            
50002410201808142018081500020336             PES0000005000A137632018081416070051                                                
6000900020336000284                                                                                                             
7PESE                                                                                000000000005000                            
50002510201808142018081500020985             PES0000001206A126412018081413000051                                                
6000900020985000263                                                                                                             
7PESE                                                                                000000000001206                            
50002610201808142018081500021458             PES0000015000A098382018081412250010                                                
6000900021458000263                                                                                                             
7PESE                                                                                000000000015000                            
50002710201808142018081500021550             PES0000010000D003772018081417440024                                                
6000900021550000200                                                                                                             
7PESE                                                                                000000000010000                            
50002810201808142018081500021732             PES0000015000A126522018081411350065                                                
6000900021732000257                                                                                                             
7PESE                                                                                000000000015000                            
50002910201808142018081500022522             PES0000009500M600742018081412320056                                                
6000900022522000242                                                                                                             
7PESE                                                                                000000000009500                            
50003010201808142018081500022582             PES0000018000A075392018081414100037                                                
6000900022582000299                                                                                                             
7PESE                                                                                000000000018000                            
50003110201808142018081500023184             PES0000010000A127812018081411580084                                                
6000900023184000242                                                                                                             
7PESE                                                                                000000000010000                            
50003210201808142018081500023573             PES0000012000D007912018081420050234                                                
6000900023573000242                                                                                                             
7PESE                                                                                000000000012000                            
50003310201808142018081500023716             PES0000015000M600712018081412050026                                                
6000900023716000236                                                                                                             
7PESE                                                                                000000000015000                            
50003410201808142018081500023726             PES0000030000D004202018081411340183                                                
6000900023726000258                                                                                                             
7PESE                                                                                000000000030000                            
50003510201808142018081500026165             PES0000020000A163732018081412030073                                                
6000900026165000263                                                                                                             
7PESE                                                                                000000000020000                            
50003610201808142018081502000357             PES0000040000M750002018081410220008                                                
6000902000357000236                                                                                                             
7PESE                                                                                000000000040000                            
50003710201808142018081502000834             PES0000025000D001872018081417190412                                                
6000902000834000257                                                                                                             
7PESE                                                                                000000000025000                            
50003810201808142018081502000881             PES0000050000M640012018081411260007                                                
6000902000881000278                                                                                                             
7PESE                                                                                000000000050000                            
50003910201808142018081502003348             PES0000020000D000512018081411490077                                                
6000902003348000279                                                                                                             
7PESE                                                                                000000000020000                            
50004010201808142018081502004303             PES0000020000D005772018081409360013                                                
6000902004303000242                                                                                                             
7PESE                                                                                000000000020000                            
50004110201808142018081502004752             PES0000150000A214362018081410440061                                                
6000902004752000290                                                                                                             
7PESE                                                                                000000000150000                            
50004210201808142018081518922698             PES0000031724A147452018081414480093                                                
6000918922698000236                                                                                                             
7PESE                                                                                000000000031724                            
50004310201808142018081521107809             PES0000021000A111942018081418230037                                                
6000921107809000263                                                                                                             
7PESE                                                                                000000000021000                            
50004410201808142018081523607713             PES0000015000A135642018081417030004                                                
6000923607713000221                                                                                                             
7PESE                                                                                000000000015000                            
50004510201808142018081523724913             PES0000020000A200832018081415320042                                                
6000923724913000215                                                                                                             
7PESE                                                                                000000000020000                            
50004610201808142018081524103909             PES0000050000M600052018081415520026                                                
6000924103909000242                                                                                                             
7PESE                                                                                000000000050000                            
50004710201808142018081524224977             PES0000100000D003412018081420330212                                                
6000924224977000299                                                                                                             
7PESE                                                                                000000000100000                            
50004810201808142018081524314630             PES0000050000A188902018081417450003                                                
6000924314630000299                                                                                                             
7PESE                                                                                000000000050000                            
50004910201808142018081524322411             PES0000020000A160402018081413000062                                                
6000924322411000299                                                                                                             
7PESE                                                                                000000000020000                            
50005010201808142018081524712510             PES0000300000A135242018081410150043                                                
6000924712510000237                                                                                                             
7PESE                                                                                000000000300000                            
50005110201808142018081524714259             PES0000020000A166652018081417320004                                                
6000924714259000290                                                                                                             
7PESE                                                                                000000000020000                            
50005210201808142018081524818077             PES0000005000A175112018081413590020                                                
6000924818077000257                                                                                                             
7PESE                                                                                000000000005000                            
50005310201808142018081524916622             PES0000030000D010342018081417220176                                                
6000924916622000279                                                                                                             
7PESE                                                                                000000000030000                            
50005410201808142018081525002439             PES0000100000A193942018081419360023                                                
6000925002439000299                                                                                                             
7PESE                                                                                000000000100000                            
50005510201808142018081525008383             PES0000040000D001632018081416100177                                                
6000925008383000263                                                                                                             
7PESE                                                                                000000000040000                            
50005610201808142018081525011277             PES0000005000A188102018081411380027                                                
6000925011277000284                                                                                                             
7PESE                                                                                000000000005000                            
50005710201808142018081525013184             PES0000020000A229882018081411310023                                                
6000925013184000279                                                                                                             
7PESE                                                                                000000000020000                            
50005810201808142018081525018244             PES0000015000A076262018081412310003                                                
6000925018244000216                                                                                                             
7PESE                                                                                000000000015000                            
50005910201808142018081525019577             PES0000016600A182652018081418050007                                                
6000925019577000284                                                                                                             
7PESE                                                                                000000000016600                            
50006010201808142018081525104814             PES0000010000A080372018081419110035                                                
6000925104814000242                                                                                                             
7PESE                                                                                000000000010000                            
50006110201808142018081525105425             PES0000009500D000292018081411360141                                                
6000925105425000284                                                                                                             
7PESE                                                                                000000000009500                            
50006210201808142018081525105472             PES0000010000A273022018081411420092                                                
6000925105472000200                                                                                                             
7PESE                                                                                000000000010000                            
50006310201808142018081525105487             PES0000009500A160712018081416270034                                                
6000925105487000200                                                                                                             
7PESE                                                                                000000000009500                            
50006410201808142018081525106830             PES0000010000D004912018081411140104                                                
6000925106830000242                                                                                                             
7PESE                                                                                000000000010000                            
50006510201808142018081525107100             PES0000010000A214372018081418150008                                                
6000925107100000200                                                                                                             
7PESE                                                                                000000000010000                            
50006610201808142018081525107190             PES0000030000D005392018081410570051                                                
6000925107190000236                                                                                                             
7PESE                                                                                000000000030000                            
50006710201808142018081525107215             PES0000009500A100002018081412160040                                                
6000925107215000221                                                                                                             
7PESE                                                                                000000000009500                            
50006810201808142018081525107590             PES0000010000A158442018081412120018                                                
6000925107590000299                                                                                                             
7PESE                                                                                000000000010000                            
50006910201808142018081525108322             PES0000010000A167992018081412360024                                                
6000925108322000200                                                                                                             
7PESE                                                                                000000000010000                            
50007010201808142018081525109566             PES0000010000A126072018081409330006                                                
6000925109566000216                                                                                                             
7PESE                                                                                000000000010000                            
50007110201808142018081525112000             PES0000010000A076782018081415320029                                                
6000925112000000200                                                                                                             
7PESE                                                                                000000000010000                            
50007210201808142018081525113321             PES0000010000D009272018081411440069                                                
6000925113321000279                                                                                                             
7PESE                                                                                000000000010000                            
50007310201808142018081525114091             PES0000020000A193392018081410270050                                                
6000925114091000257                                                                                                             
7PESE                                                                                000000000020000                            
50007410201808142018081525115053             PES0000010000A080102018081411160044                                                
6000925115053000263                                                                                                             
7PESE                                                                                000000000010000                            
50007510201808142018081525118645             PES0000009500A205372018081416140080                                                
6000925118645000237                                                                                                             
7PESE                                                                                000000000009500                            
50007610201808142018081525119251             PES0000050000A106002018081417100020                                                
6000925119251000200                                                                                                             
7PESE                                                                                000000000050000                            
50007710201808142018081525120323             PES0000010000D008862018081411070078                                                
6000925120323000242                                                                                                             
7PESE                                                                                000000000010000                            
50007810201808142018081525121530             PES0000010000D008912018081410230032                                                
6000925121530000242                                                                                                             
7PESE                                                                                000000000010000                            
50007910201808142018081525122594             PES0000010000A147452018081409420016                                                
6000925122594000279                                                                                                             
7PESE                                                                                000000000010000                            
50008010201808142018081525122801             PES0000025000A145382018081415180036                                                
6000925122801000299                                                                                                             
7PESE                                                                                000000000025000                            
50008110201808142018081525201100             PES0000200000A164952018081412400005                                                
6000925201100000263                                                                                                             
7PESE                                                                                000000000200000                            
50008210201808142018081525204326             PES0000050000A215782018081419110153                                                
6000925204326000284                                                                                                             
7PESE                                                                                000000000050000                            
50008310201808142018081525204332             PES0000050000A178372018081412220009                                                
6000925204332000278                                                                                                             
7PESE                                                                                000000000050000                            
50008410201808142018081525204574             PES0000010000A183332018081409320063                                                
6000925204574000278                                                                                                             
7PESE                                                                                000000000010000                            
50008510201808142018081525204747             PES0000010000D003452018081412500091                                                
6000925204747000236                                                                                                             
7PESE                                                                                000000000010000                            
50008610201808142018081525205080             PES0000005000A106002018081412370029                                                
6000925205080000221                                                                                                             
7PESE                                                                                000000000005000                            
50008710201808142018081525205130             PES0000050000A038212018081410020020                                                
6000925205130000216                                                                                                             
7PESE                                                                                000000000050000                            
50008810201808142018081525206983             PES0000050000A094782018081410300034                                                
6000925206983000215                                                                                                             
7PESE                                                                                000000000050000                            
50008910201808142018081525207245             PES0000006000D005422018081410170064                                                
6000925207245000221                                                                                                             
7PESE                                                                                000000000006000                            
50009010201808142018081525207531             PES0000010000A286942018081412500056                                                
6000925207531000200                                                                                                             
7PESE                                                                                000000000010000                            
50009110201808142018081525207644             PES0000020000A023702018081415410124                                                
6000925207644000242                                                                                                             
7PESE                                                                                000000000020000                            
50009210201808142018081525208005             PES0000010000A193912018081415220066                                                
6000925208005000237                                                                                                             
7PESE                                                                                000000000010000                            
50009310201808142018081525209132             PES0000005000A106002018081412370028                                                
6000925209132000263                                                                                                             
7PESE                                                                                000000000005000                            
50009410201808142018081525209152             PES0000050000A073412018081409360060                                                
6000925209152000216                                                                                                             
7PESE                                                                                000000000050000                            
50009510201808142018081525209503             PES0000015000A119482018081416380044                                                
6000925209503000284                                                                                                             
7PESE                                                                                000000000015000                            
50009610201808142018081525209575             PES0000030000A080102018081410140070                                                
6000925209575000236                                                                                                             
7PESE                                                                                000000000030000                            
50009710201808142018081525209841             PES0000010000A215692018081410200025                                                
6000925209841000263                                                                                                             
7PESE                                                                                000000000010000                            
50009810201808142018081525210137             PES0000030000D005132018081416580268                                                
6000925210137000278                                                                                                             
7PESE                                                                                000000000030000                            
50009910201808142018081525210219             PES0000011255A070462018081417050015                                                
6000925210219000200                                                                                                             
7PESE                                                                                000000000011255                            
50010010201808142018081525210418             PES0000020000D008872018081412370076                                                
6000925210418000200                                                                                                             
7PESE                                                                                000000000020000                            
50010110201808142018081525210620             PES0000010000A073412018081413120016                                                
6000925210620000279                                                                                                             
7PESE                                                                                000000000010000                            
50010210201808142018081525211241             PES0000100000A175122018081418560164                                                
6000925211241000242                                                                                                             
7PESE                                                                                000000000100000                            
50010310201808142018081525211278             PES0000050000A188912018081412010032                                                
6000925211278000263                                                                                                             
7PESE                                                                                000000000050000                            
50010410201808142018081525211381             PES0000009000A158162018081418170043                                                
6000925211381000263                                                                                                             
7PESE                                                                                000000000009000                            
50010510201808142018081525211490             PES0000015000L193192018081411328638                                                
6000925211490000263                                                                                                             
7PESE                                                                                000000000015000                            
50010610201808142018081525212174             PES0000005000A144232018081412060040                                                
6000925212174000258                                                                                                             
7PESE                                                                                000000000005000                            
50010710201808142018081525212818             PES0000200000A175092018081413350015                                                
6000925212818000257                                                                                                             
7PESE                                                                                000000000200000                            
50010810201808142018081525213274             PES0000010000A182762018081410550008                                                
6000925213274000216                                                                                                             
7PESE                                                                                000000000010000                            
50010910201808142018081525213303             PES0000010000A260332018081416570052                                                
6000925213303000221                                                                                                             
7PESE                                                                                000000000010000                            
50011010201808142018081525213896             PES0000010000A262042018081410530005                                                
6000925213896000221                                                                                                             
7PESE                                                                                000000000010000                            
50011110201808142018081525213940             PES0000020000A254962018081417570029                                                
6000925213940000200                                                                                                             
7PESE                                                                                000000000020000                            
50011210201808142018081525214187             PES0000010000A112372018081417260014                                                
6000925214187000279                                                                                                             
7PESE                                                                                000000000010000                            
50011310201808142018081525214346             PES0000020000A256952018081415070050                                                
6000925214346000278                                                                                                             
7PESE                                                                                000000000020000                            
50011410201808142018081525214386             PES0000016000A188102018081412430006                                                
6000925214386000278                                                                                                             
7PESE                                                                                000000000016000                            
50011510201808142018081525214513             PES0000010000A180912018081416520061                                                
6000925214513000221                                                                                                             
7PESE                                                                                000000000010000                            
50011610201808142018081525214545             PES0000005000D002722018081416300220                                                
6000925214545000263                                                                                                             
7PESE                                                                                000000000005000                            
50011710201808142018081525214898             PES0000010000A180852018081416530006                                                
6000925214898000242                                                                                                             
7PESE                                                                                000000000010000                            
50011810201808142018081525215046             PES0000010000M600482018081412230036                                                
6000925215046000278                                                                                                             
7PESE                                                                                000000000010000                            
50011910201808142018081525215116             PES0000020000D002822018081413470201                                                
6000925215116000215                                                                                                             
7PESE                                                                                000000000020000                            
50012010201808142018081525215634             PES0000010000D002102018081416370109                                                
6000925215634000263                                                                                                             
7PESE                                                                                000000000010000                            
50012110201808142018081525215674             PES0000010000D005792018081412190036                                                
6000925215674000263                                                                                                             
7PESE                                                                                000000000010000                            
50012210201808142018081525215747             PES0000010000A035742018081410180043                                                
6000925215747000215                                                                                                             
7PESE                                                                                000000000010000                            
50012310201808142018081525216520             PES0000002000D003452018081419100219                                                
6000925216520000236                                                                                                             
7PESE                                                                                000000000002000                            
50012410201808142018081525216590             PES0000030000A090052018081412380029                                                
6000925216590000200                                                                                                             
7PESE                                                                                000000000030000                            
50012510201808142018081525217953             PES0000015000D000052018081414060057                                                
6000925217953000216                                                                                                             
7PESE                                                                                000000000015000                            
50012610201808142018081525218164             PES0000020000D001642018081408400014                                                
6000925218164000200                                                                                                             
7PESE                                                                                000000000020000                            
50012710201808142018081525218713             PES0000015000A214372018081418420038                                                
6000925218713000236                                                                                                             
7PESE                                                                                000000000015000                            
50012810201808142018081525221568             PES0000005000A156712018081409330012                                                
6000925221568000221                                                                                                             
7PESE                                                                                000000000005000                            
50012910201808142018081525222105             PES0000006000A170782018081409440047                                                
6000925222105000257                                                                                                             
7PESE                                                                                000000000006000                            
50013010201808142018081525224075             PES0000040885A276712018081412300039                                                
6000925224075000200                                                                                                             
7PESE                                                                                000000000040885                            
50013110201808142018081525226088             PES0000010000A284242018081411400003                                                
6000925226088000221                                                                                                             
7PESE                                                                                000000000010000                            
50013210201808142018081525226348             PES0000010000A262042018081418290004                                                
6000925226348000263                                                                                                             
7PESE                                                                                000000000010000                            
50013310201808142018081550006579             PES0000040000A081062018081413400047                                                
6000950006579000242                                                                                                             
7PESE                                                                                000000000040000                            
50013410201808142018081550007222             PES0000070000A212952018081410320067                                                
6000950007222000279                                                                                                             
7PESE                                                                                000000000070000                            
50013510201808142018081550007282             PES0000010000D009122018081416010188                                                
6000950007282000221                                                                                                             
7PESE                                                                                000000000010000                            
50013610201808142018081550008550             PES0000010000D005362018081417370099                                                
6000950008550000278                                                                                                             
7PESE                                                                                000000000010000                            
50013710201808142018081550008640             PES0000020000A007492018081417530088                                                
6000950008640000263                                                                                                             
7PESE                                                                                000000000020000                            
50013810201808142018081550009341             PES0000005000D000502018081416340077                                                
6000950009341000290                                                                                                             
7PESE                                                                                000000000005000                            
50013910201808142018081550009529             PES0000030000D005032018081410560012                                                
6000950009529000258                                                                                                             
7PESE                                                                                000000000030000                            
50014010201808142018081550009634             PES0000040000A084922018081418280022                                                
6000950009634000221                                                                                                             
7PESE                                                                                000000000040000                            
50014110201808142018081550010203             PES0000025000A256952018081414400023                                                
6000950010203000284                                                                                                             
7PESE                                                                                000000000025000                            
50014210201808142018081550011021             PES0000020000A175122018081415400043                                                
6000950011021000279                                                                                                             
7PESE                                                                                000000000020000                            
50014310201808142018081550011064             PES0000020000A032972018081414110067                                                
6000950011064000284                                                                                                             
7PESE                                                                                000000000020000                            
50014410201808142018081550011360             PES0000020000A188902018081414080012                                                
6000950011360000284                                                                                                             
7PESE                                                                                000000000020000                            
50014510201808142018081550011504             PES0000012000A037092018081412320044                                                
6000950011504000200                                                                                                             
7PESE                                                                                000000000012000                            
50014610201808142018081550011544             PES0000007000M600202018081412260004                                                
6000950011544000200                                                                                                             
7PESE                                                                                000000000007000                            
50014710201808142018081550011899             PES0000012000A128792018081408460044                                                
6000950011899000257                                                                                                             
7PESE                                                                                000000000012000                            
50014810201808142018081550012225             PES0000010000A112952018081413400075                                                
6000950012225000299                                                                                                             
7PESE                                                                                000000000010000                            
50014910201808142018081550012448             PES0000050000A071842018081416050009                                                
6000950012448000279                                                                                                             
7PESE                                                                                000000000050000                            
50015010201808142018081550015275             PES0000040000A086812018081415580020                                                
6000950015275000257                                                                                                             
7PESE                                                                                000000000040000                            
82018081500000100001500000041097900000000000000000000000000000000000000000150                                                   
9201808150000010000150000004109790000000000000000000000000000000000000000000150                                                 
