120180816PAGO FACIL               090060009INS. SALESIANA SAN FCO. JAVIER-ASOC                                                  
320180816000001INS. SALESIANA SAN FCO. JAVIER-ASOC                                                                              
50000110201808152018081600007229             PES0000015000D009612018081513290141                                                
6000900007229000290                                                                                                             
7PESE                                                                                000000000015000                            
50000210201808152018081600008261             PES0000020000D002092018081519410061                                                
6000900008261000263                                                                                                             
7PESE                                                                                000000000020000                            
50000310201808152018081600009850             PES0000014000A075792018081518320021                                                
6000900009850000237                                                                                                             
7PESE                                                                                000000000014000                            
50000410201808152018081600011443             PES0000010000A215782018081517040067                                                
6000900011443000236                                                                                                             
7PESE                                                                                000000000010000                            
50000510201808152018081600012394             PES0000001500A175122018081512060082                                                
6000900012394000221                                                                                                             
7PESE                                                                                000000000001500                            
50000610201808152018081600014424             PES0000013600M601252018081513090008                                                
6000900014424000257                                                                                                             
7PESE                                                                                000000000013600                            
50000710201808152018081600015518             PES0000010000A158162018081511060068                                                
6000900015518000221                                                                                                             
7PESE                                                                                000000000010000                            
50000810201808152018081600016322             PES0000025000D002052018081512210117                                                
6000900016322000258                                                                                                             
7PESE                                                                                000000000025000                            
50000910201808152018081600017184             PES0000010000A007492018081511040044                                                
6000900017184000299                                                                                                             
7PESE                                                                                000000000010000                            
50001010201808152018081600017260             PES0000040000A160372018081509130009                                                
6000900017260000216                                                                                                             
7PESE                                                                                000000000040000                            
50001110201808152018081600018135             PES0000020000A220612018081512080003                                                
6000900018135000242                                                                                                             
7PESE                                                                                000000000020000                            
50001210201808152018081600020250             PES0000040000A008222018081513220063                                                
6000900020250000215                                                                                                             
7PESE                                                                                000000000040000                            
50001310201808152018081600022746             PES0000050000A289432018081513090025                                                
6000900022746000263                                                                                                             
7PESE                                                                                000000000050000                            
50001410201808152018081600022770             PES0000007000M600742018081511240025                                                
6000900022770000221                                                                                                             
7PESE                                                                                000000000007000                            
50001510201808152018081600022841             PES0000025000A127752018081515280017                                                
6000900022841000200                                                                                                             
7PESE                                                                                000000000025000                            
50001610201808152018081600022924             PES0000010000D002342018081511210043                                                
6000900022924000278                                                                                                             
7PESE                                                                                000000000010000                            
50001710201808152018081600023608             PES0000010000A005322018081517180060                                                
6000900023608000263                                                                                                             
7PESE                                                                                000000000010000                            
50001810201808152018081600024294             PES0000020000A168612018081509530033                                                
6000900024294000236                                                                                                             
7PESE                                                                                000000000020000                            
50001910201808152018081600024341             PES0000015000A146992018081513350049                                                
6000900024341000216                                                                                                             
7PESE                                                                                000000000015000                            
50002010201808152018081600024366             PES0000018000A122502018081512500042                                                
6000900024366000242                                                                                                             
7PESE                                                                                000000000018000                            
50002110201808152018081602000365             PES0000040000A049942018081510090006                                                
6000902000365000284                                                                                                             
7PESE                                                                                000000000040000                            
50002210201808152018081602000455             PES0000200000D001472018081511260056                                                
6000902000455000279                                                                                                             
7PESE                                                                                000000000200000                            
50002310201808152018081602002449             PES0000020000A268352018081513120079                                                
6000902002449000284                                                                                                             
7PESE                                                                                000000000020000                            
50002410201808152018081602003456             PES0000010000A220632018081515010050                                                
6000902003456000242                                                                                                             
7PESE                                                                                000000000010000                            
50002510201808152018081602004072             PES0000018000A031192018081513310008                                                
6000902004072000242                                                                                                             
7PESE                                                                                000000000018000                            
50002610201808152018081602005508             PES0000010000D003452018081512440083                                                
6000902005508000290                                                                                                             
7PESE                                                                                000000000010000                            
50002710201808152018081621602336             PES0000030000A258782018081517410036                                                
6000921602336000263                                                                                                             
7PESE                                                                                000000000030000                            
50002810201808152018081622621082             PES0000050000A149312018081517570023                                                
6000922621082000242                                                                                                             
7PESE                                                                                000000000050000                            
50002910201808152018081623713162             PES0000020000A081062018081511150053                                                
6000923713162000200                                                                                                             
7PESE                                                                                000000000020000                            
50003010201808152018081623714724             PES0000010000A152132018081513300015                                                
6000923714724000200                                                                                                             
7PESE                                                                                000000000010000                            
50003110201808152018081624014995             PES0000010000A075022018081510230057                                                
6000924014995000284                                                                                                             
7PESE                                                                                000000000010000                            
50003210201808152018081624318988             PES0000020000A088382018081517030006                                                
6000924318988000221                                                                                                             
7PESE                                                                                000000000020000                            
50003310201808152018081624321661             PES0000020000A164372018081519060042                                                
6000924321661000200                                                                                                             
7PESE                                                                                000000000020000                            
50003410201808152018081624423463             PES0000040000A031402018081514240046                                                
6000924423463000258                                                                                                             
7PESE                                                                                000000000040000                            
50003510201808152018081624712771             PES0000030000D007742018081516190118                                                
6000924712771000257                                                                                                             
7PESE                                                                                000000000030000                            
50003610201808152018081624723447             PES0000010000A145392018081517550025                                                
6000924723447000221                                                                                                             
7PESE                                                                                000000000010000                            
50003710201808152018081624806238             PES0000006500D009752018081513160064                                                
6000924806238000299                                                                                                             
7PESE                                                                                000000000006500                            
50003810201808152018081624807783             PES0000009535D004892018081512070119                                                
6000924807783000263                                                                                                             
7PESE                                                                                000000000009535                            
50003910201808152018081624826399             PES0000100000A274202018081512120049                                                
6000924826399000263                                                                                                             
7PESE                                                                                000000000100000                            
50004010201808152018081624905218             PES0000005000A158442018081512440081                                                
6000924905218000221                                                                                                             
7PESE                                                                                000000000005000                            
50004110201808152018081625006415             PES0000003000A122502018081513480063                                                
6000925006415000284                                                                                                             
7PESE                                                                                000000000003000                            
50004210201808152018081625019515             PES0000035000A158442018081516440036                                                
6000925019515000263                                                                                                             
7PESE                                                                                000000000035000                            
50004310201808152018081625023087             PES0000010000A145222018081511140003                                                
6000925023087000200                                                                                                             
7PESE                                                                                000000000010000                            
50004410201808152018081625024223             PES0000010000A168612018081512130062                                                
6000925024223000284                                                                                                             
7PESE                                                                                000000000010000                            
50004510201808152018081625101162             PES0000200000A112952018081510290031                                                
6000925101162000258                                                                                                             
7PESE                                                                                000000000200000                            
50004610201808152018081625102755             PES0000013500L192402018081515544070                                                
6000925102755000278                                                                                                             
7PESE                                                                                000000000013500                            
50004710201808152018081625105032             PES0000020000M600832018081514020036                                                
6000925105032000242                                                                                                             
7PESE                                                                                000000000020000                            
50004810201808152018081625106920             PES0000010000A228832018081512010019                                                
6000925106920000236                                                                                                             
7PESE                                                                                000000000010000                            
50004910201808152018081625107527             PES0000010000D003452018081511590067                                                
6000925107527000263                                                                                                             
7PESE                                                                                000000000010000                            
50005010201808152018081625108073             PES0000030000A122662018081515150016                                                
6000925108073000216                                                                                                             
7PESE                                                                                000000000030000                            
50005110201808152018081625108988             PES0000009500A178372018081512490065                                                
6000925108988000257                                                                                                             
7PESE                                                                                000000000009500                            
50005210201808152018081625109953             PES0000035000A117772018081515130034                                                
6000925109953000242                                                                                                             
7PESE                                                                                000000000035000                            
50005310201808152018081625110182             PES0000005200A180852018081511110015                                                
6000925110182000290                                                                                                             
7PESE                                                                                000000000005200                            
50005410201808152018081625110566             PES0000020000A157252018081513380053                                                
6000925110566000242                                                                                                             
7PESE                                                                                000000000020000                            
50005510201808152018081625111443             PES0000010000A215782018081517030066                                                
6000925111443000221                                                                                                             
7PESE                                                                                000000000010000                            
50005610201808152018081625113332             PES0000020000D010082018081517530149                                                
6000925113332000237                                                                                                             
7PESE                                                                                000000000020000                            
50005710201808152018081625113728             PES0000020000A044482018081514480007                                                
6000925113728000284                                                                                                             
7PESE                                                                                000000000020000                            
50005810201808152018081625115099             PES0000006000A230672018081512580093                                                
6000925115099000279                                                                                                             
7PESE                                                                                000000000006000                            
50005910201808152018081625117665             PES0000010000A114372018081516340061                                                
6000925117665000242                                                                                                             
7PESE                                                                                000000000010000                            
50006010201808152018081625118598             PES0000020000A173652018081510440003                                                
6000925118598000257                                                                                                             
7PESE                                                                                000000000020000                            
50006110201808152018081625120764             PES0000030000D003842018081509410035                                                
6000925120764000242                                                                                                             
7PESE                                                                                000000000030000                            
50006210201808152018081625123087             PES0000010000A145222018081511140004                                                
6000925123087000221                                                                                                             
7PESE                                                                                000000000010000                            
50006310201808152018081625123096             PES0000030000A148672018081513410071                                                
6000925123096000216                                                                                                             
7PESE                                                                                000000000030000                            
50006410201808152018081625126117             PES0000040000A148672018081512520038                                                
6000925126117000200                                                                                                             
7PESE                                                                                000000000040000                            
50006510201808152018081625126368             PES0000005000A165462018081510180008                                                
6000925126368000299                                                                                                             
7PESE                                                                                000000000005000                            
50006610201808152018081625202609             PES0000010000A160712018081512100048                                                
6000925202609000290                                                                                                             
7PESE                                                                                000000000010000                            
50006710201808152018081625205986             PES0000020000A141302018081510510043                                                
6000925205986000278                                                                                                             
7PESE                                                                                000000000020000                            
50006810201808152018081625206419             PES0000015000D002262018081516330327                                                
6000925206419000278                                                                                                             
7PESE                                                                                000000000015000                            
50006910201808152018081625206920             PES0000010000A228832018081512010020                                                
6000925206920000258                                                                                                             
7PESE                                                                                000000000010000                            
50007010201808152018081625207164             PES0000050000A175102018081512170084                                                
6000925207164000221                                                                                                             
7PESE                                                                                000000000050000                            
50007110201808152018081625207364             PES0000010000A150352018081510090051                                                
6000925207364000257                                                                                                             
7PESE                                                                                000000000010000                            
50007210201808152018081625207409             PES0000010000A215692018081511310073                                                
6000925207409000299                                                                                                             
7PESE                                                                                000000000010000                            
50007310201808152018081625208073             PES0000020000A122662018081515150015                                                
6000925208073000242                                                                                                             
7PESE                                                                                000000000020000                            
50007410201808152018081625208261             PES0000015000D002092018081519410062                                                
6000925208261000279                                                                                                             
7PESE                                                                                000000000015000                            
50007510201808152018081625208658             PES0000020000D005612018081517150026                                                
6000925208658000258                                                                                                             
7PESE                                                                                000000000020000                            
50007610201808152018081625208713             PES0000010000D005132018081512450142                                                
6000925208713000290                                                                                                             
7PESE                                                                                000000000010000                            
50007710201808152018081625209222             PES0000010000A212952018081511250043                                                
6000925209222000258                                                                                                             
7PESE                                                                                000000000010000                            
50007810201808152018081625210535             PES0000015000A220702018081510180013                                                
6000925210535000263                                                                                                             
7PESE                                                                                000000000015000                            
50007910201808152018081625211173             PES0000030000A157762018081510390015                                                
6000925211173000279                                                                                                             
7PESE                                                                                000000000030000                            
50008010201808152018081625211443             PES0000040000A215782018081517030065                                                
6000925211443000242                                                                                                             
7PESE                                                                                000000000040000                            
50008110201808152018081625211635             PES0000010000D000292018081513170216                                                
6000925211635000221                                                                                                             
7PESE                                                                                000000000010000                            
50008210201808152018081625211989             PES0000010000D008012018081515470184                                                
6000925211989000236                                                                                                             
7PESE                                                                                000000000010000                            
50008310201808152018081625212169             PES0000020000M600202018081510380010                                                
6000925212169000200                                                                                                             
7PESE                                                                                000000000020000                            
50008410201808152018081625212260             PES0000010000A260832018081511450021                                                
6000925212260000200                                                                                                             
7PESE                                                                                000000000010000                            
50008510201808152018081625212457             PES0000030000A165572018081510050004                                                
6000925212457000258                                                                                                             
7PESE                                                                                000000000030000                            
50008610201808152018081625213582             PES0000020000A031192018081511200025                                                
6000925213582000216                                                                                                             
7PESE                                                                                000000000020000                            
50008710201808152018081625214118             PES0000030000D001712018081513030117                                                
6000925214118000237                                                                                                             
7PESE                                                                                000000000030000                            
50008810201808152018081625214132             PES0000010000A193922018081512220006                                                
6000925214132000279                                                                                                             
7PESE                                                                                000000000010000                            
50008910201808152018081625214212             PES0000010000D005422018081509530030                                                
6000925214212000242                                                                                                             
7PESE                                                                                000000000010000                            
50009010201808152018081625214480             PES0000010000A188912018081514200042                                                
6000925214480000279                                                                                                             
7PESE                                                                                000000000010000                            
50009110201808152018081625215203             PES0000100000A031192018081511450062                                                
6000925215203000290                                                                                                             
7PESE                                                                                000000000100000                            
50009210201808152018081625215738             PES0000020000A161382018081515530004                                                
6000925215738000221                                                                                                             
7PESE                                                                                000000000020000                            
50009310201808152018081625217449             PES0000015000A157712018081512570051                                                
6000925217449000221                                                                                                             
7PESE                                                                                000000000015000                            
50009410201808152018081625217665             PES0000010000A114372018081516340060                                                
6000925217665000263                                                                                                             
7PESE                                                                                000000000010000                            
50009510201808152018081625217864             PES0000005000A103002018081516310019                                                
6000925217864000263                                                                                                             
7PESE                                                                                000000000005000                            
50009610201808152018081625217970             PES0000005000A165462018081510190009                                                
6000925217970000263                                                                                                             
7PESE                                                                                000000000005000                            
50009710201808152018081625218082             PES0000020000A163412018081510110022                                                
6000925218082000263                                                                                                             
7PESE                                                                                000000000020000                            
50009810201808152018081625218165             PES0000050000D005322018081518320104                                                
6000925218165000237                                                                                                             
7PESE                                                                                000000000050000                            
50009910201808152018081625218242             PES0000030000A063842018081512200011                                                
6000925218242000290                                                                                                             
7PESE                                                                                000000000030000                            
50010010201808152018081625224062             PES0000020000A710252018081510070016                                                
6000925224062000278                                                                                                             
7PESE                                                                                000000000020000                            
50010110201808152018081625226344             PES0000020000A150352018081510140053                                                
6000925226344000221                                                                                                             
7PESE                                                                                000000000020000                            
50010210201808152018081625226425             PES0000013400A153862018081510550075                                                
6000925226425000221                                                                                                             
7PESE                                                                                000000000013400                            
50010310201808152018081650006186             PES0000500000A166652018081510410087                                                
6000950006186000200                                                                                                             
7PESE                                                                                000000000500000                            
50010410201808152018081650007460             PES0000010000A031192018081511510075                                                
6000950007460000237                                                                                                             
7PESE                                                                                000000000010000                            
50010510201808152018081650008184             PES0000100000A031192018081514500020                                                
6000950008184000221                                                                                                             
7PESE                                                                                000000000100000                            
50010610201808152018081650008662             PES0000005000D005142018081509350030                                                
6000950008662000284                                                                                                             
7PESE                                                                                000000000005000                            
50010710201808152018081650009347             PES0000010000L192092018081511482751                                                
6000950009347000200                                                                                                             
7PESE                                                                                000000000010000                            
50010810201808152018081650009627             PES0000050000A142702018081511270019                                                
6000950009627000200                                                                                                             
7PESE                                                                                000000000050000                            
50010910201808152018081650009989             PES0000026432A142512018081516250006                                                
6000950009989000263                                                                                                             
7PESE                                                                                000000000026432                            
50011010201808152018081650010749             PES0000020000D005132018081517390336                                                
6000950010749000263                                                                                                             
7PESE                                                                                000000000020000                            
50011110201808152018081650011442             PES0000050000A044482018081516400025                                                
6000950011442000221                                                                                                             
7PESE                                                                                000000000050000                            
50011210201808152018081650011893             PES0000050000A232042018081518160069                                                
6000950011893000242                                                                                                             
7PESE                                                                                000000000050000                            
50011310201808152018081650012033             PES0000050000D001872018081513580194                                                
6000950012033000216                                                                                                             
7PESE                                                                                000000000050000                            
50011410201808152018081650012129             PES0000015000A080102018081513340054                                                
6000950012129000216                                                                                                             
7PESE                                                                                000000000015000                            
50011510201808152018081650012193             PES0000015000A197842018081512060049                                                
6000950012193000284                                                                                                             
7PESE                                                                                000000000015000                            
50011610201808152018081650015259             PES0000080000A188182018081511460067                                                
6000950015259000242                                                                                                             
7PESE                                                                                000000000080000                            
82018081600000100001160000033801670000000000000000000000000000000000000000116                                                   
9201808160000010000116000003380167000000000000000000000000000000000000000000116                                                 
