120180817PAGO FACIL               090060009INS. SALESIANA SAN FCO. JAVIER-ASOC                                                  
320180817000001INS. SALESIANA SAN FCO. JAVIER-ASOC                                                                              
50000110201808162018081700008866             PES0000005000A180472018081616300062                                                
6000900008866000221                                                                                                             
7PESE                                                                                000000000005000                            
50000210201808162018081700009125             PES0000040000D010352018081614340131                                                
6000900009125000236                                                                                                             
7PESE                                                                                000000000040000                            
50000310201808162018081700010778             PES0000050000M600172018081611210002                                                
6000900010778000284                                                                                                             
7PESE                                                                                000000000050000                            
50000410201808162018081700013749             PES0000005000A230672018081610130014                                                
6000900013749000279                                                                                                             
7PESE                                                                                000000000005000                            
50000510201808162018081700014215             PES0000010000D005392018081616210161                                                
6000900014215000236                                                                                                             
7PESE                                                                                000000000010000                            
50000610201808162018081700015467             PES0000005000A028662018081614300060                                                
6000900015467000200                                                                                                             
7PESE                                                                                000000000005000                            
50000710201808162018081700015732             PES0000005000D005802018081611040013                                                
6000900015732000290                                                                                                             
7PESE                                                                                000000000005000                            
50000810201808162018081700015911             PES0000008500A213502018081612420006                                                
6000900015911000242                                                                                                             
7PESE                                                                                000000000008500                            
50000910201808162018081700016548             PES0000037000A103002018081613290036                                                
6000900016548000242                                                                                                             
7PESE                                                                                000000000037000                            
50001010201808162018081700017034             PES0000020000A231062018081609340020                                                
6000900017034000257                                                                                                             
7PESE                                                                                000000000020000                            
50001110201808162018081700017652             PES0000040000A274662018081613290064                                                
6000900017652000221                                                                                                             
7PESE                                                                                000000000040000                            
50001210201808162018081700017696             PES0000020000A171712018081617050050                                                
6000900017696000263                                                                                                             
7PESE                                                                                000000000020000                            
50001310201808162018081700018574             PES0000015000D002262018081615460165                                                
6000900018574000278                                                                                                             
7PESE                                                                                000000000015000                            
50001410201808162018081700020453             PES0000005000D005972018081611400149                                                
6000900020453000242                                                                                                             
7PESE                                                                                000000000005000                            
50001510201808162018081700021157             PES0000020000A143972018081619280049                                                
6000900021157000284                                                                                                             
7PESE                                                                                000000000020000                            
50001610201808162018081700021214             PES0000031834A086202018081612070065                                                
6000900021214000290                                                                                                             
7PESE                                                                                000000000031834                            
50001710201808162018081700021485             PES0000050000A273552018081619050019                                                
6000900021485000237                                                                                                             
7PESE                                                                                000000000050000                            
50001810201808162018081700022140             PES0000020000A200312018081617310035                                                
6000900022140000263                                                                                                             
7PESE                                                                                000000000020000                            
50001910201808162018081700022399             PES0000050000A154672018081610130021                                                
6000900022399000236                                                                                                             
7PESE                                                                                000000000050000                            
50002010201808162018081700022563             PES0000030000A039562018081612140020                                                
6000900022563000279                                                                                                             
7PESE                                                                                000000000030000                            
50002110201808162018081700022648             PES0000010000A145322018081615440003                                                
6000900022648000216                                                                                                             
7PESE                                                                                000000000010000                            
50002210201808162018081700022860             PES0000010000A170612018081610050004                                                
6000900022860000216                                                                                                             
7PESE                                                                                000000000010000                            
50002310201808162018081700023856             PES0000030000A052422018081617020020                                                
6000900023856000242                                                                                                             
7PESE                                                                                000000000030000                            
50002410201808162018081700024290             PES0000030000D007602018081610590086                                                
6000900024290000299                                                                                                             
7PESE                                                                                000000000030000                            
50002510201808162018081700024917             PES0000010000A146602018081611090008                                                
6000900024917000242                                                                                                             
7PESE                                                                                000000000010000                            
50002610201808162018081702001016             PES0000020000A173232018081617340018                                                
6000902001016000290                                                                                                             
7PESE                                                                                000000000020000                            
50002710201808162018081702001055             PES0000020000A038092018081618300035                                                
6000902001055000263                                                                                                             
7PESE                                                                                000000000020000                            
50002810201808162018081702004980             PES0000030000A160362018081610050009                                                
6000902004980000236                                                                                                             
7PESE                                                                                000000000030000                            
50002910201808162018081709055699             PES0000033293A164562018081612020116                                                
6000909055699000257                                                                                                             
7PESE                                                                                000000000033293                            
50003010201808162018081716520832             PES0000040000A143062018081611220064                                                
6000916520832000284                                                                                                             
7PESE                                                                                000000000040000                            
50003110201808162018081716820997             PES0000040000A143062018081611220065                                                
6000916820997000290                                                                                                             
7PESE                                                                                000000000040000                            
50003210201808162018081719217298             PES0000060000A211022018081610370026                                                
6000919217298000200                                                                                                             
7PESE                                                                                000000000060000                            
50003310201808162018081719513249             PES0000005000D002712018081617140301                                                
6000919513249000200                                                                                                             
7PESE                                                                                000000000005000                            
50003410201808162018081722007260             PES0000020000D004332018081618500144                                                
6000922007260000200                                                                                                             
7PESE                                                                                000000000020000                            
50003510201808162018081723507521             PES0000020000A215782018081611320067                                                
6000923507521000221                                                                                                             
7PESE                                                                                000000000020000                            
50003610201808162018081724222148             PES0000005000A081902018081610120026                                                
6000924222148000242                                                                                                             
7PESE                                                                                000000000005000                            
50003710201808162018081724222148             PES0000005000A081902018081610120025                                                
6000924222148000242                                                                                                             
7PESE                                                                                000000000005000                            
50003810201808162018081724222148             PES0000005000A081902018081610120024                                                
6000924222148000242                                                                                                             
7PESE                                                                                000000000005000                            
50003910201808162018081724222148             PES0000005000A081902018081610120023                                                
6000924222148000242                                                                                                             
7PESE                                                                                000000000005000                            
50004010201808162018081724222148             PES0000005000A081902018081610120022                                                
6000924222148000242                                                                                                             
7PESE                                                                                000000000005000                            
50004110201808162018081724222148             PES0000005000A081902018081610120021                                                
6000924222148000242                                                                                                             
7PESE                                                                                000000000005000                            
50004210201808162018081724222148             PES0000005000A081902018081610120020                                                
6000924222148000242                                                                                                             
7PESE                                                                                000000000005000                            
50004310201808162018081724222148             PES0000005000A081902018081610120019                                                
6000924222148000242                                                                                                             
7PESE                                                                                000000000005000                            
50004410201808162018081724222148             PES0000005000A081902018081610110018                                                
6000924222148000242                                                                                                             
7PESE                                                                                000000000005000                            
50004510201808162018081724222148             PES0000005000A081902018081610110017                                                
6000924222148000242                                                                                                             
7PESE                                                                                000000000005000                            
50004610201808162018081724424761             PES0000010000D004592018081612060121                                                
6000924424761000279                                                                                                             
7PESE                                                                                000000000010000                            
50004710201808162018081725007257             PES0000005000D005422018081617080229                                                
6000925007257000263                                                                                                             
7PESE                                                                                000000000005000                            
50004810201808162018081725014243             PES0000010000A214462018081617340070                                                
6000925014243000200                                                                                                             
7PESE                                                                                000000000010000                            
50004910201808162018081725100672             PES0000020000A103312018081617250037                                                
6000925100672000215                                                                                                             
7PESE                                                                                000000000020000                            
50005010201808162018081725101379             PES0000030000A112932018081610380041                                                
6000925101379000258                                                                                                             
7PESE                                                                                000000000030000                            
50005110201808162018081725102617             PES0000050000D001642018081617330148                                                
6000925102617000221                                                                                                             
7PESE                                                                                000000000050000                            
50005210201808162018081725102763             PES0000020000A146132018081609440006                                                
6000925102763000221                                                                                                             
7PESE                                                                                000000000020000                            
50005310201808162018081725103767             PES0000020000A157762018081612390051                                                
6000925103767000215                                                                                                             
7PESE                                                                                000000000020000                            
50005410201808162018081725104317             PES0000050000D002252018081611400060                                                
6000925104317000278                                                                                                             
7PESE                                                                                000000000050000                            
50005510201808162018081725108788             PES0000020000A122672018081614050026                                                
6000925108788000221                                                                                                             
7PESE                                                                                000000000020000                            
50005610201808162018081725108959             PES0000070000A121172018081610450001                                                
6000925108959000215                                                                                                             
7PESE                                                                                000000000070000                            
50005710201808162018081725109177             PES0000020000D001652018081611420067                                                
6000925109177000216                                                                                                             
7PESE                                                                                000000000020000                            
50005810201808162018081725110986             PES0000020000A100002018081609400025                                                
6000925110986000258                                                                                                             
7PESE                                                                                000000000020000                            
50005910201808162018081725112518             PES0000010000M600002018081611540007                                                
6000925112518000284                                                                                                             
7PESE                                                                                000000000010000                            
50006010201808162018081725114561             PES0000010000A205372018081614520027                                                
6000925114561000257                                                                                                             
7PESE                                                                                000000000010000                            
50006110201808162018081725116807             PES0000040000A139892018081618340070                                                
6000925116807000242                                                                                                             
7PESE                                                                                000000000040000                            
50006210201808162018081725117526             PES0000005000A025662018081616020049                                                
6000925117526000263                                                                                                             
7PESE                                                                                000000000005000                            
50006310201808162018081725119001             PES0000014500A090072018081609530014                                                
6000925119001000257                                                                                                             
7PESE                                                                                000000000014500                            
50006410201808162018081725119512             PES0000010000D003452018081613440091                                                
6000925119512000284                                                                                                             
7PESE                                                                                000000000010000                            
50006510201808162018081725123452             PES0000015000D009172018081616080130                                                
6000925123452000237                                                                                                             
7PESE                                                                                000000000015000                            
50006610201808162018081725200517             PES0000040000A267192018081609570025                                                
6000925200517000242                                                                                                             
7PESE                                                                                000000000040000                            
50006710201808162018081725202297             PES0000015000A660452018081610040008                                                
6000925202297000299                                                                                                             
7PESE                                                                                000000000015000                            
50006810201808162018081725202337             PES0000025000M600132018081610020002                                                
6000925202337000258                                                                                                             
7PESE                                                                                000000000025000                            
50006910201808162018081725202371             PES0000010000A071842018081611110056                                                
6000925202371000242                                                                                                             
7PESE                                                                                000000000010000                            
50007010201808162018081725202451             PES0000010000A182772018081611260043                                                
6000925202451000215                                                                                                             
7PESE                                                                                000000000010000                            
50007110201808162018081725204590             PES0000005000A094782018081615050009                                                
6000925204590000284                                                                                                             
7PESE                                                                                000000000005000                            
50007210201808162018081725205052             PES0000004000A170922018081610320035                                                
6000925205052000221                                                                                                             
7PESE                                                                                000000000004000                            
50007310201808162018081725205728             PES0000010000D004902018081610310032                                                
6000925205728000263                                                                                                             
7PESE                                                                                000000000010000                            
50007410201808162018081725205829             PES0000050000A153862018081616450045                                                
6000925205829000215                                                                                                             
7PESE                                                                                000000000050000                            
50007510201808162018081725206041             PES0000005000A286942018081614580053                                                
6000925206041000200                                                                                                             
7PESE                                                                                000000000005000                            
50007610201808162018081725206209             PES0000010000A158162018081618220017                                                
6000925206209000216                                                                                                             
7PESE                                                                                000000000010000                            
50007710201808162018081725207257             PES0000005000D005422018081617080228                                                
6000925207257000216                                                                                                             
7PESE                                                                                000000000005000                            
50007810201808162018081725207401             PES0000010000A153862018081609520013                                                
6000925207401000215                                                                                                             
7PESE                                                                                000000000010000                            
50007910201808162018081725208308             PES0000005000A023702018081609100046                                                
6000925208308000284                                                                                                             
7PESE                                                                                000000000005000                            
50008010201808162018081725210507             PES0000030000A206052018081610340068                                                
6000925210507000258                                                                                                             
7PESE                                                                                000000000030000                            
50008110201808162018081725210614             PES0000006000D000502018081617010068                                                
6000925210614000299                                                                                                             
7PESE                                                                                000000000006000                            
50008210201808162018081725210779             PES0000020000A215772018081609330009                                                
6000925210779000236                                                                                                             
7PESE                                                                                000000000020000                            
50008310201808162018081725211142             PES0000020000A258092018081612050085                                                
6000925211142000263                                                                                                             
7PESE                                                                                000000000020000                            
50008410201808162018081725211642             PES0000010000A259872018081612530036                                                
6000925211642000242                                                                                                             
7PESE                                                                                000000000010000                            
50008510201808162018081725211767             PES0000012000A188312018081610290013                                                
6000925211767000284                                                                                                             
7PESE                                                                                000000000012000                            
50008610201808162018081725211868             PES0000002000A071202018081609540015                                                
6000925211868000236                                                                                                             
7PESE                                                                                000000000002000                            
50008710201808162018081725211888             PES0000005000A188912018081613390072                                                
6000925211888000284                                                                                                             
7PESE                                                                                000000000005000                            
50008810201808162018081725211907             PES0000020000A154672018081610210024                                                
6000925211907000263                                                                                                             
7PESE                                                                                000000000020000                            
50008910201808162018081725212046             PES0000030000D008192018081613470082                                                
6000925212046000237                                                                                                             
7PESE                                                                                000000000030000                            
50009010201808162018081725212242             PES0000010000A158372018081609070004                                                
6000925212242000221                                                                                                             
7PESE                                                                                000000000010000                            
50009110201808162018081725212700             PES0000030000A259872018081617430062                                                
6000925212700000236                                                                                                             
7PESE                                                                                000000000030000                            
50009210201808162018081725212862             PES0000020000A053092018081613310009                                                
6000925212862000263                                                                                                             
7PESE                                                                                000000000020000                            
50009310201808162018081725213492             PES0000030000D003462018081619090159                                                
6000925213492000221                                                                                                             
7PESE                                                                                000000000030000                            
50009410201808162018081725213739             PES0000030000A188312018081611420042                                                
6000925213739000263                                                                                                             
7PESE                                                                                000000000030000                            
50009510201808162018081725213740             PES0000050000A164562018081614580086                                                
6000925213740000279                                                                                                             
7PESE                                                                                000000000050000                            
50009610201808162018081725214561             PES0000020000A205372018081614520029                                                
6000925214561000279                                                                                                             
7PESE                                                                                000000000020000                            
50009710201808162018081725214607             PES0000015000A154672018081617410131                                                
6000925214607000257                                                                                                             
7PESE                                                                                000000000015000                            
50009810201808162018081725214917             PES0000005000A285052018081610040014                                                
6000925214917000221                                                                                                             
7PESE                                                                                000000000005000                            
50009910201808162018081725216682             PES0000010000A188962018081617200015                                                
6000925216682000263                                                                                                             
7PESE                                                                                000000000010000                            
50010010201808162018081725217526             PES0000005000A025662018081616020048                                                
6000925217526000284                                                                                                             
7PESE                                                                                000000000005000                            
50010110201808162018081725217833             PES0000030000A164962018081617520066                                                
6000925217833000257                                                                                                             
7PESE                                                                                000000000030000                            
50010210201808162018081725219182             PES0000020000D001622018081611280052                                                
6000925219182000221                                                                                                             
7PESE                                                                                000000000020000                            
50010310201808162018081725219381             PES0000010000A214362018081610080017                                                
6000925219381000221                                                                                                             
7PESE                                                                                000000000010000                            
50010410201808162018081725219782             PES0000150000A263522018081611240066                                                
6000925219782000216                                                                                                             
7PESE                                                                                000000000150000                            
50010510201808162018081725219994             PES0000050000A188952018081609380013                                                
6000925219994000242                                                                                                             
7PESE                                                                                000000000050000                            
50010610201808162018081725220008             PES0000020000A284232018081617280041                                                
6000925220008000257                                                                                                             
7PESE                                                                                000000000020000                            
50010710201808162018081725220359             PES0000007000A008222018081611320061                                                
6000925220359000258                                                                                                             
7PESE                                                                                000000000007000                            
50010810201808162018081725223839             PES0000030000A168612018081619040057                                                
6000925223839000216                                                                                                             
7PESE                                                                                000000000030000                            
50010910201808162018081725223868             PES0000040000A216302018081616120049                                                
6000925223868000258                                                                                                             
7PESE                                                                                000000000040000                            
50011010201808162018081725225179             PES0000015000A112372018081612280014                                                
6000925225179000200                                                                                                             
7PESE                                                                                000000000015000                            
50011110201808162018081750006938             PES0000020000D010082018081611290023                                                
6000950006938000278                                                                                                             
7PESE                                                                                000000000020000                            
50011210201808162018081750008086             PES0000015000A132412018081612270002                                                
6000950008086000284                                                                                                             
7PESE                                                                                000000000015000                            
50011310201808162018081750008485             PES0000005000A031192018081614180012                                                
6000950008485000200                                                                                                             
7PESE                                                                                000000000005000                            
50011410201808162018081750008641             PES0000010000D005422018081616230198                                                
6000950008641000290                                                                                                             
7PESE                                                                                000000000010000                            
50011510201808162018081750008769             PES0000015100A122672018081614140038                                                
6000950008769000242                                                                                                             
7PESE                                                                                000000000015100                            
50011610201808162018081750009563             PES0000005000D002822018081610400015                                                
6000950009563000242                                                                                                             
7PESE                                                                                000000000005000                            
50011710201808162018081750010093             PES0000010000A158162018081618070001                                                
6000950010093000279                                                                                                             
7PESE                                                                                000000000010000                            
50011810201808162018081750010210             PES0000010000A141302018081616010070                                                
6000950010210000200                                                                                                             
7PESE                                                                                000000000010000                            
50011910201808162018081750011081             PES0000040000A008222018081614210051                                                
6000950011081000221                                                                                                             
7PESE                                                                                000000000040000                            
50012010201808162018081750011629             PES0000050000A095702018081610340003                                                
6000950011629000242                                                                                                             
7PESE                                                                                000000000050000                            
50012110201808162018081750011850             PES0000008000A254952018081618000021                                                
6000950011850000237                                                                                                             
7PESE                                                                                000000000008000                            
50012210201808162018081750015045             PES0000030000A222682018081615240009                                                
6000950015045000242                                                                                                             
7PESE                                                                                000000000030000                            
82018081700000100001220000025192270000000000000000000000000000000000000000122                                                   
9201808170000010000122000002519227000000000000000000000000000000000000000000122                                                 
