120180821PAGO FACIL               090060009INS. SALESIANA SAN FCO. JAVIER-ASOC                                                  
320180821000001INS. SALESIANA SAN FCO. JAVIER-ASOC                                                                              
50000110201808172018082125213984             PES0000015000A188912018081709460016                                                
6000925213984000242                                                                                                             
7PESE                                                                                000000000015000                            
50000210201808172018082125113984             PES0000015000A188912018081709460015                                                
6000925113984000221                                                                                                             
7PESE                                                                                000000000015000                            
50000310201808172018082125116711             PES0000010000A086812018081710470119                                                
6000925116711000242                                                                                                             
7PESE                                                                                000000000010000                            
50000410201808172018082150011778             PES0000007000A176982018081710090046                                                
6000950011778000257                                                                                                             
7PESE                                                                                000000000007000                            
50000510201808172018082100023061             PES0000050000A174992018081710580091                                                
6000900023061000279                                                                                                             
7PESE                                                                                000000000050000                            
50000610201808172018082123523284             PES0000015000A127812018081709300012                                                
6000923523284000221                                                                                                             
7PESE                                                                                000000000015000                            
50000710201808172018082125218378             PES0000029300A263522018081711070049                                                
6000925218378000290                                                                                                             
7PESE                                                                                000000000029300                            
50000810201808172018082100018017             PES0000125000A162822018081710190016                                                
6000900018017000257                                                                                                             
7PESE                                                                                000000000125000                            
50000910201808172018082150005948             PES0000060000A063842018081711180092                                                
6000950005948000257                                                                                                             
7PESE                                                                                000000000060000                            
50001010201808172018082125103539             PES0000500000A117772018081710040028                                                
6000925103539000279                                                                                                             
7PESE                                                                                000000000500000                            
50001110201808172018082100020042             PES0000024000A155002018081710450014                                                
6000900020042000221                                                                                                             
7PESE                                                                                000000000024000                            
50001210201808172018082125204537             PES0000002500A014732018081711180007                                                
6000925204537000279                                                                                                             
7PESE                                                                                000000000002500                            
50001310201808172018082125119136             PES0000002500A014732018081711180008                                                
6000925119136000216                                                                                                             
7PESE                                                                                000000000002500                            
50001410201808172018082100014504             PES0000020000A084182018081711370038                                                
6000900014504000216                                                                                                             
7PESE                                                                                000000000020000                            
50001510201808172018082100005291             PES0000040000A033762018081711260059                                                
6000900005291000200                                                                                                             
7PESE                                                                                000000000040000                            
50001610201808172018082125216645             PES0000015000A173472018081711130073                                                
6000925216645000278                                                                                                             
7PESE                                                                                000000000015000                            
50001710201808172018082125209579             PES0000010000A262042018081709020003                                                
6000925209579000278                                                                                                             
7PESE                                                                                000000000010000                            
50001810201808172018082125214717             PES0000100000A160582018081711130030                                                
6000925214717000299                                                                                                             
7PESE                                                                                000000000100000                            
50001910201808172018082150008779             PES0000100000A157762018081712270106                                                
6000950008779000263                                                                                                             
7PESE                                                                                000000000100000                            
50002010201808172018082125219373             PES0000005000A204432018081711160081                                                
6000925219373000263                                                                                                             
7PESE                                                                                000000000005000                            
50002110201808172018082125206371             PES0000010000A254952018081710240038                                                
6000925206371000221                                                                                                             
7PESE                                                                                000000000010000                            
50002210201808172018082100016236             PES0000010000A253322018081710270024                                                
6000900016236000200                                                                                                             
7PESE                                                                                000000000010000                            
50002310201808172018082100010629             PES0000005000A112942018081710200031                                                
6000900010629000279                                                                                                             
7PESE                                                                                000000000005000                            
50002410201808172018082100022198             PES0000020000A056262018081710470054                                                
6000900022198000263                                                                                                             
7PESE                                                                                000000000020000                            
50002510201808172018082125220269             PES0000020000A137132018081710120024                                                
6000925220269000263                                                                                                             
7PESE                                                                                000000000020000                            
50002610201808172018082125206338             PES0000003000A137132018081710140025                                                
6000925206338000278                                                                                                             
7PESE                                                                                000000000003000                            
50002710201808172018082100010213             PES0000100000A084922018081712440076                                                
6000900010213000284                                                                                                             
7PESE                                                                                000000000100000                            
50002810201808172018082125224196             PES0000030000A202582018081712570035                                                
6000925224196000200                                                                                                             
7PESE                                                                                000000000030000                            
50002910201808172018082100026313             PES0000005033A222692018081712330056                                                
6000900026313000200                                                                                                             
7PESE                                                                                000000000005033                            
50003010201808172018082125218792             PES0000010000A097432018081712400051                                                
6000925218792000290                                                                                                             
7PESE                                                                                000000000010000                            
50003110201808172018082100016116             PES0000020000A197842018081712380079                                                
6000900016116000242                                                                                                             
7PESE                                                                                000000000020000                            
50003210201808172018082150007604             PES0000005000A157712018081713050010                                                
6000950007604000258                                                                                                             
7PESE                                                                                000000000005000                            
50003310201808172018082125217719             PES0000030000A049722018081709520001                                                
6000925217719000290                                                                                                             
7PESE                                                                                000000000030000                            
50003410201808172018082125206023             PES0000005000A220672018081709400013                                                
6000925206023000221                                                                                                             
7PESE                                                                                000000000005000                            
50003510201808172018082100017200             PES0000050000D006422018081713290118                                                
6000900017200000263                                                                                                             
7PESE                                                                                000000000050000                            
50003610201808172018082150015198             PES0000005000D000282018081710300025                                                
6000950015198000299                                                                                                             
7PESE                                                                                000000000005000                            
50003710201808172018082100022618             PES0000010000A283472018081711240024                                                
6000900022618000242                                                                                                             
7PESE                                                                                000000000010000                            
50003810201808172018082124718739             PES0000020000A076262018081711400009                                                
6000924718739000200                                                                                                             
7PESE                                                                                000000000020000                            
50003910201808172018082100016688             PES0000010000A090002018081713460075                                                
6000900016688000263                                                                                                             
7PESE                                                                                000000000010000                            
50004010201808172018082124310448             PES0000300000D010082018081711520050                                                
6000924310448000284                                                                                                             
7PESE                                                                                000000000300000                            
50004110201808172018082100007196             PES0000030000D010082018081710450016                                                
6000900007196000257                                                                                                             
7PESE                                                                                000000000030000                            
50004210201808172018082125211565             PES0000030000A289092018081710440052                                                
6000925211565000284                                                                                                             
7PESE                                                                                000000000030000                            
50004310201808172018082100020950             PES0000008000A149232018081712270012                                                
6000900020950000216                                                                                                             
7PESE                                                                                000000000008000                            
50004410201808172018082125208225             PES0000010000A136932018081711360013                                                
6000925208225000216                                                                                                             
7PESE                                                                                000000000010000                            
50004510201808172018082150009872             PES0000030000A263522018081713330013                                                
6000950009872000284                                                                                                             
7PESE                                                                                000000000030000                            
50004610201808172018082150012527             PES0000000500A214362018081713540072                                                
6000950012527000200                                                                                                             
7PESE                                                                                000000000000500                            
50004710201808172018082125103447             PES0000050000A112932018081714020061                                                
6000925103447000216                                                                                                             
7PESE                                                                                000000000050000                            
50004810201808172018082125202901             PES0000050000A085792018081711530021                                                
6000925202901000263                                                                                                             
7PESE                                                                                000000000050000                            
50004910201808172018082125201704             PES0000020000A272022018081714540057                                                
6000925201704000299                                                                                                             
7PESE                                                                                000000000020000                            
50005010201808172018082125217952             PES0000008900D003462018081712520053                                                
6000925217952000284                                                                                                             
7PESE                                                                                000000000008900                            
50005110201808172018082125215176             PES0000010000D003462018081710470017                                                
6000925215176000263                                                                                                             
7PESE                                                                                000000000010000                            
50005210201808172018082150009240             PES0000040000A215582018081712480011                                                
6000950009240000242                                                                                                             
7PESE                                                                                000000000040000                            
50005310201808172018082125017785             PES0000010000A142782018081714250014                                                
6000925017785000284                                                                                                             
7PESE                                                                                000000000010000                            
50005410201808172018082125109286             PES0000050000A112942018081715300054                                                
6000925109286000221                                                                                                             
7PESE                                                                                000000000050000                            
50005510201808172018082125118783             PES0000017300A172852018081716030023                                                
6000925118783000284                                                                                                             
7PESE                                                                                000000000017300                            
50005610201808172018082125209332             PES0000010000A188952018081716250063                                                
6000925209332000290                                                                                                             
7PESE                                                                                000000000010000                            
50005710201808172018082125225804             PES0000006000A284222018081715480066                                                
6000925225804000258                                                                                                             
7PESE                                                                                000000000006000                            
50005810201808172018082100018096             PES0000020000A157762018081716000071                                                
6000900018096000216                                                                                                             
7PESE                                                                                000000000020000                            
50005910201808172018082125219209             PES0000020000D005402018081716080220                                                
6000925219209000284                                                                                                             
7PESE                                                                                000000000020000                            
50006010201808172018082102005403             PES0000015000D005402018081712430090                                                
6000902005403000200                                                                                                             
7PESE                                                                                000000000015000                            
50006110201808172018082100019957             PES0000020000A130772018081710440024                                                
6000900019957000236                                                                                                             
7PESE                                                                                000000000020000                            
50006210201808172018082125114500             PES0000020000A283242018081711100023                                                
6000925114500000263                                                                                                             
7PESE                                                                                000000000020000                            
50006310201808172018082100016556             PES0000005437A122482018081716190072                                                
6000900016556000200                                                                                                             
7PESE                                                                                000000000005437                            
50006410201808172018082100023035             PES0000005000D009902018081710500029                                                
6000900023035000242                                                                                                             
7PESE                                                                                000000000005000                            
50006510201808172018082125203630             PES0000020000D000072018081714520178                                                
6000925203630000200                                                                                                             
7PESE                                                                                000000000020000                            
50006610201808172018082125004830             PES0000010000D005762018081717170248                                                
6000925004830000221                                                                                                             
7PESE                                                                                000000000010000                            
50006710201808172018082122803819             PES0000030000D005762018081711030058                                                
6000922803819000200                                                                                                             
7PESE                                                                                000000000030000                            
50006810201808172018082125214797             PES0000010000A154112018081716020027                                                
6000925214797000299                                                                                                             
7PESE                                                                                000000000010000                            
50006910201808172018082125109814             PES0000005000D002252018081711580061                                                
6000925109814000263                                                                                                             
7PESE                                                                                000000000005000                            
50007010201808172018082125105413             PES0000020000A197842018081716280042                                                
6000925105413000299                                                                                                             
7PESE                                                                                000000000020000                            
50007110201808172018082125214406             PES0000020000A182782018081716080043                                                
6000925214406000284                                                                                                             
7PESE                                                                                000000000020000                            
50007210201808172018082125202508             PES0000050000A094782018081716230032                                                
6000925202508000242                                                                                                             
7PESE                                                                                000000000050000                            
50007310201808172018082150015082             PES0000010000A141302018081717120086                                                
6000950015082000242                                                                                                             
7PESE                                                                                000000000010000                            
50007410201808172018082100014398             PES0000028000D001642018081714030037                                                
6000900014398000257                                                                                                             
7PESE                                                                                000000000028000                            
50007510201808172018082100023994             PES0000100000A262272018081717510055                                                
6000900023994000299                                                                                                             
7PESE                                                                                000000000100000                            
50007610201808172018082100026132             PES0000010000D000302018081714200419                                                
6000900026132000284                                                                                                             
7PESE                                                                                000000000010000                            
50007710201808172018082125206442             PES0000030000D000302018081708460016                                                
6000925206442000200                                                                                                             
7PESE                                                                                000000000030000                            
50007810201808172018082100009850             PES0000003000A075792018081718310052                                                
6000900009850000237                                                                                                             
7PESE                                                                                000000000003000                            
50007910201808172018082150011336             PES0000100000A026682018081718370035                                                
6000950011336000221                                                                                                             
7PESE                                                                                000000000100000                            
50008010201808172018082150006427             PES0000020000D002302018081714490072                                                
6000950006427000237                                                                                                             
7PESE                                                                                000000000020000                            
50008110201808172018082124307467             PES0000010000D009272018081717520138                                                
6000924307467000284                                                                                                             
7PESE                                                                                000000000010000                            
50008210201808172018082125212574             PES0000010000D009272018081716410100                                                
6000925212574000216                                                                                                             
7PESE                                                                                000000000010000                            
50008310201808172018082125108210             PES0000020000A258272018081716140027                                                
6000925108210000299                                                                                                             
7PESE                                                                                000000000020000                            
50008410201808172018082100016226             PES0000001731A121512018081718240020                                                
6000900016226000284                                                                                                             
7PESE                                                                                000000000001731                            
50008510201808172018082125226091             PES0000010000A080372018081718000064                                                
6000925226091000200                                                                                                             
7PESE                                                                                000000000010000                            
50008610201808172018082125026091             PES0000010000A080372018081718000065                                                
6000925026091000257                                                                                                             
7PESE                                                                                000000000010000                            
50008710201808172018082125126091             PES0000009500A080372018081718000066                                                
6000925126091000279                                                                                                             
7PESE                                                                                000000000009500                            
50008810201808172018082150009600             PES0000020000A205372018081717370008                                                
6000950009600000200                                                                                                             
7PESE                                                                                000000000020000                            
50008910201808172018082125219489             PES0000010000A180912018081718390053                                                
6000925219489000216                                                                                                             
7PESE                                                                                000000000010000                            
50009010201808172018082125204151             PES0000020000A214462018081717510031                                                
6000925204151000258                                                                                                             
7PESE                                                                                000000000020000                            
50009110201808172018082124710720             PES0000005000A125352018081710240001                                                
6000924710720000200                                                                                                             
7PESE                                                                                000000000005000                            
50009210201808172018082125218779             PES0000020000A187122018081716440038                                                
6000925218779000299                                                                                                             
7PESE                                                                                000000000020000                            
50009310201808172018082150010876             PES0000001700A046092018081719300025                                                
6000950010876000257                                                                                                             
7PESE                                                                                000000000001700                            
50009410201808172018082100000709             PES0000050000A097872018081719360032                                                
6000900000709000200                                                                                                             
7PESE                                                                                000000000050000                            
50009510201808172018082125114274             PES0000100000D000502018081718470031                                                
6000925114274000237                                                                                                             
7PESE                                                                                000000000100000                            
50009610201808172018082125214331             PES0000010000L192412018081714340656                                                
6000925214331000278                                                                                                             
7PESE                                                                                000000000010000                            
50009710201808182018082150007967             PES0000020000A089982018081809420025                                                
6000950007967000258                                                                                                             
7PESE                                                                                000000000020000                            
50009810201808182018082150008053             PES0000002400A214442018081809380003                                                
6000950008053000200                                                                                                             
7PESE                                                                                000000000002400                            
50009910201808182018082150006602             PES0000005000A063842018081810310020                                                
6000950006602000242                                                                                                             
7PESE                                                                                000000000005000                            
50010010201808182018082125218078             PES0000015000A035742018081811590094                                                
6000925218078000257                                                                                                             
7PESE                                                                                000000000015000                            
50010110201808182018082102003414             PES0000010000D005802018081809490005                                                
6000902003414000279                                                                                                             
7PESE                                                                                000000000010000                            
50010210201808182018082125218139             PES0000020000A180902018081811160051                                                
6000925218139000200                                                                                                             
7PESE                                                                                000000000020000                            
50010310201808182018082123700389             PES0000100000A160142018081811470031                                                
6000923700389000258                                                                                                             
7PESE                                                                                000000000100000                            
50010410201808182018082100021323             PES0000005000A101232018081812540009                                                
6000900021323000200                                                                                                             
7PESE                                                                                000000000005000                            
50010510201808182018082125100814             PES0000020000A254962018081811450037                                                
6000925100814000263                                                                                                             
7PESE                                                                                000000000020000                            
50010610201808182018082150009633             PES0000005300A158162018081812140062                                                
6000950009633000284                                                                                                             
7PESE                                                                                000000000005300                            
50010710201808182018082125206946             PES0000020000A173472018081812230017                                                
6000925206946000216                                                                                                             
7PESE                                                                                000000000020000                            
50010810201808182018082125006946             PES0000020000A173472018081812230018                                                
6000925006946000263                                                                                                             
7PESE                                                                                000000000020000                            
50010910201808182018082100011962             PES0000100000A113672018081810120007                                                
6000900011962000221                                                                                                             
7PESE                                                                                000000000100000                            
50011010201808182018082125213435             PES0000010000A090052018081810440010                                                
6000925213435000284                                                                                                             
7PESE                                                                                000000000010000                            
50011110201808182018082125112147             PES0000020000A214762018081812160003                                                
6000925112147000263                                                                                                             
7PESE                                                                                000000000020000                            
50011210201808182018082150010091             PES0000010000D002102018081811430051                                                
6000950010091000200                                                                                                             
7PESE                                                                                000000000010000                            
50011310201808182018082100019447             PES0000010000A211392018081812440020                                                
6000900019447000236                                                                                                             
7PESE                                                                                000000000010000                            
50011410201808182018082125220235             PES0000020000A211392018081812260007                                                
6000925220235000257                                                                                                             
7PESE                                                                                000000000020000                            
50011510201808182018082123509658             PES0000030000A198772018081810380052                                                
6000923509658000242                                                                                                             
7PESE                                                                                000000000030000                            
50011610201808182018082125215055             PES0000015000A260572018081810030015                                                
6000925215055000263                                                                                                             
7PESE                                                                                000000000015000                            
50011710201808182018082125210101             PES0000010000D008012018081811470074                                                
6000925210101000284                                                                                                             
7PESE                                                                                000000000010000                            
50011810201808182018082125010101             PES0000010000D008012018081811470075                                                
6000925010101000237                                                                                                             
7PESE                                                                                000000000010000                            
50011910201808182018082125212376             PES0000009500D005312018081818040268                                                
6000925212376000258                                                                                                             
7PESE                                                                                000000000009500                            
50012010201808182018082125112376             PES0000009500D005312018081818040267                                                
6000925112376000236                                                                                                             
7PESE                                                                                000000000009500                            
50012110201808182018082125113260             PES0000015000L192482018081814498231                                                
6000925113260000221                                                                                                             
7PESE                                                                                000000000015000                            
50012210201808192018082123517512             PES0000030000D005832018081909320015                                                
6000923517512000263                                                                                                             
7PESE                                                                                000000000030000                            
50012310201808192018082150015437             PES0000010000D006632018081920160204                                                
6000950015437000257                                                                                                             
7PESE                                                                                000000000010000                            
50012410201808192018082124204439             PES0000050000D005612018081912060050                                                
6000924204439000216                                                                                                             
7PESE                                                                                000000000050000                            
50012510201808192018082125212596             PES0000010000L193422018081916113142                                                
6000925212596000237                                                                                                             
7PESE                                                                                000000000010000                            
50012610201808202018082100016206             PES0000010000D002632018082009420015                                                
6000900016206000236                                                                                                             
7PESE                                                                                000000000010000                            
50012710201808202018082100017927             PES0000020000D006462018082020440258                                                
6000900017927000263                                                                                                             
7PESE                                                                                000000000020000                            
50012810201808202018082100021722             PES0000015000A166402018082018340001                                                
6000900021722000221                                                                                                             
7PESE                                                                                000000000015000                            
50012910201808202018082102004400             PES0000020000D000512018082016520173                                                
6000902004400000258                                                                                                             
7PESE                                                                                000000000020000                            
50013010201808202018082124424277             PES0000060000D002892018082012040021                                                
6000924424277000237                                                                                                             
7PESE                                                                                000000000060000                            
50013110201808202018082125104366             PES0000010000D005612018082016310163                                                
6000925104366000263                                                                                                             
7PESE                                                                                000000000010000                            
50013210201808202018082150006851             PES0000040081D001332018082009460020                                                
6000950006851000263                                                                                                             
7PESE                                                                                000000000040081                            
82018082100000100001320000038601820000000000000000000000000000000000000000132                                                   
9201808210000010000132000003860182000000000000000000000000000000000000000000132                                                 
