120180822PAGO FACIL               090060009INS. SALESIANA SAN FCO. JAVIER-ASOC                                                  
320180822000001INS. SALESIANA SAN FCO. JAVIER-ASOC                                                                              
50000110201808212018082200002954             PES0000020000A128742018082121000025                                                
6000900002954000279                                                                                                             
7PESE                                                                                000000000020000                            
50000210201808212018082200006848             PES0000010000A222632018082112060052                                                
6000900006848000258                                                                                                             
7PESE                                                                                000000000010000                            
50000310201808212018082200008430             PES0000003000D002752018082118120005                                                
6000900008430000284                                                                                                             
7PESE                                                                                000000000003000                            
50000410201808212018082200009850             PES0000004000A075792018082109530022                                                
6000900009850000237                                                                                                             
7PESE                                                                                000000000004000                            
50000510201808212018082200010406             PES0000040000A117772018082113570035                                                
6000900010406000299                                                                                                             
7PESE                                                                                000000000040000                            
50000610201808212018082200010766             PES0000002000A284242018082114490018                                                
6000900010766000284                                                                                                             
7PESE                                                                                000000000002000                            
50000710201808212018082200014515             PES0000020000A180852018082117030027                                                
6000900014515000279                                                                                                             
7PESE                                                                                000000000020000                            
50000810201808212018082200015668             PES0000020000A286942018082114240036                                                
6000900015668000263                                                                                                             
7PESE                                                                                000000000020000                            
50000910201808212018082200016058             PES0000025000A142382018082113320006                                                
6000900016058000290                                                                                                             
7PESE                                                                                000000000025000                            
50001010201808212018082200016990             PES0000001700A260762018082110530079                                                
6000900016990000257                                                                                                             
7PESE                                                                                000000000001700                            
50001110201808212018082200017624             PES0000020000A164952018082111410077                                                
6000900017624000216                                                                                                             
7PESE                                                                                000000000020000                            
50001210201808212018082200018293             PES0000010000D002632018082114420153                                                
6000900018293000242                                                                                                             
7PESE                                                                                000000000010000                            
50001310201808212018082200020084             PES0000020000D005132018082111200063                                                
6000900020084000290                                                                                                             
7PESE                                                                                000000000020000                            
50001410201808212018082200020198             PES0000008000A204432018082116230022                                                
6000900020198000279                                                                                                             
7PESE                                                                                000000000008000                            
50001510201808212018082200020366             PES0000020000A222642018082111000050                                                
6000900020366000263                                                                                                             
7PESE                                                                                000000000020000                            
50001610201808212018082200021644             PES0000020000D009432018082116070054                                                
6000900021644000236                                                                                                             
7PESE                                                                                000000000020000                            
50001710201808212018082200022930             PES0000020000A134592018082109220008                                                
6000900022930000258                                                                                                             
7PESE                                                                                000000000020000                            
50001810201808212018082200023335             PES0000010000D002332018082109550028                                                
6000900023335000284                                                                                                             
7PESE                                                                                000000000010000                            
50001910201808212018082200024340             PES0000030000A270592018082111030085                                                
6000900024340000284                                                                                                             
7PESE                                                                                000000000030000                            
50002010201808212018082202003018             PES0000010000A620202018082111410017                                                
6000902003018000258                                                                                                             
7PESE                                                                                000000000010000                            
50002110201808212018082202003065             PES0000010200M620032018082112540033                                                
6000902003065000279                                                                                                             
7PESE                                                                                000000000010200                            
50002210201808212018082202003567             PES0000100000M700132018082112010035                                                
6000902003567000221                                                                                                             
7PESE                                                                                000000000100000                            
50002310201808212018082202003740             PES0000025000A188902018082111150068                                                
6000902003740000258                                                                                                             
7PESE                                                                                000000000025000                            
50002410201808212018082205006985             PES0000100000A086982018082115090036                                                
6000905006985000242                                                                                                             
7PESE                                                                                000000000100000                            
50002510201808212018082214919200             PES0000040000D005992018082109490037                                                
6000914919200000284                                                                                                             
7PESE                                                                                000000000040000                            
50002610201808212018082221019959             PES0000010000A165572018082114370106                                                
6000921019959000200                                                                                                             
7PESE                                                                                000000000010000                            
50002710201808212018082221024710             PES0000040000A128432018082118420049                                                
6000921024710000278                                                                                                             
7PESE                                                                                000000000040000                            
50002810201808212018082223717671             PES0000100000A097712018082112290010                                                
6000923717671000242                                                                                                             
7PESE                                                                                000000000100000                            
50002910201808212018082224105078             PES0000020000A127482018082116560010                                                
6000924105078000242                                                                                                             
7PESE                                                                                000000000020000                            
50003010201808212018082224316928             PES0000050000A274672018082112090068                                                
6000924316928000284                                                                                                             
7PESE                                                                                000000000050000                            
50003110201808212018082224708880             PES0000010000A122662018082114070071                                                
6000924708880000299                                                                                                             
7PESE                                                                                000000000010000                            
50003210201808212018082224808880             PES0000010000A122662018082114070073                                                
6000924808880000216                                                                                                             
7PESE                                                                                000000000010000                            
50003310201808212018082224813944             PES0000050000A154672018082116440073                                                
6000924813944000284                                                                                                             
7PESE                                                                                000000000050000                            
50003410201808212018082224908880             PES0000010000A122662018082114070069                                                
6000924908880000242                                                                                                             
7PESE                                                                                000000000010000                            
50003510201808212018082224914202             PES0000010000A090052018082112130019                                                
6000924914202000279                                                                                                             
7PESE                                                                                000000000010000                            
50003610201808212018082224914508             PES0000004640A008222018082115510011                                                
6000924914508000236                                                                                                             
7PESE                                                                                000000000004640                            
50003710201808212018082225008880             PES0000010000A122662018082114070070                                                
6000925008880000236                                                                                                             
7PESE                                                                                000000000010000                            
50003810201808212018082225011674             PES0000005000M600552018082115510064                                                
6000925011674000237                                                                                                             
7PESE                                                                                000000000005000                            
50003910201808212018082225022975             PES0000010000A048772018082118150031                                                
6000925022975000290                                                                                                             
7PESE                                                                                000000000010000                            
50004010201808212018082225100413             PES0000004000M600072018082110550019                                                
6000925100413000263                                                                                                             
7PESE                                                                                000000000004000                            
50004110201808212018082225100413             PES0000036000M600072018082110550021                                                
6000925100413000263                                                                                                             
7PESE                                                                                000000000036000                            
50004210201808212018082225104705             PES0000015000A214382018082116440030                                                
6000925104705000237                                                                                                             
7PESE                                                                                000000000015000                            
50004310201808212018082225107136             PES0000010000A089982018082112250045                                                
6000925107136000299                                                                                                             
7PESE                                                                                000000000010000                            
50004410201808212018082225107377             PES0000030000A044482018082113280042                                                
6000925107377000258                                                                                                             
7PESE                                                                                000000000030000                            
50004510201808212018082225108880             PES0000010000A122662018082114070072                                                
6000925108880000258                                                                                                             
7PESE                                                                                000000000010000                            
50004610201808212018082225110182             PES0000005900A180852018082114210048                                                
6000925110182000290                                                                                                             
7PESE                                                                                000000000005900                            
50004710201808212018082225111574             PES0000010000A222632018082111280031                                                
6000925111574000242                                                                                                             
7PESE                                                                                000000000010000                            
50004810201808212018082225111673             PES0000030000A213502018082112050017                                                
6000925111673000221                                                                                                             
7PESE                                                                                000000000030000                            
50004910201808212018082225111916             PES0000020000M600522018082111000017                                                
6000925111916000221                                                                                                             
7PESE                                                                                000000000020000                            
50005010201808212018082225113338             PES0000005281D002722018082114410148                                                
6000925113338000242                                                                                                             
7PESE                                                                                000000000005281                            
50005110201808212018082225114115             PES0000020000D000872018082109090013                                                
6000925114115000200                                                                                                             
7PESE                                                                                000000000020000                            
50005210201808212018082225114916             PES0000020000A112932018082113330040                                                
6000925114916000263                                                                                                             
7PESE                                                                                000000000020000                            
50005310201808212018082225114994             PES0000020000A075022018082112100046                                                
6000925114994000299                                                                                                             
7PESE                                                                                000000000020000                            
50005410201808212018082225115145             PES0000009500A088382018082119180052                                                
6000925115145000221                                                                                                             
7PESE                                                                                000000000009500                            
50005510201808212018082225115208             PES0000010000D010172018082115040182                                                
6000925115208000242                                                                                                             
7PESE                                                                                000000000010000                            
50005610201808212018082225115728             PES0000010000D001872018082112150093                                                
6000925115728000278                                                                                                             
7PESE                                                                                000000000010000                            
50005710201808212018082225116182             PES0000020000A161382018082111400002                                                
6000925116182000263                                                                                                             
7PESE                                                                                000000000020000                            
50005810201808212018082225118092             PES0000009500A206052018082114500043                                                
6000925118092000263                                                                                                             
7PESE                                                                                000000000009500                            
50005910201808212018082225119474             PES0000015000A214442018082112480065                                                
6000925119474000299                                                                                                             
7PESE                                                                                000000000015000                            
50006010201808212018082225122552             PES0000020000A170612018082115220038                                                
6000925122552000200                                                                                                             
7PESE                                                                                000000000020000                            
50006110201808212018082225126109             PES0000014300A258272018082115090018                                                
6000925126109000242                                                                                                             
7PESE                                                                                000000000014300                            
50006210201808212018082225126125             PES0000010000D000042018082114230107                                                
6000925126125000258                                                                                                             
7PESE                                                                                000000000010000                            
50006310201808212018082225200587             PES0000030000A112932018082110230057                                                
6000925200587000221                                                                                                             
7PESE                                                                                000000000030000                            
50006410201808212018082225201690             PES0000050000A263632018082119120036                                                
6000925201690000263                                                                                                             
7PESE                                                                                000000000050000                            
50006510201808212018082225201850             PES0000100000A067092018082112090065                                                
6000925201850000299                                                                                                             
7PESE                                                                                000000000100000                            
50006610201808212018082225202658             PES0000030000A122662018082110240029                                                
6000925202658000284                                                                                                             
7PESE                                                                                000000000030000                            
50006710201808212018082225204705             PES0000015000A214382018082116440029                                                
6000925204705000263                                                                                                             
7PESE                                                                                000000000015000                            
50006810201808212018082225206233             PES0000050000A220692018082116140070                                                
6000925206233000284                                                                                                             
7PESE                                                                                000000000050000                            
50006910201808212018082225206251             PES0000006000A222682018082117360041                                                
6000925206251000263                                                                                                             
7PESE                                                                                000000000006000                            
50007010201808212018082225206667             PES0000050000A220692018082115020020                                                
6000925206667000258                                                                                                             
7PESE                                                                                000000000050000                            
50007110201808212018082225208306             PES0000150000A222692018082112000035                                                
6000925208306000216                                                                                                             
7PESE                                                                                000000000150000                            
50007210201808212018082225209429             PES0000010000A064992018082118060078                                                
6000925209429000236                                                                                                             
7PESE                                                                                000000000010000                            
50007310201808212018082225210438             PES0000010000D005422018082109230013                                                
6000925210438000257                                                                                                             
7PESE                                                                                000000000010000                            
50007410201808212018082225211140             PES0000010000A132412018082116470034                                                
6000925211140000290                                                                                                             
7PESE                                                                                000000000010000                            
50007510201808212018082225211282             PES0000020000A286942018082110140067                                                
6000925211282000284                                                                                                             
7PESE                                                                                000000000020000                            
50007610201808212018082225211459             PES0000004000D005132018082116140195                                                
6000925211459000284                                                                                                             
7PESE                                                                                000000000004000                            
50007710201808212018082225213247             PES0000020000A260572018082111510081                                                
6000925213247000242                                                                                                             
7PESE                                                                                000000000020000                            
50007810201808212018082225213268             PES0000050000A164962018082118560002                                                
6000925213268000236                                                                                                             
7PESE                                                                                000000000050000                            
50007910201808212018082225213355             PES0000008000D000292018082115020216                                                
6000925213355000216                                                                                                             
7PESE                                                                                000000000008000                            
50008010201808212018082225213667             PES0000005000A097442018082111170012                                                
6000925213667000258                                                                                                             
7PESE                                                                                000000000005000                            
50008110201808212018082225213737             PES0000006200A184912018082111110069                                                
6000925213737000290                                                                                                             
7PESE                                                                                000000000006200                            
50008210201808212018082225213841             PES0000010000A095702018082117060003                                                
6000925213841000221                                                                                                             
7PESE                                                                                000000000010000                            
50008310201808212018082225214202             PES0000010000A090052018082112120018                                                
6000925214202000216                                                                                                             
7PESE                                                                                000000000010000                            
50008410201808212018082225214512             PES0000010000M600452018082112120051                                                
6000925214512000284                                                                                                             
7PESE                                                                                000000000010000                            
50008510201808212018082225214560             PES0000010000A157252018082110160033                                                
6000925214560000242                                                                                                             
7PESE                                                                                000000000010000                            
50008610201808212018082225215338             PES0000015000A272692018082110050066                                                
6000925215338000263                                                                                                             
7PESE                                                                                000000000015000                            
50008710201808212018082225215631             PES0000020000A162372018082115030038                                                
6000925215631000263                                                                                                             
7PESE                                                                                000000000020000                            
50008810201808212018082225217951             PES0000010000A139942018082118060023                                                
6000925217951000242                                                                                                             
7PESE                                                                                000000000010000                            
50008910201808212018082225218092             PES0000010000A206052018082114500044                                                
6000925218092000299                                                                                                             
7PESE                                                                                000000000010000                            
50009010201808212018082225218308             PES0000020078D002182018082115240121                                                
6000925218308000221                                                                                                             
7PESE                                                                                000000000020078                            
50009110201808212018082225218708             PES0000009500A260572018082111050055                                                
6000925218708000284                                                                                                             
7PESE                                                                                000000000009500                            
50009210201808212018082225218708             PES0000009500A260572018082111040054                                                
6000925218708000284                                                                                                             
7PESE                                                                                000000000009500                            
50009310201808212018082225218816             PES0000015000A016922018082110460034                                                
6000925218816000257                                                                                                             
7PESE                                                                                000000000015000                            
50009410201808212018082225219439             PES0000015000A294592018082117090070                                                
6000925219439000299                                                                                                             
7PESE                                                                                000000000015000                            
50009510201808212018082225219474             PES0000015000A214442018082112480066                                                
6000925219474000216                                                                                                             
7PESE                                                                                000000000015000                            
50009610201808212018082225219841             PES0000006000D000292018082115020215                                                
6000925219841000290                                                                                                             
7PESE                                                                                000000000006000                            
50009710201808212018082225219870             PES0000010000A142512018082114450006                                                
6000925219870000237                                                                                                             
7PESE                                                                                000000000010000                            
50009810201808212018082225219961             PES0000020000A263522018082115540005                                                
6000925219961000263                                                                                                             
7PESE                                                                                000000000020000                            
50009910201808212018082225222037             PES0000008000A230512018082117520009                                                
6000925222037000284                                                                                                             
7PESE                                                                                000000000008000                            
50010010201808212018082250006059             PES0000015000M600002018082110090001                                                
6000950006059000221                                                                                                             
7PESE                                                                                000000000015000                            
50010110201808212018082250007500             PES0000040000D005312018082113030137                                                
6000950007500000200                                                                                                             
7PESE                                                                                000000000040000                            
50010210201808212018082250007763             PES0000050000D004372018082109070010                                                
6000950007763000284                                                                                                             
7PESE                                                                                000000000050000                            
50010310201808212018082250008355             PES0000007000A065362018082108320021                                                
6000950008355000216                                                                                                             
7PESE                                                                                000000000007000                            
50010410201808212018082250008534             PES0000010000A172462018082118010101                                                
6000950008534000263                                                                                                             
7PESE                                                                                000000000010000                            
50010510201808212018082250008654             PES0000000500D005312018082111370092                                                
6000950008654000221                                                                                                             
7PESE                                                                                000000000000500                            
50010610201808212018082250009488             PES0000020000M600002018082110230003                                                
6000950009488000258                                                                                                             
7PESE                                                                                000000000020000                            
50010710201808212018082250009748             PES0000025000D002262018082113260177                                                
6000950009748000200                                                                                                             
7PESE                                                                                000000000025000                            
50010810201808212018082250009889             PES0000005000D002102018082111190063                                                
6000950009889000257                                                                                                             
7PESE                                                                                000000000005000                            
50010910201808212018082250010367             PES0000040000A151582018082112470002                                                
6000950010367000284                                                                                                             
7PESE                                                                                000000000040000                            
50011010201808212018082250010669             PES0000010000A154672018082111210042                                                
6000950010669000200                                                                                                             
7PESE                                                                                000000000010000                            
50011110201808212018082250011889             PES0000020000A220662018082118060051                                                
6000950011889000221                                                                                                             
7PESE                                                                                000000000020000                            
50011210201808212018082250012017             PES0000015000D009612018082116570194                                                
6000950012017000200                                                                                                             
7PESE                                                                                000000000015000                            
50011310201808212018082250012408             PES0000010000A024182018082109400034                                                
6000950012408000279                                                                                                             
7PESE                                                                                000000000010000                            
50011410201808212018082250012577             PES0000025000A148262018082117340094                                                
6000950012577000236                                                                                                             
7PESE                                                                                000000000025000                            
50011510201808212018082250012796             PES0000015000A044482018082111390022                                                
6000950012796000279                                                                                                             
7PESE                                                                                000000000015000                            
50011610201808212018082250012940             PES0000020000A700062018082108150003                                                
6000950012940000278                                                                                                             
7PESE                                                                                000000000020000                            
82018082200000100001160000024577990000000000000000000000000000000000000000116                                                   
9201808220000010000116000002457799000000000000000000000000000000000000000000116                                                 
