120180823PAGO FACIL               090060009INS. SALESIANA SAN FCO. JAVIER-ASOC                                                  
320180823000001INS. SALESIANA SAN FCO. JAVIER-ASOC                                                                              
50000110201808222018082300002643             PES0000010000A063842018082217040049                                                
6000900002643000278                                                                                                             
7PESE                                                                                000000000010000                            
50000210201808222018082300003908             PES0000100000A214442018082211250054                                                
6000900003908000237                                                                                                             
7PESE                                                                                000000000100000                            
50000310201808222018082300009258             PES0000040000A157712018082217580010                                                
6000900009258000221                                                                                                             
7PESE                                                                                000000000040000                            
50000410201808222018082300013582             PES0000020000A031192018082210110062                                                
6000900013582000200                                                                                                             
7PESE                                                                                000000000020000                            
50000510201808222018082300015673             PES0000010000A001852018082216190059                                                
6000900015673000216                                                                                                             
7PESE                                                                                000000000010000                            
50000610201808222018082300016148             PES0000040000A175232018082210400038                                                
6000900016148000284                                                                                                             
7PESE                                                                                000000000040000                            
50000710201808222018082300016163             PES0000050000A220692018082218480070                                                
6000900016163000263                                                                                                             
7PESE                                                                                000000000050000                            
50000810201808222018082300016379             PES0000015000A252912018082210190078                                                
6000900016379000221                                                                                                             
7PESE                                                                                000000000015000                            
50000910201808222018082300018134             PES0000015000A137632018082209080028                                                
6000900018134000215                                                                                                             
7PESE                                                                                000000000015000                            
50001010201808222018082300018959             PES0000500000D000072018082218030207                                                
6000900018959000258                                                                                                             
7PESE                                                                                000000000500000                            
50001110201808222018082300019767             PES0000040000A101102018082210310038                                                
6000900019767000221                                                                                                             
7PESE                                                                                000000000040000                            
50001210201808222018082300019904             PES0000010000A263522018082213090050                                                
6000900019904000200                                                                                                             
7PESE                                                                                000000000010000                            
50001310201808222018082300022344             PES0000004000A170782018082219350008                                                
6000900022344000236                                                                                                             
7PESE                                                                                000000000004000                            
50001410201808222018082300022438             PES0000016000A080062018082219580037                                                
6000900022438000263                                                                                                             
7PESE                                                                                000000000016000                            
50001510201808222018082300022873             PES0000005000M601102018082210050002                                                
6000900022873000242                                                                                                             
7PESE                                                                                000000000005000                            
50001610201808222018082300022980             PES0000010000D009162018082209370005                                                
6000900022980000284                                                                                                             
7PESE                                                                                000000000010000                            
50001710201808222018082300023455             PES0000030000A161962018082213420060                                                
6000900023455000257                                                                                                             
7PESE                                                                                000000000030000                            
50001810201808222018082300023695             PES0000020000A601142018082216460042                                                
6000900023695000284                                                                                                             
7PESE                                                                                000000000020000                            
50001910201808222018082300025361             PES0000100000A256952018082215090040                                                
6000900025361000215                                                                                                             
7PESE                                                                                000000000100000                            
50002010201808222018082302002721             PES0000010000D002022018082212010044                                                
6000902002721000290                                                                                                             
7PESE                                                                                000000000010000                            
50002110201808222018082302004251             PES0000020000D002132018082210420021                                                
6000902004251000284                                                                                                             
7PESE                                                                                000000000020000                            
50002210201808222018082302004759             PES0000020000A044482018082214170046                                                
6000902004759000242                                                                                                             
7PESE                                                                                000000000020000                            
50002310201808222018082302005070             PES0000020000A117772018082213090003                                                
6000902005070000216                                                                                                             
7PESE                                                                                000000000020000                            
50002410201808222018082322414073             PES0000015000A145662018082209520014                                                
6000922414073000200                                                                                                             
7PESE                                                                                000000000015000                            
50002510201808222018082324323907             PES0000015000A109252018082218560039                                                
6000924323907000290                                                                                                             
7PESE                                                                                000000000015000                            
50002610201808222018082324704242             PES0000050000D000072018082216290168                                                
6000924704242000299                                                                                                             
7PESE                                                                                000000000050000                            
50002710201808222018082324708963             PES0000200000A179432018082213310052                                                
6000924708963000263                                                                                                             
7PESE                                                                                000000000200000                            
50002810201808222018082324709010             PES0000020000A164952018082214260096                                                
6000924709010000242                                                                                                             
7PESE                                                                                000000000020000                            
50002910201808222018082325010671             PES0000020000A103002018082210290066                                                
6000925010671000284                                                                                                             
7PESE                                                                                000000000020000                            
50003010201808222018082325021000             PES0000010000A064092018082209200031                                                
6000925021000000263                                                                                                             
7PESE                                                                                000000000010000                            
50003110201808222018082325021298             PES0000010000A120102018082211290043                                                
6000925021298000200                                                                                                             
7PESE                                                                                000000000010000                            
50003210201808222018082325109367             PES0000010000A260932018082215060009                                                
6000925109367000221                                                                                                             
7PESE                                                                                000000000010000                            
50003310201808222018082325111615             PES0000010000A084922018082210570091                                                
6000925111615000242                                                                                                             
7PESE                                                                                000000000010000                            
50003410201808222018082325113122             PES0000009000A148262018082212530026                                                
6000925113122000284                                                                                                             
7PESE                                                                                000000000009000                            
50003510201808222018082325123112             PES0000009500A206172018082215470091                                                
6000925123112000299                                                                                                             
7PESE                                                                                000000000009500                            
50003610201808222018082325125945             PES0000020000A122662018082212020038                                                
6000925125945000284                                                                                                             
7PESE                                                                                000000000020000                            
50003710201808222018082325204893             PES0000020000A214352018082213150039                                                
6000925204893000236                                                                                                             
7PESE                                                                                000000000020000                            
50003810201808222018082325205741             PES0000020000A106002018082210300022                                                
6000925205741000263                                                                                                             
7PESE                                                                                000000000020000                            
50003910201808222018082325206644             PES0000015000L193682018082212382074                                                
6000925206644000200                                                                                                             
7PESE                                                                                000000000015000                            
50004010201808222018082325207017             PES0000015000A188892018082210400052                                                
6000925207017000284                                                                                                             
7PESE                                                                                000000000015000                            
50004110201808222018082325207162             PES0000020000D005422018082213020100                                                
6000925207162000257                                                                                                             
7PESE                                                                                000000000020000                            
50004210201808222018082325209388             PES0000010000A139132018082212270099                                                
6000925209388000236                                                                                                             
7PESE                                                                                000000000010000                            
50004310201808222018082325210852             PES0000020000A162872018082215330065                                                
6000925210852000257                                                                                                             
7PESE                                                                                000000000020000                            
50004410201808222018082325211018             PES0000005000A144722018082214490061                                                
6000925211018000284                                                                                                             
7PESE                                                                                000000000005000                            
50004510201808222018082325211723             PES0000010000A053092018082218120014                                                
6000925211723000242                                                                                                             
7PESE                                                                                000000000010000                            
50004610201808222018082325212414             PES0000015000A053092018082210030017                                                
6000925212414000257                                                                                                             
7PESE                                                                                000000000015000                            
50004710201808222018082325212523             PES0000020000M600092018082211270012                                                
6000925212523000258                                                                                                             
7PESE                                                                                000000000020000                            
50004810201808222018082325212693             PES0000010000A153862018082217540055                                                
6000925212693000242                                                                                                             
7PESE                                                                                000000000010000                            
50004910201808222018082325212884             PES0000010000A063842018082212090009                                                
6000925212884000284                                                                                                             
7PESE                                                                                000000000010000                            
50005010201808222018082325213155             PES0000010000A064992018082209330022                                                
6000925213155000284                                                                                                             
7PESE                                                                                000000000010000                            
50005110201808222018082325213223             PES0000010000A180912018082209030002                                                
6000925213223000258                                                                                                             
7PESE                                                                                000000000010000                            
50005210201808222018082325213231             PES0000005000D009612018082212140048                                                
6000925213231000215                                                                                                             
7PESE                                                                                000000000005000                            
50005310201808222018082325213941             PES0000010000D000282018082215520021                                                
6000925213941000242                                                                                                             
7PESE                                                                                000000000010000                            
50005410201808222018082325214219             PES0000030000M601012018082214270038                                                
6000925214219000284                                                                                                             
7PESE                                                                                000000000030000                            
50005510201808222018082325214263             PES0000020000A136682018082212060043                                                
6000925214263000200                                                                                                             
7PESE                                                                                000000000020000                            
50005610201808222018082325214426             PES0000005000D002252018082212330044                                                
6000925214426000237                                                                                                             
7PESE                                                                                000000000005000                            
50005710201808222018082325214582             PES0000020000D005322018082210580024                                                
6000925214582000263                                                                                                             
7PESE                                                                                000000000020000                            
50005810201808222018082325215733             PES0000005000A188182018082211210045                                                
6000925215733000242                                                                                                             
7PESE                                                                                000000000005000                            
50005910201808222018082325219001             PES0000020000A090072018082209590039                                                
6000925219001000279                                                                                                             
7PESE                                                                                000000000020000                            
50006010201808222018082350006843             PES0000100000D008272018082211000086                                                
6000950006843000200                                                                                                             
7PESE                                                                                000000000100000                            
50006110201808222018082350008826             PES0000100000A121172018082214280072                                                
6000950008826000257                                                                                                             
7PESE                                                                                000000000100000                            
50006210201808222018082350009093             PES0000010000D008452018082216250161                                                
6000950009093000242                                                                                                             
7PESE                                                                                000000000010000                            
50006310201808222018082350009997             PES0000010000M600702018082210030004                                                
6000950009997000221                                                                                                             
7PESE                                                                                000000000010000                            
50006410201808222018082350010675             PES0000020000A044482018082214560052                                                
6000950010675000284                                                                                                             
7PESE                                                                                000000000020000                            
50006510201808222018082350010697             PES0000010000A158162018082211070065                                                
6000950010697000200                                                                                                             
7PESE                                                                                000000000010000                            
50006610201808222018082350012840             PES0000012000A113132018082215270063                                                
6000950012840000258                                                                                                             
7PESE                                                                                000000000012000                            
82018082300000100000660000020905000000000000000000000000000000000000000000066                                                   
9201808230000010000066000002090500000000000000000000000000000000000000000000066                                                 
