120180725PAGO FACIL               090060009INS. SALESIANA SAN FCO. JAVIER-ASOC                                                  
320180725000001INS. SALESIANA SAN FCO. JAVIER-ASOC                                                                              
50000110201807242018072500024171             PES0000070000A153792018072319430033                                                
6000900024171000263                                                                                                             
7PESE                                                                                000000000070000                            
50000210201807242018072500006050             PES0000025000D009762018072409450021                                                
6000900006050000284                                                                                                             
7PESE                                                                                000000000025000                            
50000310201807242018072500008430             PES0000003000D002752018072413240055                                                
6000900008430000284                                                                                                             
7PESE                                                                                000000000003000                            
50000410201807242018072500012947             PES0000015000D009762018072409450022                                                
6000900012947000299                                                                                                             
7PESE                                                                                000000000015000                            
50000510201807242018072500013745             PES0000020000A154112018072413240016                                                
6000900013745000237                                                                                                             
7PESE                                                                                000000000020000                            
50000610201807242018072500014524             PES0000020000A171562018072412090070                                                
6000900014524000263                                                                                                             
7PESE                                                                                000000000020000                            
50000710201807242018072500015867             PES0000010000A100002018072413100059                                                
6000900015867000263                                                                                                             
7PESE                                                                                000000000010000                            
50000810201807242018072500017085             PES0000030000A107142018072417000084                                                
6000900017085000215                                                                                                             
7PESE                                                                                000000000030000                            
50000910201807242018072500017751             PES0000030000A211512018072413430010                                                
6000900017751000200                                                                                                             
7PESE                                                                                000000000030000                            
50001010201807242018072500018269             PES0000040000A161782018072417290031                                                
6000900018269000279                                                                                                             
7PESE                                                                                000000000040000                            
50001110201807242018072500018959             PES0000100000D000062018072416380190                                                
6000900018959000258                                                                                                             
7PESE                                                                                000000000100000                            
50001210201807242018072500018959             PES0000100000D000062018072416380189                                                
6000900018959000258                                                                                                             
7PESE                                                                                000000000100000                            
50001310201807242018072500018959             PES0000100000D000062018072416380188                                                
6000900018959000258                                                                                                             
7PESE                                                                                000000000100000                            
50001410201807242018072500018959             PES0000100000D000062018072416380187                                                
6000900018959000258                                                                                                             
7PESE                                                                                000000000100000                            
50001510201807242018072500018959             PES0000100000D000062018072416380186                                                
6000900018959000258                                                                                                             
7PESE                                                                                000000000100000                            
50001610201807242018072500020366             PES0000020000M600072018072410280003                                                
6000900020366000263                                                                                                             
7PESE                                                                                000000000020000                            
50001710201807242018072500020645             PES0000050000A031192018072416520045                                                
6000900020645000221                                                                                                             
7PESE                                                                                000000000050000                            
50001810201807242018072500020738             PES0000002000D005132018072410230030                                                
6000900020738000216                                                                                                             
7PESE                                                                                000000000002000                            
50001910201807242018072500021082             PES0000050000A149312018072418050055                                                
6000900021082000278                                                                                                             
7PESE                                                                                000000000050000                            
50002010201807242018072500022537             PES0000020000A111322018072410400047                                                
6000900022537000242                                                                                                             
7PESE                                                                                000000000020000                            
50002110201807242018072500022651             PES0000030000D002272018072412340058                                                
6000900022651000290                                                                                                             
7PESE                                                                                000000000030000                            
50002210201807242018072500024605             PES0000050000A121302018072411570036                                                
6000900024605000200                                                                                                             
7PESE                                                                                000000000050000                            
50002310201807242018072502001882             PES0000020000A164652018072411190051                                                
6000902001882000257                                                                                                             
7PESE                                                                                000000000020000                            
50002410201807242018072502003689             PES0000030000A273022018072411570056                                                
6000902003689000258                                                                                                             
7PESE                                                                                000000000030000                            
50002510201807242018072517718719             PES0000020000A278772018072410530025                                                
6000917718719000257                                                                                                             
7PESE                                                                                000000000020000                            
50002610201807242018072520902138             PES0000050000A080582018072409590022                                                
6000920902138000263                                                                                                             
7PESE                                                                                000000000050000                            
50002710201807242018072521310987             PES0000010000A115802018072412160021                                                
6000921310987000284                                                                                                             
7PESE                                                                                000000000010000                            
50002810201807242018072523714934             PES0000015000A186512018072412140120                                                
6000923714934000263                                                                                                             
7PESE                                                                                000000000015000                            
50002910201807242018072523814846             PES0000030000A150232018072413360003                                                
6000923814846000263                                                                                                             
7PESE                                                                                000000000030000                            
50003010201807242018072524219426             PES0000010000D005982018072418450103                                                
6000924219426000242                                                                                                             
7PESE                                                                                000000000010000                            
50003110201807242018072524321390             PES0000010000A160842018072410170045                                                
6000924321390000290                                                                                                             
7PESE                                                                                000000000010000                            
50003210201807242018072524321661             PES0000020000A164372018072409550050                                                
6000924321661000200                                                                                                             
7PESE                                                                                000000000020000                            
50003310201807242018072524323907             PES0000015000A109252018072418500059                                                
6000924323907000290                                                                                                             
7PESE                                                                                000000000015000                            
50003410201807242018072524807409             PES0000010000A215692018072414370051                                                
6000924807409000221                                                                                                             
7PESE                                                                                000000000010000                            
50003510201807242018072524822634             PES0000020000A174992018072411080031                                                
6000924822634000200                                                                                                             
7PESE                                                                                000000000020000                            
50003610201807242018072524915946             PES0000035000A186512018072411550104                                                
6000924915946000263                                                                                                             
7PESE                                                                                000000000035000                            
50003710201807242018072524918741             PES0000020000A116192018072419070036                                                
6000924918741000290                                                                                                             
7PESE                                                                                000000000020000                            
50003810201807242018072524926026             PES0000009500A175082018072416420038                                                
6000924926026000263                                                                                                             
7PESE                                                                                000000000009500                            
50003910201807242018072525001468             PES0000100000A173712018072414430100                                                
6000925001468000284                                                                                                             
7PESE                                                                                000000000100000                            
50004010201807242018072525001468             PES0000100000A173712018072414430099                                                
6000925001468000284                                                                                                             
7PESE                                                                                000000000100000                            
50004110201807242018072525001468             PES0000100000A173712018072414430098                                                
6000925001468000284                                                                                                             
7PESE                                                                                000000000100000                            
50004210201807242018072525004558             PES0000050000A214352018072415140021                                                
6000925004558000215                                                                                                             
7PESE                                                                                000000000050000                            
50004310201807242018072525008561             PES0000010000A165912018072413500019                                                
6000925008561000278                                                                                                             
7PESE                                                                                000000000010000                            
50004410201807242018072525010551             PES0000010000A214762018072411280045                                                
6000925010551000221                                                                                                             
7PESE                                                                                000000000010000                            
50004510201807242018072525010731             PES0000010000A165912018072413500020                                                
6000925010731000200                                                                                                             
7PESE                                                                                000000000010000                            
50004610201807242018072525018746             PES0000020000D009572018072417190098                                                
6000925018746000263                                                                                                             
7PESE                                                                                000000000020000                            
50004710201807242018072525022937             PES0000010000A147432018072413430057                                                
6000925022937000263                                                                                                             
7PESE                                                                                000000000010000                            
50004810201807242018072525023096             PES0000030000A167992018072412040061                                                
6000925023096000299                                                                                                             
7PESE                                                                                000000000030000                            
50004910201807242018072525100636             PES0000015000D003452018072412170061                                                
6000925100636000257                                                                                                             
7PESE                                                                                000000000015000                            
50005010201807242018072525102371             PES0000009500A071842018072411530077                                                
6000925102371000221                                                                                                             
7PESE                                                                                000000000009500                            
50005110201807242018072525104184             PES0000010000A182942018072412220044                                                
6000925104184000215                                                                                                             
7PESE                                                                                000000000010000                            
50005210201807242018072525104201             PES0000030000A272022018072410120012                                                
6000925104201000221                                                                                                             
7PESE                                                                                000000000030000                            
50005310201807242018072525104487             PES0000010000A033762018072415370047                                                
6000925104487000263                                                                                                             
7PESE                                                                                000000000010000                            
50005410201807242018072525105326             PES0000020000A259702018072411390023                                                
6000925105326000200                                                                                                             
7PESE                                                                                000000000020000                            
50005510201807242018072525105440             PES0000020000D000292018072410570055                                                
6000925105440000263                                                                                                             
7PESE                                                                                000000000020000                            
50005610201807242018072525105722             PES0000020000A173832018072412140045                                                
6000925105722000221                                                                                                             
7PESE                                                                                000000000020000                            
50005710201807242018072525105733             PES0000005000A048742018072413030060                                                
6000925105733000284                                                                                                             
7PESE                                                                                000000000005000                            
50005810201807242018072525105829             PES0000030000D000302018072415410273                                                
6000925105829000284                                                                                                             
7PESE                                                                                000000000030000                            
50005910201807242018072525105994             PES0000002000A197362018072417570010                                                
6000925105994000200                                                                                                             
7PESE                                                                                000000000002000                            
50006010201807242018072525106251             PES0000005500A222682018072417540022                                                
6000925106251000237                                                                                                             
7PESE                                                                                000000000005500                            
50006110201807242018072525106695             PES0000010000A117922018072411150080                                                
6000925106695000237                                                                                                             
7PESE                                                                                000000000010000                            
50006210201807242018072525107091             PES0000007730D000282018072411450043                                                
6000925107091000257                                                                                                             
7PESE                                                                                000000000007730                            
50006310201807242018072525107531             PES0000009500A286942018072412310045                                                
6000925107531000279                                                                                                             
7PESE                                                                                000000000009500                            
50006410201807242018072525107721             PES0000030000A158452018072417440007                                                
6000925107721000284                                                                                                             
7PESE                                                                                000000000030000                            
50006510201807242018072525108192             PES0000020000A160352018072417200059                                                
6000925108192000242                                                                                                             
7PESE                                                                                000000000020000                            
50006610201807242018072525109119             PES0000020000A175832018072410130024                                                
6000925109119000237                                                                                                             
7PESE                                                                                000000000020000                            
50006710201807242018072525109135             PES0000002300A063842018072411180040                                                
6000925109135000242                                                                                                             
7PESE                                                                                000000000002300                            
50006810201807242018072525109285             PES0000020000A031192018072415290018                                                
6000925109285000284                                                                                                             
7PESE                                                                                000000000020000                            
50006910201807242018072525109321             PES0000010000D002252018072415090149                                                
6000925109321000215                                                                                                             
7PESE                                                                                000000000010000                            
50007010201807242018072525109575             PES0000030000A080102018072410270023                                                
6000925109575000200                                                                                                             
7PESE                                                                                000000000030000                            
50007110201807242018072525110219             PES0000010000A135242018072411170004                                                
6000925110219000284                                                                                                             
7PESE                                                                                000000000010000                            
50007210201807242018072525110562             PES0000020000D002252018072416260195                                                
6000925110562000200                                                                                                             
7PESE                                                                                000000000020000                            
50007310201807242018072525111802             PES0000010000D004902018072411390050                                                
6000925111802000242                                                                                                             
7PESE                                                                                000000000010000                            
50007410201807242018072525113353             PES0000020000A214362018072410560020                                                
6000925113353000221                                                                                                             
7PESE                                                                                000000000020000                            
50007510201807242018072525113491             PES0000020000A146132018072415450022                                                
6000925113491000263                                                                                                             
7PESE                                                                                000000000020000                            
50007610201807242018072525113979             PES0000010000A214382018072411430031                                                
6000925113979000278                                                                                                             
7PESE                                                                                000000000010000                            
50007710201807242018072525115631             PES0000020000A162372018072416220044                                                
6000925115631000237                                                                                                             
7PESE                                                                                000000000020000                            
50007810201807242018072525116765             PES0000020000A139942018072411590021                                                
6000925116765000215                                                                                                             
7PESE                                                                                000000000020000                            
50007910201807242018072525116888             PES0000020000D009622018072415470157                                                
6000925116888000284                                                                                                             
7PESE                                                                                000000000020000                            
50008010201807242018072525117721             PES0000030000A084922018072410170064                                                
6000925117721000216                                                                                                             
7PESE                                                                                000000000030000                            
50008110201807242018072525118308             PES0000020000A081302018072417290036                                                
6000925118308000290                                                                                                             
7PESE                                                                                000000000020000                            
50008210201807242018072525118511             PES0000020000A154672018072414530038                                                
6000925118511000200                                                                                                             
7PESE                                                                                000000000020000                            
50008310201807242018072525118648             PES0000015000D000502018072419390138                                                
6000925118648000242                                                                                                             
7PESE                                                                                000000000015000                            
50008410201807242018072525119137             PES0000050000M600002018072413290031                                                
6000925119137000257                                                                                                             
7PESE                                                                                000000000050000                            
50008510201807242018072525119381             PES0000010000A214352018072410130014                                                
6000925119381000290                                                                                                             
7PESE                                                                                000000000010000                            
50008610201807242018072525119573             PES0000100000D000182018072416510211                                                
6000925119573000278                                                                                                             
7PESE                                                                                000000000100000                            
50008710201807242018072525120269             PES0000020000A141082018072416550001                                                
6000925120269000242                                                                                                             
7PESE                                                                                000000000020000                            
50008810201807242018072525122844             PES0000020000A174992018072413220020                                                
6000925122844000290                                                                                                             
7PESE                                                                                000000000020000                            
50008910201807242018072525122937             PES0000010000A147432018072413430058                                                
6000925122937000299                                                                                                             
7PESE                                                                                000000000010000                            
50009010201807242018072525123626             PES0000010000A183282018072409170018                                                
6000925123626000236                                                                                                             
7PESE                                                                                000000000010000                            
50009110201807242018072525123674             PES0000009500D002332018072413420020                                                
6000925123674000284                                                                                                             
7PESE                                                                                000000000009500                            
50009210201807242018072525126026             PES0000009500A175082018072416430039                                                
6000925126026000279                                                                                                             
7PESE                                                                                000000000009500                            
50009310201807242018072525126137             PES0000100000A175832018072411580063                                                
6000925126137000257                                                                                                             
7PESE                                                                                000000000100000                            
50009410201807242018072525126344             PES0000020000A150352018072409550017                                                
6000925126344000200                                                                                                             
7PESE                                                                                000000000020000                            
50009510201807242018072525126425             PES0000015000A153862018072412340011                                                
6000925126425000200                                                                                                             
7PESE                                                                                000000000015000                            
50009610201807242018072534002562             PES0000100000A660472018072417330067                                                
6000934002562000263                                                                                                             
7PESE                                                                                000000000100000                            
50009710201807242018072534002562             PES0000100000A660472018072417330066                                                
6000934002562000263                                                                                                             
7PESE                                                                                000000000100000                            
50009810201807242018072534002562             PES0000100000A660472018072417330065                                                
6000934002562000263                                                                                                             
7PESE                                                                                000000000100000                            
50009910201807242018072550006059             PES0000020000M600002018072410160001                                                
6000950006059000221                                                                                                             
7PESE                                                                                000000000020000                            
50010010201807242018072550006618             PES0000020000A166652018072411470180                                                
6000950006618000279                                                                                                             
7PESE                                                                                000000000020000                            
50010110201807242018072550007167             PES0000040000A222692018072414460016                                                
6000950007167000237                                                                                                             
7PESE                                                                                000000000040000                            
50010210201807242018072550007831             PES0000030000A154672018072412440015                                                
6000950007831000258                                                                                                             
7PESE                                                                                000000000030000                            
50010310201807242018072550008195             PES0000020000D008202018072412370060                                                
6000950008195000284                                                                                                             
7PESE                                                                                000000000020000                            
50010410201807242018072550008486             PES0000050000A213562018072415210018                                                
6000950008486000242                                                                                                             
7PESE                                                                                000000000050000                            
50010510201807242018072550010088             PES0000015000D004912018072413270079                                                
6000950010088000221                                                                                                             
7PESE                                                                                000000000015000                            
50010610201807242018072550011554             PES0000003680A284242018072410120058                                                
6000950011554000236                                                                                                             
7PESE                                                                                000000000003680                            
50010710201807242018072550015082             PES0000010000A141302018072416200067                                                
6000950015082000242                                                                                                             
7PESE                                                                                000000000010000                            
82018072500000100001070000032037100000000000000000000000000000000000000000107                                                   
9201807250000010000107000003203710000000000000000000000000000000000000000000107                                                 
