120180726PAGO FACIL               090060009INS. SALESIANA SAN FCO. JAVIER-ASOC                                                  
320180726000001INS. SALESIANA SAN FCO. JAVIER-ASOC                                                                              
50000110201807252018072600002572             PES0000050000A197572018072512260045                                                
6000900002572000290                                                                                                             
7PESE                                                                                000000000050000                            
50000210201807252018072600009850             PES0000003500A075792018072509430035                                                
6000900009850000237                                                                                                             
7PESE                                                                                000000000003500                            
50000310201807252018072600015950             PES0000010000A231062018072512020053                                                
6000900015950000200                                                                                                             
7PESE                                                                                000000000010000                            
50000410201807252018072600016909             PES0000015000A097432018072516360065                                                
6000900016909000242                                                                                                             
7PESE                                                                                000000000015000                            
50000510201807252018072600016975             PES0000020000A222692018072512160008                                                
6000900016975000279                                                                                                             
7PESE                                                                                000000000020000                            
50000610201807252018072600017151             PES0000020000A142382018072512120059                                                
6000900017151000215                                                                                                             
7PESE                                                                                000000000020000                            
50000710201807252018072600017235             PES0000050000A089982018072513440076                                                
6000900017235000216                                                                                                             
7PESE                                                                                000000000050000                            
50000810201807252018072600019320             PES0000005000A254952018072509480017                                                
6000900019320000221                                                                                                             
7PESE                                                                                000000000005000                            
50000910201807252018072600019921             PES0000005000A154112018072511520049                                                
6000900019921000242                                                                                                             
7PESE                                                                                000000000005000                            
50001010201807252018072600021542             PES0000030000A160402018072517230009                                                
6000900021542000242                                                                                                             
7PESE                                                                                000000000030000                            
50001110201807252018072600021771             PES0000050000D006692018072517570125                                                
6000900021771000216                                                                                                             
7PESE                                                                                000000000050000                            
50001210201807252018072600022237             PES0000100000A080062018072518030045                                                
6000900022237000290                                                                                                             
7PESE                                                                                000000000100000                            
50001310201807252018072600022237             PES0000100000A080062018072518030044                                                
6000900022237000290                                                                                                             
7PESE                                                                                000000000100000                            
50001410201807252018072600022237             PES0000100000A080062018072518020043                                                
6000900022237000290                                                                                                             
7PESE                                                                                000000000100000                            
50001510201807252018072600022273             PES0000005000A168372018072518160012                                                
6000900022273000258                                                                                                             
7PESE                                                                                000000000005000                            
50001610201807252018072600022401             PES0000010000M601282018072511130016                                                
6000900022401000242                                                                                                             
7PESE                                                                                000000000010000                            
50001710201807252018072600024316             PES0000005000A154112018072511520048                                                
6000900024316000216                                                                                                             
7PESE                                                                                000000000005000                            
50001810201807252018072600024509             PES0000050000A122862018072511240014                                                
6000900024509000221                                                                                                             
7PESE                                                                                000000000050000                            
50001910201807252018072600025928             PES0000010000D006012018072509480016                                                
6000900025928000242                                                                                                             
7PESE                                                                                000000000010000                            
50002010201807252018072602000365             PES0000080000A049942018072511390009                                                
6000902000365000284                                                                                                             
7PESE                                                                                000000000080000                            
50002110201807252018072602000935             PES0000015000A180602018072516460016                                                
6000902000935000200                                                                                                             
7PESE                                                                                000000000015000                            
50002210201807252018072602002389             PES0000020000A160402018072508340008                                                
6000902002389000263                                                                                                             
7PESE                                                                                000000000020000                            
50002310201807252018072602003212             PES0000050000A181292018072510230098                                                
6000902003212000279                                                                                                             
7PESE                                                                                000000000050000                            
50002410201807252018072602005120             PES0000020000A263522018072514280021                                                
6000902005120000200                                                                                                             
7PESE                                                                                000000000020000                            
50002510201807252018072602005565             PES0000070000A028662018072512180062                                                
6000902005565000242                                                                                                             
7PESE                                                                                000000000070000                            
50002610201807252018072619709659             PES0000020000A258772018072516350004                                                
6000919709659000279                                                                                                             
7PESE                                                                                000000000020000                            
50002710201807252018072622624515             PES0000020000A258772018072516360006                                                
6000922624515000284                                                                                                             
7PESE                                                                                000000000020000                            
50002810201807252018072622921536             PES0000040000A134882018072513130061                                                
6000922921536000200                                                                                                             
7PESE                                                                                000000000040000                            
50002910201807252018072624217996             PES0000015000A100532018072519010093                                                
6000924217996000200                                                                                                             
7PESE                                                                                000000000015000                            
50003010201807252018072624303909             PES0000050000M600052018072514490009                                                
6000924303909000290                                                                                                             
7PESE                                                                                000000000050000                            
50003110201807252018072624320581             PES0000020000A199132018072517320006                                                
6000924320581000299                                                                                                             
7PESE                                                                                000000000020000                            
50003210201807252018072624401720             PES0000010000A136732018072511350115                                                
6000924401720000237                                                                                                             
7PESE                                                                                000000000010000                            
50003310201807252018072624719277             PES0000009500A159592018072513080086                                                
6000924719277000200                                                                                                             
7PESE                                                                                000000000009500                            
50003410201807252018072624909965             PES0000010000A135242018072511320069                                                
6000924909965000221                                                                                                             
7PESE                                                                                000000000010000                            
50003510201807252018072625008883             PES0000030000A112932018072516070033                                                
6000925008883000237                                                                                                             
7PESE                                                                                000000000030000                            
50003610201807252018072625009686             PES0000020000D001472018072516150049                                                
6000925009686000258                                                                                                             
7PESP                                                                                000000000020000                            
50003710201807252018072625012412             PES0000020000A070462018072512080026                                                
6000925012412000236                                                                                                             
7PESE                                                                                000000000020000                            
50003810201807252018072625015130             PES0000010000A149692018072516000013                                                
6000925015130000200                                                                                                             
7PESE                                                                                000000000010000                            
50003910201807252018072625022769             PES0000030000A056262018072511130083                                                
6000925022769000284                                                                                                             
7PESE                                                                                000000000030000                            
50004010201807252018072625103217             PES0000020000D000292018072510350062                                                
6000925103217000215                                                                                                             
7PESE                                                                                000000000020000                            
50004110201807252018072625103432             PES0000020000D002282018072511160043                                                
6000925103432000216                                                                                                             
7PESE                                                                                000000000020000                            
50004210201807252018072625104047             PES0000005000A008222018072514050002                                                
6000925104047000200                                                                                                             
7PESE                                                                                000000000005000                            
50004310201807252018072625104329             PES0000010000D000082018072511180069                                                
6000925104329000263                                                                                                             
7PESE                                                                                000000000010000                            
50004410201807252018072625104712             PES0000005000A008222018072514050001                                                
6000925104712000258                                                                                                             
7PESE                                                                                000000000005000                            
50004510201807252018072625105332             PES0000014300D003462018072513010040                                                
6000925105332000299                                                                                                             
7PESE                                                                                000000000014300                            
50004610201807252018072625105667             PES0000020000A186552018072510440073                                                
6000925105667000284                                                                                                             
7PESE                                                                                000000000020000                            
50004710201807252018072625106260             PES0000020000D009762018072510100013                                                
6000925106260000221                                                                                                             
7PESE                                                                                000000000020000                            
50004810201807252018072625106639             PES0000010000A166652018072513140011                                                
6000925106639000221                                                                                                             
7PESE                                                                                000000000010000                            
50004910201807252018072625106741             PES0000100000A188082018072515240037                                                
6000925106741000284                                                                                                             
7PESE                                                                                000000000100000                            
50005010201807252018072625107197             PES0000005000A173832018072510510045                                                
6000925107197000279                                                                                                             
7PESE                                                                                000000000005000                            
50005110201807252018072625107233             PES0000030000A086812018072510040021                                                
6000925107233000200                                                                                                             
7PESE                                                                                000000000030000                            
50005210201807252018072625107957             PES0000020000A065362018072508530010                                                
6000925107957000290                                                                                                             
7PESE                                                                                000000000020000                            
50005310201807252018072625111201             PES0000025000D003792018072516230220                                                
6000925111201000221                                                                                                             
7PESE                                                                                000000000025000                            
50005410201807252018072625111907             PES0000020000A154672018072509310013                                                
6000925111907000237                                                                                                             
7PESE                                                                                000000000020000                            
50005510201807252018072625112523             PES0000020000M600092018072511410015                                                
6000925112523000236                                                                                                             
7PESE                                                                                000000000020000                            
50005610201807252018072625112844             PES0000010000A173852018072512070097                                                
6000925112844000263                                                                                                             
7PESE                                                                                000000000010000                            
50005710201807252018072625113344             PES0000005000A076782018072512510032                                                
6000925113344000236                                                                                                             
7PESE                                                                                000000000005000                            
50005810201807252018072625114329             PES0000005000A097432018072515310028                                                
6000925114329000200                                                                                                             
7PESE                                                                                000000000005000                            
50005910201807252018072625114967             PES0000015000A135242018072510340035                                                
6000925114967000221                                                                                                             
7PESE                                                                                000000000015000                            
50006010201807252018072625115130             PES0000009500A149692018072516000015                                                
6000925115130000221                                                                                                             
7PESE                                                                                000000000009500                            
50006110201807252018072625116618             PES0000020000D003842018072514230102                                                
6000925116618000279                                                                                                             
7PESE                                                                                000000000020000                            
50006210201807252018072625117600             PES0000010000D008012018072513040100                                                
6000925117600000216                                                                                                             
7PESE                                                                                000000000010000                            
50006310201807252018072625117953             PES0000010000D000082018072511260082                                                
6000925117953000299                                                                                                             
7PESP                                                                                000000000010000                            
50006410201807252018072625119792             PES0000005000A133952018072512030067                                                
6000925119792000216                                                                                                             
7PESE                                                                                000000000005000                            
50006510201807252018072625120243             PES0000015000A184912018072510390036                                                
6000925120243000284                                                                                                             
7PESE                                                                                000000000015000                            
50006610201807252018072625122769             PES0000030000A056262018072511130084                                                
6000925122769000200                                                                                                             
7PESE                                                                                000000000030000                            
50006710201807252018072625122991             PES0000020000A166652018072513010118                                                
6000925122991000236                                                                                                             
7PESE                                                                                000000000020000                            
50006810201807252018072650007222             PES0000070000A151252018072511100027                                                
6000950007222000279                                                                                                             
7PESE                                                                                000000000070000                            
50006910201807252018072650009402             PES0000005000A164562018072510320036                                                
6000950009402000242                                                                                                             
7PESE                                                                                000000000005000                            
50007010201807252018072650010440             PES0000100000D005392018072511060068                                                
6000950010440000200                                                                                                             
7PESP                                                                                000000000100000                            
82018072600000100000700000018718000000000000000000000000000000000000000000070                                                   
9201807260000010000070000001871800000000000000000000000000000000000000000000070                                                 
