120180727PAGO FACIL               090060009INS. SALESIANA SAN FCO. JAVIER-ASOC                                                  
320180727000001INS. SALESIANA SAN FCO. JAVIER-ASOC                                                                              
50000110201807262018072700006701             PES0000030000A114372018072612340061                                                
6000900006701000290                                                                                                             
7PESE                                                                                000000000030000                            
50000210201807262018072700007260             PES0000020000D004332018072610430044                                                
6000900007260000284                                                                                                             
7PESE                                                                                000000000020000                            
50000310201807262018072700007490             PES0000010000A097432018072610000004                                                
6000900007490000284                                                                                                             
7PESE                                                                                000000000010000                            
50000410201807262018072700008722             PES0000020000M600532018072615030028                                                
6000900008722000278                                                                                                             
7PESE                                                                                000000000020000                            
50000510201807262018072700009555             PES0000005000D008452018072610340016                                                
6000900009555000263                                                                                                             
7PESE                                                                                000000000005000                            
50000610201807262018072700010406             PES0000030000A122652018072614460052                                                
6000900010406000299                                                                                                             
7PESE                                                                                000000000030000                            
50000710201807262018072700013919             PES0000020000A166652018072615150078                                                
6000900013919000236                                                                                                             
7PESE                                                                                000000000020000                            
50000810201807262018072700014527             PES0000020000D000192018072610250017                                                
6000900014527000278                                                                                                             
7PESE                                                                                000000000020000                            
50000910201807262018072700014738             PES0000100000A065362018072615570067                                                
6000900014738000263                                                                                                             
7PESE                                                                                000000000100000                            
50001010201807262018072700014738             PES0000100000A065362018072615570066                                                
6000900014738000263                                                                                                             
7PESE                                                                                000000000100000                            
50001110201807262018072700017623             PES0000100000M600452018072612440010                                                
6000900017623000284                                                                                                             
7PESE                                                                                000000000100000                            
50001210201807262018072700017764             PES0000030000A164952018072618560080                                                
6000900017764000236                                                                                                             
7PESE                                                                                000000000030000                            
50001310201807262018072700017930             PES0000020000A159322018072610270023                                                
6000900017930000242                                                                                                             
7PESE                                                                                000000000020000                            
50001410201807262018072700019417             PES0000010000A186552018072616470066                                                
6000900019417000258                                                                                                             
7PESE                                                                                000000000010000                            
50001510201807262018072700021034             PES0000050000D003652018072619350068                                                
6000900021034000216                                                                                                             
7PESE                                                                                000000000050000                            
50001610201807262018072700021157             PES0000040000A143972018072617380021                                                
6000900021157000284                                                                                                             
7PESE                                                                                000000000040000                            
50001710201807262018072700021392             PES0000050000A148502018072609170017                                                
6000900021392000242                                                                                                             
7PESE                                                                                000000000050000                            
50001810201807262018072700022137             PES0000009500A097952018072612400005                                                
6000900022137000284                                                                                                             
7PESE                                                                                000000000009500                            
50001910201807262018072700023845             PES0000002071D007722018072616110077                                                
6000900023845000284                                                                                                             
7PESE                                                                                000000000002071                            
50002010201807262018072700024785             PES0000010000A064522018072620050031                                                
6000900024785000216                                                                                                             
7PESE                                                                                000000000010000                            
50002110201807262018072700026445             PES0000005000A188102018072614300040                                                
6000900026445000263                                                                                                             
7PESE                                                                                000000000005000                            
50002210201807262018072702002969             PES0000030000A149212018072610520003                                                
6000902002969000200                                                                                                             
7PESE                                                                                000000000030000                            
50002310201807262018072705005744             PES0000035000A286942018072612380065                                                
6000905005744000236                                                                                                             
7PESE                                                                                000000000035000                            
50002410201807262018072714405624             PES0000050000D000052018072612580101                                                
6000914405624000290                                                                                                             
7PESE                                                                                000000000050000                            
50002510201807262018072722213290             PES0000100000L193192018072612228511                                                
6000922213290000284                                                                                                             
7PESE                                                                                000000000100000                            
50002610201807262018072722414073             PES0000020000A188902018072610340023                                                
6000922414073000200                                                                                                             
7PESE                                                                                000000000020000                            
50002710201807262018072723707300             PES0000040000L193192018072612228510                                                
6000923707300000258                                                                                                             
7PESE                                                                                000000000040000                            
50002810201807262018072724420630             PES0000030000A129532018072613210043                                                
6000924420630000278                                                                                                             
7PESE                                                                                000000000030000                            
50002910201807262018072724923337             PES0000010000A145202018072619320028                                                
6000924923337000236                                                                                                             
7PESE                                                                                000000000010000                            
50003010201807262018072725000451             PES0000020000D009902018072611270037                                                
6000925000451000278                                                                                                             
7PESE                                                                                000000000020000                            
50003110201807262018072725010638             PES0000005000D002822018072618090216                                                
6000925010638000236                                                                                                             
7PESE                                                                                000000000005000                            
50003210201807262018072725013338             PES0000006425A253412018072617140076                                                
6000925013338000221                                                                                                             
7PESE                                                                                000000000006425                            
50003310201807262018072725015562             PES0000010000A173832018072612570011                                                
6000925015562000200                                                                                                             
7PESE                                                                                000000000010000                            
50003410201807262018072725017667             PES0000050000L190902018072610335214                                                
6000925017667000284                                                                                                             
7PESE                                                                                000000000050000                            
50003510201807262018072725022017             PES0000020000A080052018072610250073                                                
6000925022017000284                                                                                                             
7PESE                                                                                000000000020000                            
50003610201807262018072725100451             PES0000014300D009902018072611280038                                                
6000925100451000290                                                                                                             
7PESE                                                                                000000000014300                            
50003710201807262018072725101212             PES0000008500A063842018072618130069                                                
6000925101212000242                                                                                                             
7PESE                                                                                000000000008500                            
50003810201807262018072725102858             PES0000010000A173802018072617070080                                                
6000925102858000299                                                                                                             
7PESE                                                                                000000000010000                            
50003910201807262018072725104823             PES0000010000A154672018072614220026                                                
6000925104823000236                                                                                                             
7PESE                                                                                000000000010000                            
50004010201807262018072725104859             PES0000009500A106002018072616000060                                                
6000925104859000216                                                                                                             
7PESE                                                                                000000000009500                            
50004110201807262018072725105080             PES0000010000A106002018072616300081                                                
6000925105080000200                                                                                                             
7PESE                                                                                000000000010000                            
50004210201807262018072725105174             PES0000070000A153892018072616510034                                                
6000925105174000236                                                                                                             
7PESE                                                                                000000000070000                            
50004310201807262018072725105463             PES0000100000A139912018072613150004                                                
6000925105463000216                                                                                                             
7PESE                                                                                000000000100000                            
50004410201807262018072725106336             PES0000010000A197362018072617400010                                                
6000925106336000279                                                                                                             
7PESE                                                                                000000000010000                            
50004510201807262018072725108549             PES0000015000D008472018072609470005                                                
6000925108549000221                                                                                                             
7PESE                                                                                000000000015000                            
50004610201807262018072725109183             PES0000014300D008462018072611380027                                                
6000925109183000200                                                                                                             
7PESE                                                                                000000000014300                            
50004710201807262018072725111474             PES0000020000A171562018072616390098                                                
6000925111474000236                                                                                                             
7PESE                                                                                000000000020000                            
50004810201807262018072725111596             PES0000009500D001722018072618010046                                                
6000925111596000263                                                                                                             
7PESE                                                                                000000000009500                            
50004910201807262018072725111826             PES0000050000A063842018072615460013                                                
6000925111826000237                                                                                                             
7PESE                                                                                000000000050000                            
50005010201807262018072725112654             PES0000020000A188952018072616470021                                                
6000925112654000258                                                                                                             
7PESE                                                                                000000000020000                            
50005110201807262018072725113151             PES0000080000D000512018072621020103                                                
6000925113151000221                                                                                                             
7PESP                                                                                000000000080000                            
50005210201807262018072725113200             PES0000009500A149402018072618440056                                                
6000925113200000279                                                                                                             
7PESE                                                                                000000000009500                            
50005310201807262018072725113435             PES0000020000A173862018072615520008                                                
6000925113435000258                                                                                                             
7PESE                                                                                000000000020000                            
50005410201807262018072725113667             PES0000005000D010662018072615190042                                                
6000925113667000236                                                                                                             
7PESE                                                                                000000000005000                            
50005510201807262018072725113983             PES0000030000A188902018072611110037                                                
6000925113983000284                                                                                                             
7PESE                                                                                000000000030000                            
50005610201807262018072725114051             PES0000004000A263522018072618260092                                                
6000925114051000257                                                                                                             
7PESE                                                                                000000000004000                            
50005710201807262018072725114221             PES0000020000A025662018072615220026                                                
6000925114221000200                                                                                                             
7PESE                                                                                000000000020000                            
50005810201807262018072725114250             PES0000030000A150232018072610190008                                                
6000925114250000242                                                                                                             
7PESE                                                                                000000000030000                            
50005910201807262018072725114716             PES0000010000A174472018072611080007                                                
6000925114716000236                                                                                                             
7PESE                                                                                000000000010000                            
50006010201807262018072725114951             PES0000040000A038212018072611090036                                                
6000925114951000284                                                                                                             
7PESE                                                                                000000000040000                            
50006110201807262018072725115562             PES0000009500A173832018072612580012                                                
6000925115562000236                                                                                                             
7PESE                                                                                000000000009500                            
50006210201807262018072725116216             PES0000020000A173872018072610220032                                                
6000925116216000242                                                                                                             
7PESE                                                                                000000000020000                            
50006310201807262018072725116532             PES0000020000A103002018072610590056                                                
6000925116532000200                                                                                                             
7PESE                                                                                000000000020000                            
50006410201807262018072725116745             PES0000010000D001722018072609190012                                                
6000925116745000263                                                                                                             
7PESE                                                                                000000000010000                            
50006510201807262018072725118271             PES0000015000A284412018072608180003                                                
6000925118271000215                                                                                                             
7PESE                                                                                000000000015000                            
50006610201807262018072725118816             PES0000014300A016922018072612410013                                                
6000925118816000221                                                                                                             
7PESE                                                                                000000000014300                            
50006710201807262018072725119191             PES0000005000A188912018072609140001                                                
6000925119191000299                                                                                                             
7PESE                                                                                000000000005000                            
50006810201807262018072725122017             PES0000020000A080052018072610260074                                                
6000925122017000200                                                                                                             
7PESE                                                                                000000000020000                            
50006910201807262018072725122224             PES0000020000A156792018072617350041                                                
6000925122224000258                                                                                                             
7PESE                                                                                000000000020000                            
50007010201807262018072725122514             PES0000014081A056382018072616010081                                                
6000925122514000279                                                                                                             
7PESE                                                                                000000000014081                            
50007110201807262018072725126106             PES0000030000A228662018072617090021                                                
6000925126106000242                                                                                                             
7PESE                                                                                000000000030000                            
50007210201807262018072750009341             PES0000003800D005272018072616330024                                                
6000950009341000290                                                                                                             
7PESE                                                                                000000000003800                            
50007310201807262018072750010241             PES0000020000A173882018072618460072                                                
6000950010241000215                                                                                                             
7PESE                                                                                000000000020000                            
50007410201807262018072750010370             PES0000030000A222682018072613290051                                                
6000950010370000263                                                                                                             
7PESE                                                                                000000000030000                            
50007510201807262018072750011554             PES0000004380A284232018072616400072                                                
6000950011554000236                                                                                                             
7PESE                                                                                000000000004380                            
50007610201807262018072750011587             PES0000013000A260572018072612150043                                                
6000950011587000215                                                                                                             
7PESE                                                                                000000000013000                            
50007710201807262018072750012179             PES0000015000A108872018072612070042                                                
6000950012179000242                                                                                                             
7PESE                                                                                000000000015000                            
50007810201807262018072750012591             PES0000010000A132412018072612130075                                                
6000950012591000278                                                                                                             
7PESE                                                                                000000000010000                            
82018072700000100000780000020016570000000000000000000000000000000000000000078                                                   
9201807270000010000078000002001657000000000000000000000000000000000000000000078                                                 
