120180730PAGO FACIL               090060009INS. SALESIANA SAN FCO. JAVIER-ASOC                                                  
320180730000001INS. SALESIANA SAN FCO. JAVIER-ASOC                                                                              
50000110201807272018073000009850             PES0000004000A075792018072710090042                                                
6000900009850000237                                                                                                             
7PESE                                                                                000000000004000                            
50000210201807272018073024221167             PES0000010000A064092018072709230041                                                
6000924221167000215                                                                                                             
7PESE                                                                                000000000010000                            
50000310201807272018073025106636             PES0000050000A166662018072710010002                                                
6000925106636000221                                                                                                             
7PESE                                                                                000000000050000                            
50000410201807272018073050011691             PES0000020000A232802018072711000063                                                
6000950011691000242                                                                                                             
7PESE                                                                                000000000020000                            
50000510201807272018073050004982             PES0000100000A621162018072709530005                                                
6000950004982000290                                                                                                             
7PESE                                                                                000000000100000                            
50000610201807272018073000021501             PES0000015000A131752018072711030059                                                
6000900021501000215                                                                                                             
7PESE                                                                                000000000015000                            
50000710201807272018073025123447             PES0000020000A145392018072710490037                                                
6000925123447000284                                                                                                             
7PESE                                                                                000000000020000                            
50000810201807272018073025119408             PES0000010000A222632018072711300053                                                
6000925119408000258                                                                                                             
7PESE                                                                                000000000010000                            
50000910201807272018073025112809             PES0000005000A157252018072711070061                                                
6000925112809000237                                                                                                             
7PESE                                                                                000000000005000                            
50001010201807272018073025019475             PES0000005000A205972018072710330011                                                
6000925019475000200                                                                                                             
7PESE                                                                                000000000005000                            
50001110201807272018073025109662             PES0000010000A173842018072711090073                                                
6000925109662000299                                                                                                             
7PESE                                                                                000000000010000                            
50001210201807272018073025100822             PES0000020000A222692018072710480050                                                
6000925100822000216                                                                                                             
7PESE                                                                                000000000020000                            
50001310201807272018073025107073             PES0000003500A222692018072710050015                                                
6000925107073000278                                                                                                             
7PESE                                                                                000000000003500                            
50001410201807272018073050011489             PES0000010000A106002018072711520052                                                
6000950011489000263                                                                                                             
7PESE                                                                                000000000010000                            
50001510201807272018073000020941             PES0000040000A126412018072710470054                                                
6000900020941000221                                                                                                             
7PESE                                                                                000000000040000                            
50001610201807272018073000018323             PES0000014680A273702018072709500003                                                
6000900018323000284                                                                                                             
7PESE                                                                                000000000014680                            
50001710201807272018073025118646             PES0000010000D001722018072709560008                                                
6000925118646000278                                                                                                             
7PESE                                                                                000000000010000                            
50001810201807272018073000022299             PES0000040000A170022018072711270010                                                
6000900022299000216                                                                                                             
7PESE                                                                                000000000040000                            
50001910201807272018073025107001             PES0000005000A135242018072709550023                                                
6000925107001000221                                                                                                             
7PESE                                                                                000000000005000                            
50002010201807272018073000005291             PES0000040000A135242018072711210054                                                
6000900005291000200                                                                                                             
7PESE                                                                                000000000040000                            
50002110201807272018073050008835             PES0000050000A149692018072712030049                                                
6000950008835000242                                                                                                             
7PESE                                                                                000000000050000                            
50002210201807272018073025110673             PES0000050000D000292018072713160170                                                
6000925110673000284                                                                                                             
7PESE                                                                                000000000050000                            
50002310201807272018073025119782             PES0000050000A263522018072712170054                                                
6000925119782000299                                                                                                             
7PESE                                                                                000000000050000                            
50002410201807272018073025119782             PES0000100000A263522018072712170053                                                
6000925119782000299                                                                                                             
7PESE                                                                                000000000100000                            
50002510201807272018073025114480             PES0000010000A214462018072714030005                                                
6000925114480000257                                                                                                             
7PESE                                                                                000000000010000                            
50002610201807272018073025008899             PES0000020000A188102018072712350019                                                
6000925008899000278                                                                                                             
7PESE                                                                                000000000020000                            
50002710201807272018073002003147             PES0000020000A214362018072711560022                                                
6000902003147000215                                                                                                             
7PESE                                                                                000000000020000                            
50002810201807272018073050007942             PES0000010000A071202018072711300055                                                
6000950007942000236                                                                                                             
7PESE                                                                                000000000010000                            
50002910201807272018073050003953             PES0000010000A071202018072711310056                                                
6000950003953000215                                                                                                             
7PESE                                                                                000000000010000                            
50003010201807272018073050010868             PES0000010000A071202018072711310058                                                
6000950010868000290                                                                                                             
7PESE                                                                                000000000010000                            
50003110201807272018073000025505             PES0000030000D004322018072709550017                                                
6000900025505000236                                                                                                             
7PESE                                                                                000000000030000                            
50003210201807272018073000017125             PES0000020000A222882018072709120001                                                
6000900017125000279                                                                                                             
7PESE                                                                                000000000020000                            
50003310201807272018073025122369             PES0000020000A025872018072711080043                                                
6000925122369000242                                                                                                             
7PESE                                                                                000000000020000                            
50003410201807272018073025107530             PES0000020000D000502018072714300171                                                
6000925107530000242                                                                                                             
7PESE                                                                                000000000020000                            
50003510201807272018073025106233             PES0000050000A220672018072713100073                                                
6000925106233000258                                                                                                             
7PESE                                                                                000000000050000                            
50003610201807272018073025024201             PES0000020000D007642018072715420142                                                
6000925024201000263                                                                                                             
7PESE                                                                                000000000020000                            
50003710201807272018073025113950             PES0000030000A106002018072716070108                                                
6000925113950000200                                                                                                             
7PESE                                                                                000000000030000                            
50003810201807272018073025026458             PES0000005000A136712018072715230041                                                
6000925026458000258                                                                                                             
7PESE                                                                                000000000005000                            
50003910201807272018073000010385             PES0000010000A049722018072715540067                                                
6000900010385000242                                                                                                             
7PESE                                                                                000000000010000                            
50004010201807272018073025123300             PES0000010000A018912018072714250017                                                
6000925123300000221                                                                                                             
7PESE                                                                                000000000010000                            
50004110201807272018073025125804             PES0000009500A284222018072715570109                                                
6000925125804000236                                                                                                             
7PESE                                                                                000000000009500                            
50004210201807272018073025113124             PES0000010000A215772018072708320001                                                
6000925113124000257                                                                                                             
7PESE                                                                                000000000010000                            
50004310201807272018073025117864             PES0000005000A103002018072714540016                                                
6000925117864000237                                                                                                             
7PESE                                                                                000000000005000                            
50004410201807272018073000024004             PES0000100000A136242018072712260058                                                
6000900024004000279                                                                                                             
7PESE                                                                                000000000100000                            
50004510201807272018073050010005             PES0000010000A122672018072716120008                                                
6000950010005000221                                                                                                             
7PESE                                                                                000000000010000                            
50004610201807272018073025111379             PES0000020000D010082018072714180096                                                
6000925111379000299                                                                                                             
7PESE                                                                                000000000020000                            
50004710201807272018073000020072             PES0000010000A165462018072714230006                                                
6000900020072000200                                                                                                             
7PESE                                                                                000000000010000                            
50004810201807272018073000006275             PES0000005000A153902018072717010100                                                
6000900006275000237                                                                                                             
7PESE                                                                                000000000005000                            
50004910201807272018073025115960             PES0000010000A070462018072709120001                                                
6000925115960000221                                                                                                             
7PESE                                                                                000000000010000                            
50005010201807272018073025101070             PES0000010000A070462018072712380030                                                
6000925101070000290                                                                                                             
7PESE                                                                                000000000010000                            
50005110201807272018073024814768             PES0000030000A097432018072716040079                                                
6000924814768000284                                                                                                             
7PESE                                                                                000000000030000                            
50005210201807272018073025117740             PES0000009500A253402018072716210082                                                
6000925117740000236                                                                                                             
7PESE                                                                                000000000009500                            
50005310201807272018073000003611             PES0000010000D005772018072709390008                                                
6000900003611000278                                                                                                             
7PESE                                                                                000000000010000                            
50005410201807272018073025113274             PES0000010000A164952018072716330050                                                
6000925113274000299                                                                                                             
7PESE                                                                                000000000010000                            
50005510201807272018073025105045             PES0000030000A173882018072715350037                                                
6000925105045000279                                                                                                             
7PESE                                                                                000000000030000                            
50005610201807272018073025007783             PES0000008914D004852018072712490101                                                
6000925007783000279                                                                                                             
7PESE                                                                                000000000008914                            
50005710201807272018073025118792             PES0000010000A097432018072717140001                                                
6000925118792000278                                                                                                             
7PESE                                                                                000000000010000                            
50005810201807272018073050011846             PES0000050000A284232018072715220043                                                
6000950011846000221                                                                                                             
7PESE                                                                                000000000050000                            
50005910201807272018073000023284             PES0000015000D009172018072714140114                                                
6000900023284000263                                                                                                             
7PESE                                                                                000000000015000                            
50006010201807272018073025106238             PES0000009500D009762018072716210148                                                
6000925106238000236                                                                                                             
7PESE                                                                                000000000009500                            
50006110201807272018073025109431             PES0000010000A259872018072711480025                                                
6000925109431000257                                                                                                             
7PESE                                                                                000000000010000                            
50006210201807272018073025112700             PES0000030000A259872018072716540075                                                
6000925112700000200                                                                                                             
7PESE                                                                                000000000030000                            
50006310201807272018073025111642             PES0000010000A259872018072711480024                                                
6000925111642000216                                                                                                             
7PESE                                                                                000000000010000                            
50006410201807272018073025011728             PES0000010000D005752018072710370034                                                
6000925011728000263                                                                                                             
7PESE                                                                                000000000010000                            
50006510201807272018073025107416             PES0000020000A100002018072716090041                                                
6000925107416000284                                                                                                             
7PESE                                                                                000000000020000                            
50006610201807272018073000020301             PES0000011200A133952018072717230069                                                
6000900020301000237                                                                                                             
7PESE                                                                                000000000011200                            
50006710201807272018073023403387             PES0000010000D000282018072712210087                                                
6000923403387000242                                                                                                             
7PESE                                                                                000000000010000                            
50006810201807272018073025117425             PES0000025000D000282018072709030004                                                
6000925117425000215                                                                                                             
7PESE                                                                                000000000025000                            
50006910201807272018073025109249             PES0000020000D008192018072713370049                                                
6000925109249000221                                                                                                             
7PESE                                                                                000000000020000                            
50007010201807272018073000020750             PES0000015000A175102018072714560162                                                
6000900020750000284                                                                                                             
7PESE                                                                                000000000015000                            
50007110201807272018073050009269             PES0000012812A175102018072714460150                                                
6000950009269000215                                                                                                             
7PESE                                                                                000000000012812                            
50007210201807272018073050008099             PES0000020000A025642018072714030001                                                
6000950008099000215                                                                                                             
7PESE                                                                                000000000020000                            
50007310201807272018073025115827             PES0000009500D000192018072712320047                                                
6000925115827000257                                                                                                             
7PESE                                                                                000000000009500                            
50007410201807272018073000012710             PES0000030000A048012018072716290022                                                
6000900012710000242                                                                                                             
7PESE                                                                                000000000030000                            
50007510201807272018073025104151             PES0000020000A214462018072717520111                                                
6000925104151000236                                                                                                             
7PESE                                                                                000000000020000                            
50007610201807272018073000016276             PES0000030000A100812018072717220024                                                
6000900016276000200                                                                                                             
7PESE                                                                                000000000030000                            
50007710201807272018073025119069             PES0000010050A171562018072718300018                                                
6000925119069000284                                                                                                             
7PESE                                                                                000000000010050                            
50007810201807272018073050007598             PES0000010000D001622018072714120044                                                
6000950007598000200                                                                                                             
7PESE                                                                                000000000010000                            
50007910201807272018073000015207             PES0000010000A024182018072717180023                                                
6000900015207000221                                                                                                             
7PESE                                                                                000000000010000                            
50008010201807272018073050011897             PES0000015140D003272018072711000048                                                
6000950011897000284                                                                                                             
7PESE                                                                                000000000015140                            
50008110201807272018073002002257             PES0000050000D002422018072712080034                                                
6000902002257000200                                                                                                             
7PESE                                                                                000000000050000                            
50008210201807272018073002003161             PES0000100000A044482018072711540017                                                
6000902003161000257                                                                                                             
7PESE                                                                                000000000100000                            
50008310201807272018073002003161             PES0000050000A044482018072711540019                                                
6000902003161000257                                                                                                             
7PESE                                                                                000000000050000                            
50008410201807272018073002003161             PES0000100000A044482018072711540018                                                
6000902003161000257                                                                                                             
7PESE                                                                                000000000100000                            
50008510201807272018073000024522             PES0000030000A121292018072717220002                                                
6000900024522000236                                                                                                             
7PESE                                                                                000000000030000                            
50008610201807272018073025108005             PES0000009500A193912018072718460050                                                
6000925108005000215                                                                                                             
7PESE                                                                                000000000009500                            
50008710201807272018073025102477             PES0000015000A024432018072715080122                                                
6000925102477000242                                                                                                             
7PESE                                                                                000000000015000                            
50008810201807272018073000024204             PES0000020000A206852018072715220018                                                
6000900024204000200                                                                                                             
7PESE                                                                                000000000020000                            
50008910201807272018073000023856             PES0000030000A040252018072717360042                                                
6000900023856000242                                                                                                             
7PESE                                                                                000000000030000                            
50009010201807272018073000024146             PES0000015000A134312018072708510001                                                
6000900024146000263                                                                                                             
7PESE                                                                                000000000015000                            
50009110201807272018073000024823             PES0000020000A121312018072717340025                                                
6000900024823000215                                                                                                             
7PESE                                                                                000000000020000                            
50009210201807272018073024914743             PES0000005000A073062018072717290047                                                
6000924914743000284                                                                                                             
7PESE                                                                                000000000005000                            
50009310201807272018073024714743             PES0000005000A073062018072717310058                                                
6000924714743000237                                                                                                             
7PESE                                                                                000000000005000                            
50009410201807272018073024414743             PES0000003000A073062018072717310059                                                
6000924414743000263                                                                                                             
7PESE                                                                                000000000003000                            
50009510201807272018073024814743             PES0000003000A073062018072717300050                                                
6000924814743000263                                                                                                             
7PESE                                                                                000000000003000                            
50009610201807272018073025014743             PES0000003000A073062018072717300051                                                
6000925014743000279                                                                                                             
7PESE                                                                                000000000003000                            
50009710201807272018073024014743             PES0000003000A073062018072717300052                                                
6000924014743000263                                                                                                             
7PESE                                                                                000000000003000                            
50009810201807272018073000016818             PES0000100000A262362018072711520031                                                
6000900016818000216                                                                                                             
7PESE                                                                                000000000100000                            
50009910201807272018073000016818             PES0000100000A262362018072711520032                                                
6000900016818000216                                                                                                             
7PESE                                                                                000000000100000                            
50010010201807272018073000016818             PES0000050000A262362018072711520034                                                
6000900016818000216                                                                                                             
7PESE                                                                                000000000050000                            
50010110201807272018073000016818             PES0000100000A262362018072711520033                                                
6000900016818000216                                                                                                             
7PESE                                                                                000000000100000                            
50010210201807272018073024416817             PES0000010000A107142018072720220016                                                
6000924416817000236                                                                                                             
7PESE                                                                                000000000010000                            
50010310201807272018073050012805             PES0000005000D005362018072711250066                                                
6000950012805000236                                                                                                             
7PESE                                                                                000000000005000                            
50010410201807272018073000015547             PES0000004000L190062018072710472768                                                
6000900015547000263                                                                                                             
7PESE                                                                                000000000004000                            
50010510201807272018073050008699             PES0000010000L192102018072711358095                                                
6000950008699000200                                                                                                             
7PESE                                                                                000000000010000                            
50010610201807272018073025104965             PES0000020000M602162018072712210006                                                
6000925104965000216                                                                                                             
7PESE                                                                                000000000020000                            
50010710201807272018073000019185             PES0000030000M600412018072713420005                                                
6000900019185000216                                                                                                             
7PESE                                                                                000000000030000                            
50010810201807272018073025105271             PES0000050000M600832018072712250025                                                
6000925105271000242                                                                                                             
7PESE                                                                                000000000050000                            
50010910201807282018073025108044             PES0000020000A063842018072811550067                                                
6000925108044000279                                                                                                             
7PESE                                                                                000000000020000                            
50011010201807282018073000024499             PES0000020000A158572018072810290034                                                
6000900024499000237                                                                                                             
7PESE                                                                                000000000020000                            
50011110201807282018073025113223             PES0000010000A180902018072809080002                                                
6000925113223000236                                                                                                             
7PESE                                                                                000000000010000                            
50011210201807282018073050010139             PES0000010000D000282018072810070024                                                
6000950010139000257                                                                                                             
7PESE                                                                                000000000010000                            
50011310201807282018073025110671             PES0000015000A103002018072810550048                                                
6000925110671000215                                                                                                             
7PESE                                                                                000000000015000                            
50011410201807282018073050012887             PES0000100000A127812018072809540005                                                
6000950012887000200                                                                                                             
7PESE                                                                                000000000100000                            
50011510201807282018073002003184             PES0000020000A127812018072809530003                                                
6000902003184000200                                                                                                             
7PESE                                                                                000000000020000                            
50011610201807282018073000019373             PES0000005000A163032018072808510002                                                
6000900019373000257                                                                                                             
7PESE                                                                                000000000005000                            
50011710201807282018073002005268             PES0000015000A016922018072810320012                                                
6000902005268000200                                                                                                             
7PESE                                                                                000000000015000                            
50011810201807282018073025105268             PES0000010000A016922018072810330015                                                
6000925105268000263                                                                                                             
7PESE                                                                                000000000010000                            
50011910201807282018073024319610             PES0000030000D006112018072811160020                                                
6000924319610000263                                                                                                             
7PESE                                                                                000000000030000                            
50012010201807282018073025113303             PES0000010000A175122018072811380016                                                
6000925113303000290                                                                                                             
7PESE                                                                                000000000010000                            
50012110201807282018073002003887             PES0000005000A031192018072812220129                                                
6000902003887000216                                                                                                             
7PESE                                                                                000000000005000                            
50012210201807282018073025115747             PES0000010000A035742018072810020032                                                
6000925115747000284                                                                                                             
7PESE                                                                                000000000010000                            
50012310201807282018073025001111             PES0000070000A112932018072811200024                                                
6000925001111000278                                                                                                             
7PESE                                                                                000000000070000                            
50012410201807282018073050012300             PES0000010000A283242018072811590010                                                
6000950012300000284                                                                                                             
7PESE                                                                                000000000010000                            
50012510201807282018073023709176             PES0000006000A216302018072812250101                                                
6000923709176000200                                                                                                             
7PESE                                                                                000000000006000                            
50012610201807282018073025104306             PES0000090000D002262018072811530097                                                
6000925104306000215                                                                                                             
7PESP                                                                                000000000090000                            
50012710201807282018073000013749             PES0000005000A231442018072810200008                                                
6000900013749000279                                                                                                             
7PESE                                                                                000000000005000                            
50012810201807282018073025114416             PES0000010000A065362018072812490023                                                
6000925114416000284                                                                                                             
7PESE                                                                                000000000010000                            
50012910201807282018073000021346             PES0000020000D004392018072812430099                                                
6000900021346000258                                                                                                             
7PESE                                                                                000000000020000                            
50013010201807282018073025123111             PES0000017500D002282018072812170024                                                
6000925123111000258                                                                                                             
7PESE                                                                                000000000017500                            
50013110201807282018073025116518             PES0000010000D000512018072813370108                                                
6000925116518000263                                                                                                             
7PESE                                                                                000000000010000                            
50013210201807282018073000019867             PES0000030000A073412018072815060003                                                
6000900019867000242                                                                                                             
7PESE                                                                                000000000030000                            
50013310201807282018073011312590             PES0000002127A175112018072817100015                                                
6000911312590000242                                                                                                             
7PESE                                                                                000000000002127                            
50013410201807282018073025104747             PES0000010000D003462018072810530028                                                
6000925104747000200                                                                                                             
7PESP                                                                                000000000010000                            
50013510201807282018073000014937             PES0000003470D001722018072816580045                                                
6000900014937000258                                                                                                             
7PESE                                                                                000000000003470                            
50013610201807282018073000020671             PES0000100000D006252018072815570055                                                
6000900020671000258                                                                                                             
7PESE                                                                                000000000100000                            
50013710201807282018073025114761             PES0000010000L192902018072811516415                                                
6000925114761000284                                                                                                             
7PESE                                                                                000000000010000                            
50013810201807292018073000024305             PES0000035000A110902018072819510052                                                
6000900024305000258                                                                                                             
7PESE                                                                                000000000035000                            
50013910201807292018073050012687             PES0000040000D003462018072913470137                                                
6000950012687000278                                                                                                             
7PESP                                                                                000000000040000                            
82018073000000100001390000033678930000000000000000000000000000000000000000139                                                   
9201807300000010000139000003367893000000000000000000000000000000000000000000139                                                 
