120180731PAGO FACIL               090060009INS. SALESIANA SAN FCO. JAVIER-ASOC                                                  
320180731000001INS. SALESIANA SAN FCO. JAVIER-ASOC                                                                              
50000110201807302018073100005000             PES0000010000A146132018073012140083                                                
6000900005000000215                                                                                                             
7PESE                                                                                000000000010000                            
50000210201807302018073100007879             PES0000040000D000182018073016250055                                                
6000900007879000215                                                                                                             
7PESE                                                                                000000000040000                            
50000310201807302018073100008288             PES0000010000A116882018073013230040                                                
6000900008288000258                                                                                                             
7PESE                                                                                000000000010000                            
50000410201807302018073100009024             PES0000030000M620752018073013040011                                                
6000900009024000284                                                                                                             
7PESE                                                                                000000000030000                            
50000510201807302018073100009354             PES0000010000A084922018073011130049                                                
6000900009354000200                                                                                                             
7PESE                                                                                000000000010000                            
50000610201807302018073100009850             PES0000004000A075792018073010100015                                                
6000900009850000237                                                                                                             
7PESE                                                                                000000000004000                            
50000710201807302018073100010443             PES0000010129A173472018073017310054                                                
6000900010443000284                                                                                                             
7PESE                                                                                000000000010129                            
50000810201807302018073100011744             PES0000002000D001622018073008420014                                                
6000900011744000215                                                                                                             
7PESE                                                                                000000000002000                            
50000910201807302018073100014695             PES0000015000A097442018073013260109                                                
6000900014695000299                                                                                                             
7PESE                                                                                000000000015000                            
50001010201807302018073100014728             PES0000010000D001732018073011130169                                                
6000900014728000237                                                                                                             
7PESE                                                                                000000000010000                            
50001110201807302018073100014843             PES0000015000A128792018073014400001                                                
6000900014843000221                                                                                                             
7PESE                                                                                000000000015000                            
50001210201807302018073100014933             PES0000010000M600482018073012320040                                                
6000900014933000216                                                                                                             
7PESE                                                                                000000000010000                            
50001310201807302018073100015719             PES0000008650A089292018073017350013                                                
6000900015719000299                                                                                                             
7PESE                                                                                000000000008650                            
50001410201807302018073100015792             PES0000060000A089982018073013530039                                                
6000900015792000242                                                                                                             
7PESE                                                                                000000000060000                            
50001510201807302018073100015818             PES0000010000A231062018073014330053                                                
6000900015818000278                                                                                                             
7PESE                                                                                000000000010000                            
50001610201807302018073100015939             PES0000050000A215722018073010300120                                                
6000900015939000278                                                                                                             
7PESE                                                                                000000000050000                            
50001710201807302018073100016040             PES0000020000A215782018073014470011                                                
6000900016040000299                                                                                                             
7PESE                                                                                000000000020000                            
50001810201807302018073100016248             PES0000030000A162372018073010240006                                                
6000900016248000200                                                                                                             
7PESE                                                                                000000000030000                            
50001910201807302018073100016636             PES0000030000A135422018073011540034                                                
6000900016636000263                                                                                                             
7PESE                                                                                000000000030000                            
50002010201807302018073100017445             PES0000012000A089982018073009380045                                                
6000900017445000278                                                                                                             
7PESE                                                                                000000000012000                            
50002110201807302018073100017988             PES0000013000A165572018073017220017                                                
6000900017988000257                                                                                                             
7PESE                                                                                000000000013000                            
50002210201807302018073100018134             PES0000015000A137632018073008540036                                                
6000900018134000215                                                                                                             
7PESE                                                                                000000000015000                            
50002310201807302018073100019181             PES0000080000A173652018073010110010                                                
6000900019181000279                                                                                                             
7PESE                                                                                000000000080000                            
50002410201807302018073100019522             PES0000030000A106002018073016310018                                                
6000900019522000221                                                                                                             
7PESE                                                                                000000000030000                            
50002510201807302018073100020240             PES0000080000A228662018073015050044                                                
6000900020240000284                                                                                                             
7PESE                                                                                000000000080000                            
50002610201807302018073100020248             PES0000015000A222692018073015210049                                                
6000900020248000263                                                                                                             
7PESE                                                                                000000000015000                            
50002710201807302018073100020998             PES0000005000A181512018073018290054                                                
6000900020998000290                                                                                                             
7PESE                                                                                000000000005000                            
50002810201807302018073100021045             PES0000020000D003662018073017300008                                                
6000900021045000279                                                                                                             
7PESP                                                                                000000000020000                            
50002910201807302018073100021119             PES0000050000A101232018073013120090                                                
6000900021119000258                                                                                                             
7PESE                                                                                000000000050000                            
50003010201807302018073100021175             PES0000020000D009842018073015200168                                                
6000900021175000263                                                                                                             
7PESP                                                                                000000000020000                            
50003110201807302018073100021926             PES0000010000A201122018073017100074                                                
6000900021926000290                                                                                                             
7PESE                                                                                000000000010000                            
50003210201807302018073100022010             PES0000050000A097162018073012500031                                                
6000900022010000278                                                                                                             
7PESE                                                                                000000000050000                            
50003310201807302018073100022242             PES0000020000D001952018073010340052                                                
6000900022242000242                                                                                                             
7PESE                                                                                000000000020000                            
50003410201807302018073100022797             PES0000005000D002282018073011460075                                                
6000900022797000221                                                                                                             
7PESE                                                                                000000000005000                            
50003510201807302018073100022961             PES0000100000A127772018073012140015                                                
6000900022961000263                                                                                                             
7PESE                                                                                000000000100000                            
50003610201807302018073100022961             PES0000100000A127772018073012130014                                                
6000900022961000263                                                                                                             
7PESE                                                                                000000000100000                            
50003710201807302018073100023318             PES0000015000A149472018073011510042                                                
6000900023318000242                                                                                                             
7PESE                                                                                000000000015000                            
50003810201807302018073100023455             PES0000010000A145192018073011360089                                                
6000900023455000257                                                                                                             
7PESE                                                                                000000000010000                            
50003910201807302018073100023523             PES0000018000D007652018073009370008                                                
6000900023523000221                                                                                                             
7PESP                                                                                000000000018000                            
50004010201807302018073100023724             PES0000030000A147712018073010450098                                                
6000900023724000284                                                                                                             
7PESE                                                                                000000000030000                            
50004110201807302018073100023823             PES0000020000A168612018073010150021                                                
6000900023823000263                                                                                                             
7PESE                                                                                000000000020000                            
50004210201807302018073100024046             PES0000010000D007632018073013350098                                                
6000900024046000242                                                                                                             
7PESE                                                                                000000000010000                            
50004310201807302018073100024193             PES0000012000D009922018073018350152                                                
6000900024193000284                                                                                                             
7PESE                                                                                000000000012000                            
50004410201807302018073100024969             PES0000030000A121302018073010500131                                                
6000900024969000237                                                                                                             
7PESE                                                                                000000000030000                            
50004510201807302018073100025375             PES0000010000A201772018073010470026                                                
6000900025375000279                                                                                                             
7PESE                                                                                000000000010000                            
50004610201807302018073100026313             PES0000005000A222692018073010480064                                                
6000900026313000200                                                                                                             
7PESE                                                                                000000000005000                            
50004710201807302018073102002106             PES0000100000A274672018073016490066                                                
6000902002106000236                                                                                                             
7PESE                                                                                000000000100000                            
50004810201807302018073102003326             PES0000025000M600102018073010200003                                                
6000902003326000258                                                                                                             
7PESE                                                                                000000000025000                            
50004910201807302018073102003871             PES0000030000A188912018073016370039                                                
6000902003871000284                                                                                                             
7PESE                                                                                000000000030000                            
50005010201807302018073102005129             PES0000010000A180472018073016020089                                                
6000902005129000221                                                                                                             
7PESE                                                                                000000000010000                            
50005110201807302018073102005129             PES0000015000A180472018073016020088                                                
6000902005129000221                                                                                                             
7PESE                                                                                000000000015000                            
50005210201807302018073102005540             PES0000010000D000302018073013130083                                                
6000902005540000216                                                                                                             
7PESE                                                                                000000000010000                            
50005310201807302018073112908595             PES0000010000A057612018073018530046                                                
6000912908595000221                                                                                                             
7PESE                                                                                000000000010000                            
50005410201807302018073120312866             PES0000015000A222632018073013540050                                                
6000920312866000258                                                                                                             
7PESE                                                                                000000000015000                            
50005510201807302018073121213741             PES0000030000A137132018073017090060                                                
6000921213741000257                                                                                                             
7PESE                                                                                000000000030000                            
50005610201807302018073123504209             PES0000010000A031192018073017510011                                                
6000923504209000278                                                                                                             
7PESE                                                                                000000000010000                            
50005710201807302018073124011428             PES0000005000A025872018073015590098                                                
6000924011428000200                                                                                                             
7PESE                                                                                000000000005000                            
50005810201807302018073124023762             PES0000050000A197162018073013360033                                                
6000924023762000263                                                                                                             
7PESE                                                                                000000000050000                            
50005910201807302018073124224503             PES0000100000A165512018073012120017                                                
6000924224503000216                                                                                                             
7PESE                                                                                000000000100000                            
50006010201807302018073124224503             PES0000100000A165512018073012120016                                                
6000924224503000216                                                                                                             
7PESE                                                                                000000000100000                            
50006110201807302018073124414886             PES0000020000D004902018073012230126                                                
6000924414886000284                                                                                                             
7PESE                                                                                000000000020000                            
50006210201807302018073124416110             PES0000020000D004302018073008220010                                                
6000924416110000284                                                                                                             
7PESE                                                                                000000000020000                            
50006310201807302018073124712097             PES0000020000A620272018073010480051                                                
6000924712097000200                                                                                                             
7PESE                                                                                000000000020000                            
50006410201807302018073124822393             PES0000020000A149482018073010150008                                                
6000924822393000278                                                                                                             
7PESE                                                                                000000000020000                            
50006510201807302018073124906044             PES0000010000A048012018073010070049                                                
6000924906044000278                                                                                                             
7PESE                                                                                000000000010000                            
50006610201807302018073125003859             PES0000010000M600742018073013410152                                                
6000925003859000242                                                                                                             
7PESE                                                                                000000000010000                            
50006710201807302018073125007878             PES0000010000A071842018073015460020                                                
6000925007878000242                                                                                                             
7PESE                                                                                000000000010000                            
50006810201807302018073125008871             PES0000010000A112932018073010480067                                                
6000925008871000242                                                                                                             
7PESE                                                                                000000000010000                            
50006910201807302018073125011260             PES0000005000A077392018073010310077                                                
6000925011260000215                                                                                                             
7PESE                                                                                000000000005000                            
50007010201807302018073125014558             PES0000030000A080102018073011200004                                                
6000925014558000242                                                                                                             
7PESE                                                                                000000000030000                            
50007110201807302018073125016912             PES0000011400A205972018073011410014                                                
6000925016912000284                                                                                                             
7PESE                                                                                000000000011400                            
50007210201807302018073125018880             PES0000040000A146132018073012310006                                                
6000925018880000263                                                                                                             
7PESP                                                                                000000000040000                            
50007310201807302018073125019987             PES0000017889D001622018073018310316                                                
6000925019987000278                                                                                                             
7PESE                                                                                000000000017889                            
50007410201807302018073125022586             PES0000010000A101712018073009550018                                                
6000925022586000290                                                                                                             
7PESE                                                                                000000000010000                            
50007510201807302018073125100424             PES0000100000D001872018073015150359                                                
6000925100424000221                                                                                                             
7PESE                                                                                000000000100000                            
50007610201807302018073125100424             PES0000100000D004892018073015150213                                                
6000925100424000221                                                                                                             
7PESE                                                                                000000000100000                            
50007710201807302018073125102337             PES0000015000M600132018073014440145                                                
6000925102337000236                                                                                                             
7PESE                                                                                000000000015000                            
50007810201807302018073125102508             PES0000050000A094782018073011270058                                                
6000925102508000221                                                                                                             
7PESE                                                                                000000000050000                            
50007910201807302018073125102694             PES0000003000A073412018073010220042                                                
6000925102694000221                                                                                                             
7PESE                                                                                000000000003000                            
50008010201807302018073125103276             PES0000030000A162372018073011570028                                                
6000925103276000221                                                                                                             
7PESE                                                                                000000000030000                            
50008110201807302018073125105841             PES0000005000A139942018073011470014                                                
6000925105841000258                                                                                                             
7PESE                                                                                000000000005000                            
50008210201807302018073125105973             PES0000006000D000292018073016360256                                                
6000925105973000216                                                                                                             
7PESE                                                                                000000000006000                            
50008310201807302018073125105986             PES0000020000D002302018073013350107                                                
6000925105986000242                                                                                                             
7PESE                                                                                000000000020000                            
50008410201807302018073125106442             PES0000020000A173832018073010550081                                                
6000925106442000279                                                                                                             
7PESE                                                                                000000000020000                            
50008510201807302018073125106644             PES0000015000A173472018073012480001                                                
6000925106644000279                                                                                                             
7PESE                                                                                000000000015000                            
50008610201807302018073125106953             PES0000010000D005752018073017060166                                                
6000925106953000215                                                                                                             
7PESE                                                                                000000000010000                            
50008710201807302018073125108101             PES0000009500A164562018073010370044                                                
6000925108101000284                                                                                                             
7PESE                                                                                000000000009500                            
50008810201807302018073125108428             PES0000050000A272022018073012540025                                                
6000925108428000221                                                                                                             
7PESE                                                                                000000000050000                            
50008910201807302018073125109002             PES0000015000A183332018073012120002                                                
6000925109002000257                                                                                                             
7PESE                                                                                000000000015000                            
50009010201807302018073125109222             PES0000010000A212952018073012040035                                                
6000925109222000236                                                                                                             
7PESE                                                                                000000000010000                            
50009110201807302018073125109597             PES0000010000A254952018073009540034                                                
6000925109597000221                                                                                                             
7PESE                                                                                000000000010000                            
50009210201807302018073125110110             PES0000005000A214382018073014320039                                                
6000925110110000257                                                                                                             
7PESE                                                                                000000000005000                            
50009310201807302018073125110123             PES0000009500A112762018073013120101                                                
6000925110123000284                                                                                                             
7PESE                                                                                000000000009500                            
50009410201807302018073125110418             PES0000020000A220692018073012080056                                                
6000925110418000279                                                                                                             
7PESE                                                                                000000000020000                            
50009510201807302018073125110642             PES0000030000A158162018073012530032                                                
6000925110642000278                                                                                                             
7PESE                                                                                000000000030000                            
50009610201807302018073125110660             PES0000010000D005792018073011560026                                                
6000925110660000257                                                                                                             
7PESE                                                                                000000000010000                            
50009710201807302018073125111087             PES0000010000D000492018073016130039                                                
6000925111087000200                                                                                                             
7PESE                                                                                000000000010000                            
50009810201807302018073125111260             PES0000005000A077392018073010310078                                                
6000925111260000237                                                                                                             
7PESE                                                                                000000000005000                            
50009910201807302018073125111651             PES0000100000A214672018073014390053                                                
6000925111651000200                                                                                                             
7PESE                                                                                000000000100000                            
50010010201807302018073125111732             PES0000009500A112372018073010450002                                                
6000925111732000200                                                                                                             
7PESE                                                                                000000000009500                            
50010110201807302018073125111758             PES0000020000A032972018073010210008                                                
6000925111758000263                                                                                                             
7PESE                                                                                000000000020000                            
50010210201807302018073125112097             PES0000010000A620272018073010480050                                                
6000925112097000278                                                                                                             
7PESE                                                                                000000000010000                            
50010310201807302018073125112242             PES0000015000A158372018073009020005                                                
6000925112242000200                                                                                                             
7PESE                                                                                000000000015000                            
50010410201807302018073125112366             PES0000020000A175112018073010410005                                                
6000925112366000200                                                                                                             
7PESE                                                                                000000000020000                            
50010510201807302018073125112429             PES0000020000A114372018073014430072                                                
6000925112429000221                                                                                                             
7PESE                                                                                000000000020000                            
50010610201807302018073125112502             PES0000010000A182782018073017520026                                                
6000925112502000242                                                                                                             
7PESE                                                                                000000000010000                            
50010710201807302018073125112637             PES0000010000A139942018073012210052                                                
6000925112637000215                                                                                                             
7PESE                                                                                000000000010000                            
50010810201807302018073125114386             PES0000012000A167992018073013450081                                                
6000925114386000242                                                                                                             
7PESE                                                                                000000000012000                            
50010910201807302018073125114428             PES0000020000A220672018073011110044                                                
6000925114428000284                                                                                                             
7PESE                                                                                000000000020000                            
50011010201807302018073125114842             PES0000010000A139942018073012210051                                                
6000925114842000284                                                                                                             
7PESE                                                                                000000000010000                            
50011110201807302018073125114882             PES0000010000D002822018073010090009                                                
6000925114882000284                                                                                                             
7PESE                                                                                000000000010000                            
50011210201807302018073125115731             PES0000010000A153862018073013380046                                                
6000925115731000257                                                                                                             
7PESE                                                                                000000000010000                            
50011310201807302018073125116801             PES0000025000A106002018073016370028                                                
6000925116801000237                                                                                                             
7PESE                                                                                000000000025000                            
50011410201807302018073125116857             PES0000020000D000302018073010380006                                                
6000925116857000278                                                                                                             
7PESE                                                                                000000000020000                            
50011510201807302018073125117051             PES0000030000A182772018073013080092                                                
6000925117051000284                                                                                                             
7PESE                                                                                000000000030000                            
50011610201807302018073125118082             PES0000020000A146132018073018260056                                                
6000925118082000242                                                                                                             
7PESE                                                                                000000000020000                            
50011710201807302018073125118143             PES0000010000A165462018073013190103                                                
6000925118143000299                                                                                                             
7PESE                                                                                000000000010000                            
50011810201807302018073125118165             PES0000050000D005322018073010490039                                                
6000925118165000215                                                                                                             
7PESE                                                                                000000000050000                            
50011910201807302018073125118201             PES0000010000A135422018073010250020                                                
6000925118201000237                                                                                                             
7PESE                                                                                000000000010000                            
50012010201807302018073125118821             PES0000020000D005392018073016300258                                                
6000925118821000279                                                                                                             
7PESE                                                                                000000000020000                            
50012110201807302018073125119489             PES0000010000A114372018073011380017                                                
6000925119489000299                                                                                                             
7PESE                                                                                000000000010000                            
50012210201807302018073125119533             PES0000020000M600602018073010090005                                                
6000925119533000278                                                                                                             
7PESE                                                                                000000000020000                            
50012310201807302018073125122586             PES0000020000A101712018073009550017                                                
6000925122586000221                                                                                                             
7PESE                                                                                000000000020000                            
50012410201807302018073125122750             PES0000009500A145332018073009260028                                                
6000925122750000263                                                                                                             
7PESE                                                                                000000000009500                            
50012510201807302018073125123855             PES0000020000D009902018073016150051                                                
6000925123855000200                                                                                                             
7PESP                                                                                000000000020000                            
50012610201807302018073125126088             PES0000009500A284232018073011480028                                                
6000925126088000290                                                                                                             
7PESE                                                                                000000000009500                            
50012710201807302018073125126348             PES0000010000A262042018073009500050                                                
6000925126348000242                                                                                                             
7PESE                                                                                000000000010000                            
50012810201807302018073125126369             PES0000050000A214382018073017240017                                                
6000925126369000221                                                                                                             
7PESE                                                                                000000000050000                            
50012910201807302018073133005771             PES0000100000A149732018073013200043                                                
6000933005771000200                                                                                                             
7PESE                                                                                000000000100000                            
50013010201807302018073150006069             PES0000030000A220692018073011140004                                                
6000950006069000242                                                                                                             
7PESE                                                                                000000000030000                            
50013110201807302018073150007162             PES0000030000D005422018073014180189                                                
6000950007162000263                                                                                                             
7PESE                                                                                000000000030000                            
50013210201807302018073150007463             PES0000010000A137632018073009570092                                                
6000950007463000242                                                                                                             
7PESE                                                                                000000000010000                            
50013310201807302018073150007758             PES0000070000A076262018073009490024                                                
6000950007758000237                                                                                                             
7PESP                                                                                000000000070000                            
50013410201807302018073150007818             PES0000010000A180472018073016020091                                                
6000950007818000257                                                                                                             
7PESE                                                                                000000000010000                            
50013510201807302018073150007818             PES0000015000A180472018073016020090                                                
6000950007818000257                                                                                                             
7PESE                                                                                000000000015000                            
50013610201807302018073150008469             PES0000010000A214442018073011510036                                                
6000950008469000290                                                                                                             
7PESE                                                                                000000000010000                            
50013710201807302018073150008673             PES0000030000D000292018073015310212                                                
6000950008673000242                                                                                                             
7PESE                                                                                000000000030000                            
50013810201807302018073150008840             PES0000010000A151582018073016440091                                                
6000950008840000299                                                                                                             
7PESE                                                                                000000000010000                            
50013910201807302018073150009186             PES0000004000A097432018073016210022                                                
6000950009186000242                                                                                                             
7PESE                                                                                000000000004000                            
50014010201807302018073150009279             PES0000015000A119482018073018240069                                                
6000950009279000237                                                                                                             
7PESE                                                                                000000000015000                            
50014110201807302018073150009889             PES0000010000D002092018073010550081                                                
6000950009889000257                                                                                                             
7PESE                                                                                000000000010000                            
50014210201807302018073150009989             PES0000025197A142512018073014040020                                                
6000950009989000263                                                                                                             
7PESE                                                                                000000000025197                            
50014310201807302018073150010444             PES0000020000A071202018073016020030                                                
6000950010444000242                                                                                                             
7PESE                                                                                000000000020000                            
50014410201807302018073150011949             PES0000050000A150232018073010490049                                                
6000950011949000242                                                                                                             
7PESE                                                                                000000000050000                            
50014510201807302018073150012129             PES0000015000A080102018073012030029                                                
6000950012129000216                                                                                                             
7PESE                                                                                000000000015000                            
50014610201807302018073150012210             PES0000015600A141082018073011460063                                                
6000950012210000299                                                                                                             
7PESE                                                                                000000000015600                            
50014710201807302018073150012408             PES0000010000A129482018073017460054                                                
6000950012408000279                                                                                                             
7PESE                                                                                000000000010000                            
50014810201807302018073150012949             PES0000020000A188952018073017380077                                                
6000950012949000284                                                                                                             
7PESE                                                                                000000000020000                            
50014910201807302018073150014549             PES0000010000D005412018073009320028                                                
6000950014549000216                                                                                                             
7PESP                                                                                000000000010000                            
50015010201807302018073150014925             PES0000010000A204112018073016350011                                                
6000950014925000284                                                                                                             
7PESE                                                                                000000000010000                            
82018073100000100001500000035923650000000000000000000000000000000000000000150                                                   
9201807310000010000150000003592365000000000000000000000000000000000000000000150                                                 
