00000000COBRO EXPRESS       20180822OBRA DON BOSCO                       
20180821000000000010000000925219603000237                                
20180821000000000016800000900017275000216                                
9999999900000002000000000000026800                                       
