00000000COBRO EXPRESS       20180712OBRA DON BOSCO                       
20180711000000000020000000925021631000263                                
9999999900000001000000000000020000                                       
