00000000COBRO EXPRESS       20180817OBRA DON BOSCO                       
20180816000000000030000000925208044000200                                
9999999900000001000000000000030000                                       
