00000000COBRO EXPRESS       20180816OBRA DON BOSCO                       
20180815000000000200000000924305575000263                                
20180815000000000010000000925211222000236                                
20180815000000000020000000925224112000263                                
20180815000000000250000000902003161000257                                
9999999900000004000000000000480000                                       
