00000000COBRO EXPRESS       20180801OBRA DON BOSCO                       
20180731000000000020000000925107362000258                                
20180731000000000002000000900006079000242                                
20180731000000000014300000925119603000215                                
9999999900000003000000000000036300                                       
