00000000COBRO EXPRESS       20180723OBRA DON BOSCO                       
20180720000000000005000000925109969000284                                
20180721000000000010000000925113186000278                                
20180721000000000030000000924415096000236                                
20180721000000000010000000925023692000242                                
20180721000000000020000000925114582000237                                
9999999900000005000000000000075000                                       
