00000000COBRO EXPRESS       20180803OBRA DON BOSCO                       
20180802000000000050000000920920257000278                                
9999999900000001000000000000050000                                       
