00000000COBRO EXPRESS       20180725OBRA DON BOSCO                       
20180724000000000015000000925118730000257                                
9999999900000001000000000000015000                                       
