00000000COBRO EXPRESS       20180810OBRA DON BOSCO                       
20180809000000000020000000925215269000258                                
9999999900000001000000000000020000                                       
