00000000COBRO EXPRESS       20180713OBRA DON BOSCO                       
20180712000000000006500000925006238000200                                
9999999900000001000000000000006500                                       
