00000000COBRO EXPRESS       20180815OBRA DON BOSCO                       
20180814000000000010000000925213951000263                                
9999999900000001000000000000010000                                       
