00000000COBRO EXPRESS       20180809OBRA DON BOSCO                       
20180808000000000050000000925106617000200                                
9999999900000001000000000000050000                                       
