00000000COBRO EXPRESS       20180730OBRA DON BOSCO                       
20180727000000000005000000925113951000242                                
20180727000000000147058000924422162000236                                
9999999900000002000000000000152058                                       
