00000000COBRO EXPRESS       20180808OBRA DON BOSCO                       
20180807000000000025000000950013595000258                                
9999999900000001000000000000025000                                       
