00000000COBRO EXPRESS       20180821OBRA DON BOSCO                       
20180817000000000010000000925215403000221                                
9999999900000001000000000000010000                                       
