00000000COBRO EXPRESS       20180806OBRA DON BOSCO                       
20180803000000000019400000900017176000237                                
9999999900000001000000000000019400                                       
