00000000COBRO EXPRESS       20180814OBRA DON BOSCO                       
20180813000000000020000000925011897000221                                
20180813000000000020000000925111897000242                                
20180813000000000025000000925202673000263                                
20180813000000000025000000925102673000237                                
9999999900000004000000000000090000                                       
