00000000COBRO EXPRESS       20180813OBRA DON BOSCO                       
20180810000000000020000000925118418000237                                
20180810000000000030000000950008113000216                                
20180810000000000100000000925205126000200                                
20180811000000000020000000925224286000299                                
9999999900000004000000000000170000                                       
