00000000COBRO EXPRESS       20180731OBRA DON BOSCO                       
20180730000000000010000000925109829000263                                
9999999900000001000000000000010000                                       
