00000000COBRO EXPRESS       20180716OBRA DON BOSCO                       
20180713000000000010000000925124252000257                                
20180713000000000010000000925012084000216                                
20180713000000000020000000900016468000284                                
9999999900000003000000000000040000                                       
